{"contracts/IGNToken.sol":{"IGNToken":{"abi":[{"inputs":[{"internalType":"string","name":"_name","type":"string"},{"internalType":"string","name":"_symbol","type":"string"},{"internalType":"address","name":"_lzEndpoint","type":"address"},{"internalType":"address","name":"_owner","type":"address"}],"stateMutability":"nonpayable","type":"constructor"},{"inputs":[],"name":"InvalidDelegate","type":"error"},{"inputs":[],"name":"InvalidEndpointCall","type":"error"},{"inputs":[],"name":"InvalidLocalDecimals","type":"error"},{"inputs":[{"internalType":"bytes","name":"options","type":"bytes"}],"name":"InvalidOptions","type":"error"},{"inputs":[],"name":"LzTokenUnavailable","type":"error"},{"inputs":[{"internalType":"uint32","name":"eid","type":"uint32"}],"name":"NoPeer","type":"error"},{"inputs":[{"internalType":"uint256","name":"msgValue","type":"uint256"}],"name":"NotEnoughNative","type":"error"},{"inputs":[{"internalType":"address","name":"addr","type":"address"}],"name":"OnlyEndpoint","type":"error"},{"inputs":[{"internalType":"uint32","name":"eid","type":"uint32"},{"internalType":"bytes32","name":"sender","type":"bytes32"}],"name":"OnlyPeer","type":"error"},{"inputs":[],"name":"OnlySelf","type":"error"},{"inputs":[{"internalType":"bytes","name":"result","type":"bytes"}],"name":"SimulationResult","type":"error"},{"inputs":[{"internalType":"uint256","name":"amountLD","type":"uint256"},{"internalType":"uint256","name":"minAmountLD","type":"uint256"}],"name":"SlippageExceeded","type":"error"},{"anonymous":false,"inputs":[{"indexed":true,"internalType":"address","name":"owner","type":"address"},{"indexed":true,"internalType":"address","name":"spender","type":"address"},{"indexed":false,"internalType":"uint256","name":"value","type":"uint256"}],"name":"Approval","type":"event"},{"anonymous":false,"inputs":[{"components":[{"internalType":"uint32","name":"eid","type":"uint32"},{"internalType":"uint16","name":"msgType","type":"uint16"},{"internalType":"bytes","name":"options","type":"bytes"}],"indexed":false,"internalType":"struct EnforcedOptionParam[]","name":"_enforcedOptions","type":"tuple[]"}],"name":"EnforcedOptionSet","type":"event"},{"anonymous":false,"inputs":[{"indexed":false,"internalType":"address","name":"inspector","type":"address"}],"name":"MsgInspectorSet","type":"event"},{"anonymous":false,"inputs":[{"indexed":true,"internalType":"bytes32","name":"guid","type":"bytes32"},{"indexed":false,"internalType":"uint32","name":"srcEid","type":"uint32"},{"indexed":true,"internalType":"address","name":"toAddress","type":"address"},{"indexed":false,"internalType":"uint256","name":"amountLD","type":"uint256"}],"name":"OFTReceived","type":"event"},{"anonymous":false,"inputs":[{"indexed":true,"internalType":"bytes32","name":"guid","type":"bytes32"},{"indexed":false,"internalType":"uint32","name":"dstEid","type":"uint32"},{"indexed":true,"internalType":"address","name":"fromAddress","type":"address"},{"indexed":false,"internalType":"uint256","name":"amountLD","type":"uint256"}],"name":"OFTSent","type":"event"},{"anonymous":false,"inputs":[{"indexed":true,"internalType":"address","name":"previousOwner","type":"address"},{"indexed":true,"internalType":"address","name":"newOwner","type":"address"}],"name":"OwnershipTransferred","type":"event"},{"anonymous":false,"inputs":[{"indexed":false,"internalType":"uint32","name":"eid","type":"uint32"},{"indexed":false,"internalType":"bytes32","name":"peer","type":"bytes32"}],"name":"PeerSet","type":"event"},{"anonymous":false,"inputs":[{"indexed":false,"internalType":"address","name":"preCrimeAddress","type":"address"}],"name":"PreCrimeSet","type":"event"},{"anonymous":false,"inputs":[{"indexed":true,"internalType":"address","name":"from","type":"address"},{"indexed":true,"internalType":"address","name":"to","type":"address"},{"indexed":false,"internalType":"uint256","name":"value","type":"uint256"}],"name":"Transfer","type":"event"},{"inputs":[],"name":"SEND","outputs":[{"internalType":"uint16","name":"","type":"uint16"}],"stateMutability":"view","type":"function"},{"inputs":[],"name":"SEND_AND_CALL","outputs":[{"internalType":"uint16","name":"","type":"uint16"}],"stateMutability":"view","type":"function"},{"inputs":[{"components":[{"internalType":"uint32","name":"srcEid","type":"uint32"},{"internalType":"bytes32","name":"sender","type":"bytes32"},{"internalType":"uint64","name":"nonce","type":"uint64"}],"internalType":"struct Origin","name":"origin","type":"tuple"}],"name":"allowInitializePath","outputs":[{"internalType":"bool","name":"","type":"bool"}],"stateMutability":"view","type":"function"},{"inputs":[{"internalType":"address","name":"owner","type":"address"},{"internalType":"address","name":"spender","type":"address"}],"name":"allowance","outputs":[{"internalType":"uint256","name":"","type":"uint256"}],"stateMutability":"view","type":"function"},{"inputs":[],"name":"approvalRequired","outputs":[{"internalType":"bool","name":"","type":"bool"}],"stateMutability":"pure","type":"function"},{"inputs":[{"internalType":"address","name":"spender","type":"address"},{"internalType":"uint256","name":"amount","type":"uint256"}],"name":"approve","outputs":[{"internalType":"bool","name":"","type":"bool"}],"stateMutability":"nonpayable","type":"function"},{"inputs":[{"internalType":"address","name":"account","type":"address"}],"name":"balanceOf","outputs":[{"internalType":"uint256","name":"","type":"uint256"}],"stateMutability":"view","type":"function"},{"inputs":[{"internalType":"uint32","name":"_eid","type":"uint32"},{"internalType":"uint16","name":"_msgType","type":"uint16"},{"internalType":"bytes","name":"_extraOptions","type":"bytes"}],"name":"combineOptions","outputs":[{"internalType":"bytes","name":"","type":"bytes"}],"stateMutability":"view","type":"function"},{"inputs":[],"name":"composeMsgSender","outputs":[{"internalType":"address","name":"sender","type":"address"}],"stateMutability":"view","type":"function"},{"inputs":[],"name":"decimalConversionRate","outputs":[{"internalType":"uint256","name":"","type":"uint256"}],"stateMutability":"view","type":"function"},{"inputs":[],"name":"decimals","outputs":[{"internalType":"uint8","name":"","type":"uint8"}],"stateMutability":"view","type":"function"},{"inputs":[{"internalType":"address","name":"spender","type":"address"},{"internalType":"uint256","name":"subtractedValue","type":"uint256"}],"name":"decreaseAllowance","outputs":[{"internalType":"bool","name":"","type":"bool"}],"stateMutability":"nonpayable","type":"function"},{"inputs":[],"name":"endpoint","outputs":[{"internalType":"contract ILayerZeroEndpointV2","name":"","type":"address"}],"stateMutability":"view","type":"function"},{"inputs":[{"internalType":"uint32","name":"eid","type":"uint32"},{"internalType":"uint16","name":"msgType","type":"uint16"}],"name":"enforcedOptions","outputs":[{"internalType":"bytes","name":"enforcedOption","type":"bytes"}],"stateMutability":"view","type":"function"},{"inputs":[{"internalType":"address","name":"spender","type":"address"},{"internalType":"uint256","name":"addedValue","type":"uint256"}],"name":"increaseAllowance","outputs":[{"internalType":"bool","name":"","type":"bool"}],"stateMutability":"nonpayable","type":"function"},{"inputs":[{"internalType":"uint32","name":"_eid","type":"uint32"},{"internalType":"bytes32","name":"_peer","type":"bytes32"}],"name":"isPeer","outputs":[{"internalType":"bool","name":"","type":"bool"}],"stateMutability":"view","type":"function"},{"inputs":[{"components":[{"internalType":"uint32","name":"srcEid","type":"uint32"},{"internalType":"bytes32","name":"sender","type":"bytes32"},{"internalType":"uint64","name":"nonce","type":"uint64"}],"internalType":"struct Origin","name":"_origin","type":"tuple"},{"internalType":"bytes32","name":"_guid","type":"bytes32"},{"internalType":"bytes","name":"_message","type":"bytes"},{"internalType":"address","name":"_executor","type":"address"},{"internalType":"bytes","name":"_extraData","type":"bytes"}],"name":"lzReceive","outputs":[],"stateMutability":"payable","type":"function"},{"inputs":[{"components":[{"components":[{"internalType":"uint32","name":"srcEid","type":"uint32"},{"internalType":"bytes32","name":"sender","type":"bytes32"},{"internalType":"uint64","name":"nonce","type":"uint64"}],"internalType":"struct Origin","name":"origin","type":"tuple"},{"internalType":"uint32","name":"dstEid","type":"uint32"},{"internalType":"address","name":"receiver","type":"address"},{"internalType":"bytes32","name":"guid","type":"bytes32"},{"internalType":"uint256","name":"value","type":"uint256"},{"internalType":"address","name":"executor","type":"address"},{"internalType":"bytes","name":"message","type":"bytes"},{"internalType":"bytes","name":"extraData","type":"bytes"}],"internalType":"struct InboundPacket[]","name":"_packets","type":"tuple[]"}],"name":"lzReceiveAndRevert","outputs":[],"stateMutability":"payable","type":"function"},{"inputs":[{"components":[{"internalType":"uint32","name":"srcEid","type":"uint32"},{"internalType":"bytes32","name":"sender","type":"bytes32"},{"internalType":"uint64","name":"nonce","type":"uint64"}],"internalType":"struct Origin","name":"_origin","type":"tuple"},{"internalType":"bytes32","name":"_guid","type":"bytes32"},{"internalType":"bytes","name":"_message","type":"bytes"},{"internalType":"address","name":"_executor","type":"address"},{"internalType":"bytes","name":"_extraData","type":"bytes"}],"name":"lzReceiveSimulate","outputs":[],"stateMutability":"payable","type":"function"},{"inputs":[],"name":"msgInspector","outputs":[{"internalType":"address","name":"","type":"address"}],"stateMutability":"view","type":"function"},{"inputs":[],"name":"name","outputs":[{"internalType":"string","name":"","type":"string"}],"stateMutability":"view","type":"function"},{"inputs":[{"internalType":"uint32","name":"","type":"uint32"},{"internalType":"bytes32","name":"","type":"bytes32"}],"name":"nextNonce","outputs":[{"internalType":"uint64","name":"nonce","type":"uint64"}],"stateMutability":"view","type":"function"},{"inputs":[],"name":"oApp","outputs":[{"internalType":"address","name":"","type":"address"}],"stateMutability":"view","type":"function"},{"inputs":[],"name":"oAppVersion","outputs":[{"internalType":"uint64","name":"senderVersion","type":"uint64"},{"internalType":"uint64","name":"receiverVersion","type":"uint64"}],"stateMutability":"pure","type":"function"},{"inputs":[],"name":"oftVersion","outputs":[{"internalType":"bytes4","name":"interfaceId","type":"bytes4"},{"internalType":"uint64","name":"version","type":"uint64"}],"stateMutability":"pure","type":"function"},{"inputs":[],"name":"owner","outputs":[{"internalType":"address","name":"","type":"address"}],"stateMutability":"view","type":"function"},{"inputs":[{"internalType":"uint32","name":"eid","type":"uint32"}],"name":"peers","outputs":[{"internalType":"bytes32","name":"peer","type":"bytes32"}],"stateMutability":"view","type":"function"},{"inputs":[],"name":"preCrime","outputs":[{"internalType":"address","name":"","type":"address"}],"stateMutability":"view","type":"function"},{"inputs":[{"components":[{"internalType":"uint32","name":"dstEid","type":"uint32"},{"internalType":"bytes32","name":"to","type":"bytes32"},{"internalType":"uint256","name":"amountLD","type":"uint256"},{"internalType":"uint256","name":"minAmountLD","type":"uint256"},{"internalType":"bytes","name":"extraOptions","type":"bytes"},{"internalType":"bytes","name":"composeMsg","type":"bytes"},{"internalType":"bytes","name":"oftCmd","type":"bytes"}],"internalType":"struct SendParam","name":"_sendParam","type":"tuple"}],"name":"quoteOFT","outputs":[{"components":[{"internalType":"uint256","name":"minAmountLD","type":"uint256"},{"internalType":"uint256","name":"maxAmountLD","type":"uint256"}],"internalType":"struct OFTLimit","name":"oftLimit","type":"tuple"},{"components":[{"internalType":"int256","name":"feeAmountLD","type":"int256"},{"internalType":"string","name":"description","type":"string"}],"internalType":"struct OFTFeeDetail[]","name":"oftFeeDetails","type":"tuple[]"},{"components":[{"internalType":"uint256","name":"amountSentLD","type":"uint256"},{"internalType":"uint256","name":"amountReceivedLD","type":"uint256"}],"internalType":"struct OFTReceipt","name":"oftReceipt","type":"tuple"}],"stateMutability":"view","type":"function"},{"inputs":[{"components":[{"internalType":"uint32","name":"dstEid","type":"uint32"},{"internalType":"bytes32","name":"to","type":"bytes32"},{"internalType":"uint256","name":"amountLD","type":"uint256"},{"internalType":"uint256","name":"minAmountLD","type":"uint256"},{"internalType":"bytes","name":"extraOptions","type":"bytes"},{"internalType":"bytes","name":"composeMsg","type":"bytes"},{"internalType":"bytes","name":"oftCmd","type":"bytes"}],"internalType":"struct SendParam","name":"_sendParam","type":"tuple"},{"internalType":"bool","name":"_payInLzToken","type":"bool"}],"name":"quoteSend","outputs":[{"components":[{"internalType":"uint256","name":"nativeFee","type":"uint256"},{"internalType":"uint256","name":"lzTokenFee","type":"uint256"}],"internalType":"struct MessagingFee","name":"msgFee","type":"tuple"}],"stateMutability":"view","type":"function"},{"inputs":[],"name":"renounceOwnership","outputs":[],"stateMutability":"nonpayable","type":"function"},{"inputs":[{"components":[{"internalType":"uint32","name":"dstEid","type":"uint32"},{"internalType":"bytes32","name":"to","type":"bytes32"},{"internalType":"uint256","name":"amountLD","type":"uint256"},{"internalType":"uint256","name":"minAmountLD","type":"uint256"},{"internalType":"bytes","name":"extraOptions","type":"bytes"},{"internalType":"bytes","name":"composeMsg","type":"bytes"},{"internalType":"bytes","name":"oftCmd","type":"bytes"}],"internalType":"struct SendParam","name":"_sendParam","type":"tuple"},{"components":[{"internalType":"uint256","name":"nativeFee","type":"uint256"},{"internalType":"uint256","name":"lzTokenFee","type":"uint256"}],"internalType":"struct MessagingFee","name":"_fee","type":"tuple"},{"internalType":"address","name":"_refundAddress","type":"address"}],"name":"send","outputs":[{"components":[{"internalType":"bytes32","name":"guid","type":"bytes32"},{"internalType":"uint64","name":"nonce","type":"uint64"},{"components":[{"internalType":"uint256","name":"nativeFee","type":"uint256"},{"internalType":"uint256","name":"lzTokenFee","type":"uint256"}],"internalType":"struct MessagingFee","name":"fee","type":"tuple"}],"internalType":"struct MessagingReceipt","name":"msgReceipt","type":"tuple"},{"components":[{"internalType":"uint256","name":"amountSentLD","type":"uint256"},{"internalType":"uint256","name":"amountReceivedLD","type":"uint256"}],"internalType":"struct OFTReceipt","name":"oftReceipt","type":"tuple"}],"stateMutability":"payable","type":"function"},{"inputs":[{"internalType":"address","name":"_delegate","type":"address"}],"name":"setDelegate","outputs":[],"stateMutability":"nonpayable","type":"function"},{"inputs":[{"components":[{"internalType":"uint32","name":"eid","type":"uint32"},{"internalType":"uint16","name":"msgType","type":"uint16"},{"internalType":"bytes","name":"options","type":"bytes"}],"internalType":"struct EnforcedOptionParam[]","name":"_enforcedOptions","type":"tuple[]"}],"name":"setEnforcedOptions","outputs":[],"stateMutability":"nonpayable","type":"function"},{"inputs":[{"internalType":"address","name":"_msgInspector","type":"address"}],"name":"setMsgInspector","outputs":[],"stateMutability":"nonpayable","type":"function"},{"inputs":[{"internalType":"uint32","name":"_eid","type":"uint32"},{"internalType":"bytes32","name":"_peer","type":"bytes32"}],"name":"setPeer","outputs":[],"stateMutability":"nonpayable","type":"function"},{"inputs":[{"internalType":"address","name":"_preCrime","type":"address"}],"name":"setPreCrime","outputs":[],"stateMutability":"nonpayable","type":"function"},{"inputs":[],"name":"sharedDecimals","outputs":[{"internalType":"uint8","name":"","type":"uint8"}],"stateMutability":"pure","type":"function"},{"inputs":[],"name":"symbol","outputs":[{"internalType":"string","name":"","type":"string"}],"stateMutability":"view","type":"function"},{"inputs":[],"name":"token","outputs":[{"internalType":"address","name":"","type":"address"}],"stateMutability":"view","type":"function"},{"inputs":[],"name":"totalSupply","outputs":[{"internalType":"uint256","name":"","type":"uint256"}],"stateMutability":"view","type":"function"},{"inputs":[{"internalType":"address","name":"to","type":"address"},{"internalType":"uint256","name":"amount","type":"uint256"}],"name":"transfer","outputs":[{"internalType":"bool","name":"","type":"bool"}],"stateMutability":"nonpayable","type":"function"},{"inputs":[{"internalType":"address","name":"from","type":"address"},{"internalType":"address","name":"to","type":"address"},{"internalType":"uint256","name":"amount","type":"uint256"}],"name":"transferFrom","outputs":[{"internalType":"bool","name":"","type":"bool"}],"stateMutability":"nonpayable","type":"function"},{"inputs":[{"internalType":"address","name":"newOwner","type":"address"}],"name":"transferOwnership","outputs":[],"stateMutability":"nonpayable","type":"function"}],"evm":{"bytecode":{"linkReferences":{},"object":"60c06040523480156200001157600080fd5b5060405162003abf38038062003abf83398101604081905262000034916200038c565b83838383838360128484818181816200004d3362000185565b6001600160a01b0380831660805281166200007b57604051632d618d8160e21b815260040160405180910390fd5b60805160405163ca5eb5e160e01b81526001600160a01b0383811660048301529091169063ca5eb5e190602401600060405180830381600087803b158015620000c357600080fd5b505af1158015620000d8573d6000803e3d6000fd5b5050505050505050620000f0620001d560201b60201c565b60ff168360ff16101562000117576040516301e9714b60e41b815260040160405180910390fd5b6200012460068462000431565b6200013190600a62000550565b60a05250600891506200014790508382620005f8565b506009620001568282620005f8565b505050505050506200017b336b033b2e3c9fd0803ce8000000620001da60201b60201c565b50505050620006da565b600080546001600160a01b038381166001600160a01b0319831681178455604051919092169283917f8be0079c531659141344cd1fd0a4f28419497f9722a3daafe3b4186f6b6457e09190a35050565b600690565b6001600160a01b038216620002355760405162461bcd60e51b815260206004820152601f60248201527f45524332303a206d696e7420746f20746865207a65726f206164647265737300604482015260640160405180910390fd5b8060076000828254620002499190620006c4565b90915550506001600160a01b0382166000818152600560209081526040808320805486019055518481527fddf252ad1be2c89b69c2b068fc378daa952ba7f163c4a11628f55a4df523b3ef910160405180910390a35050565b505050565b634e487b7160e01b600052604160045260246000fd5b600082601f830112620002cf57600080fd5b81516001600160401b0380821115620002ec57620002ec620002a7565b604051601f8301601f19908116603f01168101908282118183101715620003175762000317620002a7565b81604052838152602092508660208588010111156200033557600080fd5b600091505b838210156200035957858201830151818301840152908201906200033a565b6000602085830101528094505050505092915050565b80516001600160a01b03811681146200038757600080fd5b919050565b60008060008060808587031215620003a357600080fd5b84516001600160401b0380821115620003bb57600080fd5b620003c988838901620002bd565b95506020870151915080821115620003e057600080fd5b50620003ef87828801620002bd565b93505062000400604086016200036f565b915062000410606086016200036f565b905092959194509250565b634e487b7160e01b600052601160045260246000fd5b60ff82811682821603908111156200044d576200044d6200041b565b92915050565b600181815b80851115620004945781600019048211156200047857620004786200041b565b808516156200048657918102915b93841c939080029062000458565b509250929050565b600082620004ad575060016200044d565b81620004bc575060006200044d565b8160018114620004d55760028114620004e05762000500565b60019150506200044d565b60ff841115620004f457620004f46200041b565b50506001821b6200044d565b5060208310610133831016604e8410600b841016171562000525575081810a6200044d565b62000531838362000453565b80600019048211156200054857620005486200041b565b029392505050565b60006200056160ff8416836200049c565b9392505050565b600181811c908216806200057d57607f821691505b6020821081036200059e57634e487b7160e01b600052602260045260246000fd5b50919050565b601f821115620002a2576000816000526020600020601f850160051c81016020861015620005cf5750805b601f850160051c820191505b81811015620005f057828155600101620005db565b505050505050565b81516001600160401b03811115620006145762000614620002a7565b6200062c8162000625845462000568565b84620005a4565b602080601f8311600181146200066457600084156200064b5750858301515b600019600386901b1c1916600185901b178555620005f0565b600085815260208120601f198616915b82811015620006955788860151825594840194600190910190840162000674565b5085821015620006b45787850151600019600388901b60f8161c191681555b5050505050600190811b01905550565b808201808211156200044d576200044d6200041b565b60805160a051613379620007466000396000818161063301528181611db001528181611e250152611eeb0152600081816105120152818161099c015281816112a00152818161169701528181611b2201528181611cd4015281816120ea01526121a301526133796000f3fe6080604052600436106102675760003560e01c80637d25a05e11610144578063bb0b6a53116100b6578063d045a0dc1161007a578063d045a0dc1461078a578063d42438851461079d578063dd62ed3e146107bd578063f2fde38b146107dd578063fc0c546a14610496578063ff7bd03d146107fd57600080fd5b8063bb0b6a53146106e9578063bc70b35414610716578063bd815db014610736578063c7c7f5b314610749578063ca5eb5e11461076a57600080fd5b80639f68b964116101085780639f68b96414610655578063a457c2d714610669578063a9059cbb14610689578063b731ea0a146106a9578063b92d0eff14610496578063b98bd070146106c957600080fd5b80637d25a05e1461059f578063857749b0146105da5780638da5cb5b146105ee57806395d89b411461060c578063963efcaa1461062157600080fd5b8063313ce567116101dd5780635535d461116101a15780635535d461146104a95780635a0dfe4d146104c95780635e280f11146105005780636fc1b31e1461053457806370a0823114610554578063715018a61461058a57600080fd5b8063313ce567146104075780633400288b1461042957806339509351146104495780633b6f743b1461046957806352ae28791461049657600080fd5b8063134d4f251161022f578063134d4f2514610343578063156a0d0f1461036b57806317442b701461039257806318160ddd146103b35780631f5e1334146103d257806323b872dd146103e757600080fd5b806306fdde031461026c578063095ea7b3146102975780630d35b415146102c7578063111ecdad146102f657806313137d651461032e575b600080fd5b34801561027857600080fd5b5061028161081d565b60405161028e919061254f565b60405180910390f35b3480156102a357600080fd5b506102b76102b2366004612577565b6108af565b604051901515815260200161028e565b3480156102d357600080fd5b506102e76102e23660046125bb565b6108c9565b60405161028e939291906125ef565b34801561030257600080fd5b50600454610316906001600160a01b031681565b6040516001600160a01b03909116815260200161028e565b61034161033c3660046126e2565b61099a565b005b34801561034f57600080fd5b50610358600281565b60405161ffff909116815260200161028e565b34801561037757600080fd5b506040805162b9270b60e21b8152600160208201520161028e565b34801561039e57600080fd5b5060408051600180825260208201520161028e565b3480156103bf57600080fd5b506007545b60405190815260200161028e565b3480156103de57600080fd5b50610358600181565b3480156103f357600080fd5b506102b7610402366004612781565b610a5a565b34801561041357600080fd5b5060125b60405160ff909116815260200161028e565b34801561043557600080fd5b506103416104443660046127db565b610a80565b34801561045557600080fd5b506102b7610464366004612577565b610ade565b34801561047557600080fd5b50610489610484366004612805565b610b00565b60405161028e9190612856565b3480156104a257600080fd5b5030610316565b3480156104b557600080fd5b506102816104c436600461287f565b610b67565b3480156104d557600080fd5b506102b76104e43660046127db565b63ffffffff919091166000908152600160205260409020541490565b34801561050c57600080fd5b506103167f000000000000000000000000000000000000000000000000000000000000000081565b34801561054057600080fd5b5061034161054f3660046128b2565b610c0c565b34801561056057600080fd5b506103c461056f3660046128b2565b6001600160a01b031660009081526005602052604090205490565b34801561059657600080fd5b50610341610c69565b3480156105ab57600080fd5b506105c26105ba3660046127db565b600092915050565b6040516001600160401b03909116815260200161028e565b3480156105e657600080fd5b506006610417565b3480156105fa57600080fd5b506000546001600160a01b0316610316565b34801561061857600080fd5b50610281610c7d565b34801561062d57600080fd5b506103c47f000000000000000000000000000000000000000000000000000000000000000081565b34801561066157600080fd5b5060006102b7565b34801561067557600080fd5b506102b7610684366004612577565b610c8c565b34801561069557600080fd5b506102b76106a4366004612577565b610d12565b3480156106b557600080fd5b50600254610316906001600160a01b031681565b3480156106d557600080fd5b506103416106e4366004612913565b610d20565b3480156106f557600080fd5b506103c4610704366004612954565b60016020526000908152604090205481565b34801561072257600080fd5b5061028161073136600461296f565b610e81565b610341610744366004612913565b610ffc565b61075c6107573660046129cf565b611186565b60405161028e929190612a3c565b34801561077657600080fd5b506103416107853660046128b2565b611279565b6103416107983660046126e2565b6112ff565b3480156107a957600080fd5b506103416107b83660046128b2565b61132e565b3480156107c957600080fd5b506103c46107d8366004612a8e565b611384565b3480156107e957600080fd5b506103416107f83660046128b2565b6113af565b34801561080957600080fd5b506102b7610818366004612abc565b611428565b60606008805461082c90612ad8565b80601f016020809104026020016040519081016040528092919081815260200182805461085890612ad8565b80156108a55780601f1061087a576101008083540402835291602001916108a5565b820191906000526020600020905b81548152906001019060200180831161088857829003601f168201915b5050505050905090565b6000336108bd81858561145e565b60019150505b92915050565b604080518082019091526000808252602082015260606108fc604051806040016040528060008152602001600081525090565b60408051808201825260008082526001600160401b03602080840182905284518381529081019094529195509182610957565b60408051808201909152600081526060602082015281526020019060019003908161092f5790505b50935060008061097c604089013560608a013561097760208c018c612954565b611582565b60408051808201909152918252602082015296989597505050505050565b7f00000000000000000000000000000000000000000000000000000000000000006001600160a01b031633146109ea576040516391ac5e4f60e01b81523360048201526024015b60405180910390fd5b60208701803590610a04906109ff908a612954565b6115c6565b14610a4257610a166020880188612954565b60405163309afaf360e21b815263ffffffff9091166004820152602088013560248201526044016109e1565b610a5187878787878787611602565b50505050505050565b600033610a68858285611769565b610a738585856117e3565b60019150505b9392505050565b610a8861198e565b63ffffffff8216600081815260016020908152604091829020849055815192835282018390527f238399d427b947898edb290f5ff0f9109849b1c3ba196a42e35f00c50a54b98b91015b60405180910390a15050565b6000336108bd818585610af18383611384565b610afb9190612b38565b61145e565b60408051808201909152600080825260208201526000610b30604085013560608601356109776020880188612954565b915050600080610b4086846119e8565b9092509050610b5d610b556020880188612954565b838388611b0c565b9695505050505050565b600360209081526000928352604080842090915290825290208054610b8b90612ad8565b80601f0160208091040260200160405190810160405280929190818152602001828054610bb790612ad8565b8015610c045780601f10610bd957610100808354040283529160200191610c04565b820191906000526020600020905b815481529060010190602001808311610be757829003601f168201915b505050505081565b610c1461198e565b600480546001600160a01b0319166001600160a01b0383169081179091556040519081527ff0be4f1e87349231d80c36b33f9e8639658eeaf474014dee15a3e6a4d4414197906020015b60405180910390a150565b610c7161198e565b610c7b6000611bed565b565b60606009805461082c90612ad8565b60003381610c9a8286611384565b905083811015610cfa5760405162461bcd60e51b815260206004820152602560248201527f45524332303a2064656372656173656420616c6c6f77616e63652062656c6f77604482015264207a65726f60d81b60648201526084016109e1565b610d07828686840361145e565b506001949350505050565b6000336108bd8185856117e3565b610d2861198e565b60005b81811015610e4f57610d6d838383818110610d4857610d48612b4b565b9050602002810190610d5a9190612b61565b610d68906040810190612b81565b611c3d565b828282818110610d7f57610d7f612b4b565b9050602002810190610d919190612b61565b610d9f906040810190612b81565b60036000868686818110610db557610db5612b4b565b9050602002810190610dc79190612b61565b610dd5906020810190612954565b63ffffffff1663ffffffff1681526020019081526020016000206000868686818110610e0357610e03612b4b565b9050602002810190610e159190612b61565b610e26906040810190602001612bc7565b61ffff168152602081019190915260400160002091610e46919083612c32565b50600101610d2b565b507fbe4864a8e820971c0247f5992e2da559595f7bf076a21cb5928d443d2a13b6748282604051610ad2929190612d1a565b63ffffffff8416600090815260036020908152604080832061ffff87168452909152812080546060929190610eb590612ad8565b80601f0160208091040260200160405190810160405280929190818152602001828054610ee190612ad8565b8015610f2e5780601f10610f0357610100808354040283529160200191610f2e565b820191906000526020600020905b815481529060010190602001808311610f1157829003601f168201915b505050505090508051600003610f7e5783838080601f016020809104026020016040519081016040528093929190818152602001838380828437600092019190915250929450610ff49350505050565b6000839003610f8e579050610ff4565b60028310610fd757610fa08484611c3d565b80610fae8460028188612dfe565b604051602001610fc093929190612e28565b604051602081830303815290604052915050610ff4565b8383604051639a6d49cd60e01b81526004016109e1929190612e50565b949350505050565b60005b81811015611105573683838381811061101a5761101a612b4b565b905060200281019061102c9190612e64565b905061105f61103e6020830183612954565b602083013563ffffffff919091166000908152600160205260409020541490565b61106957506110fd565b3063d045a0dc60c08301358360a0810135611088610100830183612b81565b611099610100890160e08a016128b2565b6110a76101208a018a612b81565b6040518963ffffffff1660e01b81526004016110c99796959493929190612e90565b6000604051808303818588803b1580156110e257600080fd5b505af11580156110f6573d6000803e3d6000fd5b5050505050505b600101610fff565b50336001600160a01b0316638e9e70996040518163ffffffff1660e01b8152600401600060405180830381865afa158015611144573d6000803e3d6000fd5b505050506040513d6000823e601f3d908101601f1916820160405261116c9190810190612f3e565b604051638351eea760e01b81526004016109e1919061254f565b61118e6124b8565b60408051808201909152600080825260208201526000806111c4604088013560608901356111bf60208b018b612954565b611c84565b915091506000806111d589846119e8565b90925090506112016111ea60208b018b612954565b83836111fb368d90038d018d612fdf565b8b611ca1565b60408051808201909152858152602080820186905282519298509096503391907ffff873bb909b73d08a8c1af4b21779e87103bb8ea8cf3b3a0067eb8526b8b80a9061124f908d018d612954565b6040805163ffffffff9092168252602082018990520160405180910390a350505050935093915050565b61128161198e565b60405163ca5eb5e160e01b81526001600160a01b0382811660048301527f0000000000000000000000000000000000000000000000000000000000000000169063ca5eb5e190602401600060405180830381600087803b1580156112e457600080fd5b505af11580156112f8573d6000803e3d6000fd5b5050505050565b33301461131f5760405163029a949d60e31b815260040160405180910390fd5b610a5187878787878787610a42565b61133661198e565b600280546001600160a01b0319166001600160a01b0383169081179091556040519081527fd48d879cef83a1c0bdda516f27b13ddb1b3f8bbac1c9e1511bb2a659c242776090602001610c5e565b6001600160a01b03918216600090815260066020908152604080832093909416825291909152205490565b6113b761198e565b6001600160a01b03811661141c5760405162461bcd60e51b815260206004820152602660248201527f4f776e61626c653a206e6577206f776e657220697320746865207a65726f206160448201526564647265737360d01b60648201526084016109e1565b61142581611bed565b50565b60006020820180359060019083906114409086612954565b63ffffffff1681526020810191909152604001600020541492915050565b6001600160a01b0383166114c05760405162461bcd60e51b8152602060048201526024808201527f45524332303a20617070726f76652066726f6d20746865207a65726f206164646044820152637265737360e01b60648201526084016109e1565b6001600160a01b0382166115215760405162461bcd60e51b815260206004820152602260248201527f45524332303a20617070726f766520746f20746865207a65726f206164647265604482015261737360f01b60648201526084016109e1565b6001600160a01b0383811660008181526006602090815260408083209487168084529482529182902085905590518481527f8c5be1e5ebec7d5bd14f71427d1e84f3dd0314c0f7b2291e5b200ac8c7c3b925910160405180910390a3505050565b60008061158e85611dac565b9150819050838110156115be576040516371c4efed60e01b815260048101829052602481018590526044016109e1565b935093915050565b63ffffffff8116600090815260016020526040812054806108c35760405163f6ff4fb760e01b815263ffffffff841660048201526024016109e1565b60006116146116118787611de3565b90565b905060006116408261162e6116298a8a611dfb565b611e1e565b61163b60208d018d612954565b611e53565b9050602886111561170757600061167d61166060608c0160408d01613011565b61166d60208d018d612954565b846116788c8c611e67565b611eb2565b604051633e5ac80960e11b81529091506001600160a01b037f00000000000000000000000000000000000000000000000000000000000000001690637cb59012906116d39086908d90600090879060040161302e565b600060405180830381600087803b1580156116ed57600080fd5b505af1158015611701573d6000803e3d6000fd5b50505050505b6001600160a01b038216887fefed6d3500546b29533b128a29e3a94d70788727f0507505ac12eaf2e578fd9c61174060208d018d612954565b6040805163ffffffff9092168252602082018690520160405180910390a3505050505050505050565b60006117758484611384565b905060001981146117dd57818110156117d05760405162461bcd60e51b815260206004820152601d60248201527f45524332303a20696e73756666696369656e7420616c6c6f77616e636500000060448201526064016109e1565b6117dd848484840361145e565b50505050565b6001600160a01b0383166118475760405162461bcd60e51b815260206004820152602560248201527f45524332303a207472616e736665722066726f6d20746865207a65726f206164604482015264647265737360d81b60648201526084016109e1565b6001600160a01b0382166118a95760405162461bcd60e51b815260206004820152602360248201527f45524332303a207472616e7366657220746f20746865207a65726f206164647260448201526265737360e81b60648201526084016109e1565b6001600160a01b038316600090815260056020526040902054818110156119215760405162461bcd60e51b815260206004820152602660248201527f45524332303a207472616e7366657220616d6f756e7420657863656564732062604482015265616c616e636560d01b60648201526084016109e1565b6001600160a01b0380851660008181526005602052604080822086860390559286168082529083902080548601905591517fddf252ad1be2c89b69c2b068fc378daa952ba7f163c4a11628f55a4df523b3ef906119819086815260200190565b60405180910390a36117dd565b6000546001600160a01b03163314610c7b5760405162461bcd60e51b815260206004820181905260248201527f4f776e61626c653a2063616c6c6572206973206e6f7420746865206f776e657260448201526064016109e1565b6060806000611a4585602001356119fe86611ee4565b611a0b60a0890189612b81565b8080601f016020809104026020016040519081016040528093929190818152602001838380828437600092019190915250611f1092505050565b9093509050600081611a58576001611a5b565b60025b9050611a7b611a6d6020880188612954565b8261073160808a018a612b81565b6004549093506001600160a01b031615611b03576004805460405163043a78eb60e01b81526001600160a01b039091169163043a78eb91611ac091889188910161305f565b602060405180830381865afa158015611add573d6000803e3d6000fd5b505050506040513d601f19601f82011682018060405250810190611b019190613084565b505b50509250929050565b60408051808201909152600080825260208201527f00000000000000000000000000000000000000000000000000000000000000006001600160a01b031663ddc28c586040518060a001604052808863ffffffff168152602001611b6f896115c6565b8152602001878152602001868152602001851515815250306040518363ffffffff1660e01b8152600401611ba49291906130a1565b6040805180830381865afa158015611bc0573d6000803e3d6000fd5b505050506040513d601f19601f82011682018060405250810190611be4919061314a565b95945050505050565b600080546001600160a01b038381166001600160a01b0319831681178455604051919092169283917f8be0079c531659141344cd1fd0a4f28419497f9722a3daafe3b4186f6b6457e09190a35050565b6000611c4c6002828486612dfe565b611c5591613166565b60f01c905060038114611c7f578282604051639a6d49cd60e01b81526004016109e1929190612e50565b505050565b600080611c92858585611582565b90925090506115be3383611f8a565b611ca96124b8565b6000611cb884600001516120be565b602085015190915015611cd257611cd284602001516120e6565b7f00000000000000000000000000000000000000000000000000000000000000006001600160a01b0316632637a450826040518060a001604052808b63ffffffff168152602001611d228c6115c6565b81526020018a815260200189815260200160008960200151111515815250866040518463ffffffff1660e01b8152600401611d5e9291906130a1565b60806040518083038185885af1158015611d7c573d6000803e3d6000fd5b50505050506040513d601f19601f82011682018060405250810190611da19190613196565b979650505050505050565b60007f0000000000000000000000000000000000000000000000000000000000000000611dd981846131fd565b6108c3919061321f565b6000611df26020828486612dfe565b610a7991613236565b6000611e0b602860208486612dfe565b611e1491613254565b60c01c9392505050565b60006108c37f00000000000000000000000000000000000000000000000000000000000000006001600160401b03841661321f565b6000611e5f84846121cc565b509092915050565b6060611e768260288186612dfe565b8080601f016020809104026020016040519081016040528093929190818152602001838380828437600092019190915250929695505050505050565b606084848484604051602001611ecb9493929190613282565b6040516020818303038152906040529050949350505050565b60006108c37f0000000000000000000000000000000000000000000000000000000000000000836131fd565b8051606090151580611f59578484604051602001611f4592919091825260c01b6001600160c01b031916602082015260280190565b604051602081830303815290604052611f80565b84843385604051602001611f7094939291906132d1565b6040516020818303038152906040525b9150935093915050565b6001600160a01b038216611fea5760405162461bcd60e51b815260206004820152602160248201527f45524332303a206275726e2066726f6d20746865207a65726f206164647265736044820152607360f81b60648201526084016109e1565b6001600160a01b0382166000908152600560205260409020548181101561205e5760405162461bcd60e51b815260206004820152602260248201527f45524332303a206275726e20616d6f756e7420657863656564732062616c616e604482015261636560f01b60648201526084016109e1565b6001600160a01b03831660008181526005602090815260408083208686039055600780548790039055518581529192917fddf252ad1be2c89b69c2b068fc378daa952ba7f163c4a11628f55a4df523b3ef910160405180910390a3505050565b60008134146120e2576040516304fb820960e51b81523460048201526024016109e1565b5090565b60007f00000000000000000000000000000000000000000000000000000000000000006001600160a01b031663e4fe1d946040518163ffffffff1660e01b8152600401602060405180830381865afa158015612146573d6000803e3d6000fd5b505050506040513d601f19601f8201168201806040525081019061216a9190613314565b90506001600160a01b038116612193576040516329b99a9560e11b815260040160405180910390fd5b6121c86001600160a01b038216337f00000000000000000000000000000000000000000000000000000000000000008561228d565b5050565b6001600160a01b0382166122225760405162461bcd60e51b815260206004820152601f60248201527f45524332303a206d696e7420746f20746865207a65726f20616464726573730060448201526064016109e1565b80600760008282546122349190612b38565b90915550506001600160a01b0382166000818152600560209081526040808320805486019055518481527fddf252ad1be2c89b69c2b068fc378daa952ba7f163c4a11628f55a4df523b3ef910160405180910390a35050565b604080516001600160a01b038581166024830152848116604483015260648083018590528351808403909101815260849092018352602080830180516001600160e01b03166323b872dd60e01b17905283518085019094528084527f5361666545524332303a206c6f772d6c6576656c2063616c6c206661696c6564908401526117dd928792916000916123259185169084906123a5565b90508051600014806123465750808060200190518101906123469190613084565b611c7f5760405162461bcd60e51b815260206004820152602a60248201527f5361666545524332303a204552433230206f7065726174696f6e20646964206e6044820152691bdd081cdd58d8d9595960b21b60648201526084016109e1565b6060610ff4848460008585600080866001600160a01b031685876040516123cc9190613331565b60006040518083038185875af1925050503d8060008114612409576040519150601f19603f3d011682016040523d82523d6000602084013e61240e565b606091505b5091509150611da18783838760608315612489578251600003612482576001600160a01b0385163b6124825760405162461bcd60e51b815260206004820152601d60248201527f416464726573733a2063616c6c20746f206e6f6e2d636f6e747261637400000060448201526064016109e1565b5081610ff4565b610ff4838381511561249e5781518083602001fd5b8060405162461bcd60e51b81526004016109e1919061254f565b60405180606001604052806000801916815260200160006001600160401b031681526020016124fa604051806040016040528060008152602001600081525090565b905290565b60005b8381101561251a578181015183820152602001612502565b50506000910152565b6000815180845261253b8160208601602086016124ff565b601f01601f19169290920160200192915050565b602081526000610a796020830184612523565b6001600160a01b038116811461142557600080fd5b6000806040838503121561258a57600080fd5b823561259581612562565b946020939093013593505050565b600060e082840312156125b557600080fd5b50919050565b6000602082840312156125cd57600080fd5b81356001600160401b038111156125e357600080fd5b610ff4848285016125a3565b8351815260208085015190820152600060a08201604060a0604085015281865180845260c08601915060c08160051b8701019350602080890160005b8381101561266a5788870360bf1901855281518051885283015183880187905261265787890182612523565b975050938201939082019060010161262b565b50508751606088015250505060208501516080850152509050610ff4565b6000606082840312156125b557600080fd5b60008083601f8401126126ac57600080fd5b5081356001600160401b038111156126c357600080fd5b6020830191508360208285010111156126db57600080fd5b9250929050565b600080600080600080600060e0888a0312156126fd57600080fd5b6127078989612688565b96506060880135955060808801356001600160401b038082111561272a57600080fd5b6127368b838c0161269a565b909750955060a08a0135915061274b82612562565b90935060c0890135908082111561276157600080fd5b5061276e8a828b0161269a565b989b979a50959850939692959293505050565b60008060006060848603121561279657600080fd5b83356127a181612562565b925060208401356127b181612562565b929592945050506040919091013590565b803563ffffffff811681146127d657600080fd5b919050565b600080604083850312156127ee57600080fd5b612595836127c2565b801515811461142557600080fd5b6000806040838503121561281857600080fd5b82356001600160401b0381111561282e57600080fd5b61283a858286016125a3565b925050602083013561284b816127f7565b809150509250929050565b8151815260208083015190820152604081016108c3565b803561ffff811681146127d657600080fd5b6000806040838503121561289257600080fd5b61289b836127c2565b91506128a96020840161286d565b90509250929050565b6000602082840312156128c457600080fd5b8135610a7981612562565b60008083601f8401126128e157600080fd5b5081356001600160401b038111156128f857600080fd5b6020830191508360208260051b85010111156126db57600080fd5b6000806020838503121561292657600080fd5b82356001600160401b0381111561293c57600080fd5b612948858286016128cf565b90969095509350505050565b60006020828403121561296657600080fd5b610a79826127c2565b6000806000806060858703121561298557600080fd5b61298e856127c2565b935061299c6020860161286d565b925060408501356001600160401b038111156129b757600080fd5b6129c38782880161269a565b95989497509550505050565b600080600083850360808112156129e557600080fd5b84356001600160401b038111156129fb57600080fd5b612a07878288016125a3565b9450506040601f1982011215612a1c57600080fd5b506020840191506060840135612a3181612562565b809150509250925092565b600060c082019050835182526001600160401b0360208501511660208301526040840151612a77604084018280518252602090810151910152565b5082516080830152602083015160a0830152610a79565b60008060408385031215612aa157600080fd5b8235612aac81612562565b9150602083013561284b81612562565b600060608284031215612ace57600080fd5b610a798383612688565b600181811c90821680612aec57607f821691505b6020821081036125b557634e487b7160e01b600052602260045260246000fd5b634e487b7160e01b600052604160045260246000fd5b634e487b7160e01b600052601160045260246000fd5b808201808211156108c3576108c3612b22565b634e487b7160e01b600052603260045260246000fd5b60008235605e19833603018112612b7757600080fd5b9190910192915050565b6000808335601e19843603018112612b9857600080fd5b8301803591506001600160401b03821115612bb257600080fd5b6020019150368190038213156126db57600080fd5b600060208284031215612bd957600080fd5b610a798261286d565b601f821115611c7f576000816000526020600020601f850160051c81016020861015612c0b5750805b601f850160051c820191505b81811015612c2a57828155600101612c17565b505050505050565b6001600160401b03831115612c4957612c49612b0c565b612c5d83612c578354612ad8565b83612be2565b6000601f841160018114612c915760008515612c795750838201355b600019600387901b1c1916600186901b1783556112f8565b600083815260209020601f19861690835b82811015612cc25786850135825560209485019460019092019101612ca2565b5086821015612cdf5760001960f88860031b161c19848701351681555b505060018560011b0183555050505050565b81835281816020850137506000828201602090810191909152601f909101601f19169091010190565b60208082528181018390526000906040808401600586901b8501820187855b88811015612df057878303603f190184528135368b9003605e19018112612d5f57600080fd5b8a01606063ffffffff612d71836127c2565b16855261ffff612d8289840161286d565b168886015286820135601e19833603018112612d9d57600080fd5b9091018781019190356001600160401b03811115612dba57600080fd5b803603831315612dc957600080fd5b8188870152612ddb8287018285612cf1565b96890196955050509186019150600101612d39565b509098975050505050505050565b60008085851115612e0e57600080fd5b83861115612e1b57600080fd5b5050820193919092039150565b60008451612e3a8184602089016124ff565b8201838582376000930192835250909392505050565b602081526000610ff4602083018486612cf1565b6000823561013e19833603018112612b7757600080fd5b6001600160401b038116811461142557600080fd5b63ffffffff612e9e896127c2565b1681526020880135602082015260006040890135612ebb81612e7b565b6001600160401b03811660408401525087606083015260e06080830152612ee660e083018789612cf1565b6001600160a01b03861660a084015282810360c0840152612f08818587612cf1565b9a9950505050505050505050565b604080519081016001600160401b0381118282101715612f3857612f38612b0c565b60405290565b600060208284031215612f5057600080fd5b81516001600160401b0380821115612f6757600080fd5b818401915084601f830112612f7b57600080fd5b815181811115612f8d57612f8d612b0c565b604051601f8201601f19908116603f01168101908382118183101715612fb557612fb5612b0c565b81604052828152876020848701011115612fce57600080fd5b611da18360208301602088016124ff565b600060408284031215612ff157600080fd5b612ff9612f16565b82358152602083013560208201528091505092915050565b60006020828403121561302357600080fd5b8135610a7981612e7b565b60018060a01b038516815283602082015261ffff83166040820152608060608201526000610b5d6080830184612523565b6040815260006130726040830185612523565b8281036020840152611be48185612523565b60006020828403121561309657600080fd5b8151610a79816127f7565b6040815263ffffffff8351166040820152602083015160608201526000604084015160a060808401526130d760e0840182612523565b90506060850151603f198483030160a08501526130f48282612523565b60809690960151151560c08501525050506001600160a01b039190911660209091015290565b60006040828403121561312c57600080fd5b613134612f16565b9050815181526020820151602082015292915050565b60006040828403121561315c57600080fd5b610a79838361311a565b6001600160f01b0319813581811691600285101561318e5780818660020360031b1b83161692505b505092915050565b6000608082840312156131a857600080fd5b604051606081018181106001600160401b03821117156131ca576131ca612b0c565b6040528251815260208301516131df81612e7b565b60208201526131f1846040850161311a565b60408201529392505050565b60008261321a57634e487b7160e01b600052601260045260246000fd5b500490565b80820281158282048414176108c3576108c3612b22565b803560208310156108c357600019602084900360031b1b1692915050565b6001600160c01b0319813581811691600885101561318e5760089490940360031b84901b1690921692915050565b6001600160401b0360c01b8560c01b16815263ffffffff60e01b8460e01b16600882015282600c820152600082516132c181602c8501602087016124ff565b91909101602c0195945050505050565b8481526001600160401b0360c01b8460c01b166020820152826028820152600082516133048160488501602087016124ff565b9190910160480195945050505050565b60006020828403121561332657600080fd5b8151610a7981612562565b60008251612b778184602087016124ff56fea264697066735822122029aa7e8fa5de46aff59aaa250d2bc7eddaeb72cb8215ea8b7835d1860cf9303a64736f6c63430008160033","opcodes":"PUSH1 0xC0 PUSH1 0x40 MSTORE CALLVALUE DUP1 ISZERO PUSH3 0x11 JUMPI PUSH1 0x0 DUP1 REVERT JUMPDEST POP PUSH1 0x40 MLOAD PUSH3 0x3ABF CODESIZE SUB DUP1 PUSH3 0x3ABF DUP4 CODECOPY DUP2 ADD PUSH1 0x40 DUP2 SWAP1 MSTORE PUSH3 0x34 SWAP2 PUSH3 0x38C JUMP JUMPDEST DUP4 DUP4 DUP4 DUP4 DUP4 DUP4 PUSH1 0x12 DUP5 DUP5 DUP2 DUP2 DUP2 DUP2 PUSH3 0x4D CALLER PUSH3 0x185 JUMP JUMPDEST PUSH1 0x1 PUSH1 0x1 PUSH1 0xA0 SHL SUB DUP1 DUP4 AND PUSH1 0x80 MSTORE DUP2 AND PUSH3 0x7B JUMPI PUSH1 0x40 MLOAD PUSH4 0x2D618D81 PUSH1 0xE2 SHL DUP2 MSTORE PUSH1 0x4 ADD PUSH1 0x40 MLOAD DUP1 SWAP2 SUB SWAP1 REVERT JUMPDEST PUSH1 0x80 MLOAD PUSH1 0x40 MLOAD PUSH4 0xCA5EB5E1 PUSH1 0xE0 SHL DUP2 MSTORE PUSH1 0x1 PUSH1 0x1 PUSH1 0xA0 SHL SUB DUP4 DUP2 AND PUSH1 0x4 DUP4 ADD MSTORE SWAP1 SWAP2 AND SWAP1 PUSH4 0xCA5EB5E1 SWAP1 PUSH1 0x24 ADD PUSH1 0x0 PUSH1 0x40 MLOAD DUP1 DUP4 SUB DUP2 PUSH1 0x0 DUP8 DUP1 EXTCODESIZE ISZERO DUP1 ISZERO PUSH3 0xC3 JUMPI PUSH1 0x0 DUP1 REVERT JUMPDEST POP GAS CALL ISZERO DUP1 ISZERO PUSH3 0xD8 JUMPI RETURNDATASIZE PUSH1 0x0 DUP1 RETURNDATACOPY RETURNDATASIZE PUSH1 0x0 REVERT JUMPDEST POP POP POP POP POP POP POP POP PUSH3 0xF0 PUSH3 0x1D5 PUSH1 0x20 SHL PUSH1 0x20 SHR JUMP JUMPDEST PUSH1 0xFF AND DUP4 PUSH1 0xFF AND LT ISZERO PUSH3 0x117 JUMPI PUSH1 0x40 MLOAD PUSH4 0x1E9714B PUSH1 0xE4 SHL DUP2 MSTORE PUSH1 0x4 ADD PUSH1 0x40 MLOAD DUP1 SWAP2 SUB SWAP1 REVERT JUMPDEST PUSH3 0x124 PUSH1 0x6 DUP5 PUSH3 0x431 JUMP JUMPDEST PUSH3 0x131 SWAP1 PUSH1 0xA PUSH3 0x550 JUMP JUMPDEST PUSH1 0xA0 MSTORE POP PUSH1 0x8 SWAP2 POP PUSH3 0x147 SWAP1 POP DUP4 DUP3 PUSH3 0x5F8 JUMP JUMPDEST POP PUSH1 0x9 PUSH3 0x156 DUP3 DUP3 PUSH3 0x5F8 JUMP JUMPDEST POP POP POP POP POP POP POP PUSH3 0x17B CALLER PUSH12 0x33B2E3C9FD0803CE8000000 PUSH3 0x1DA PUSH1 0x20 SHL PUSH1 0x20 SHR JUMP JUMPDEST POP POP POP POP PUSH3 0x6DA JUMP JUMPDEST PUSH1 0x0 DUP1 SLOAD PUSH1 0x1 PUSH1 0x1 PUSH1 0xA0 SHL SUB DUP4 DUP2 AND PUSH1 0x1 PUSH1 0x1 PUSH1 0xA0 SHL SUB NOT DUP4 AND DUP2 OR DUP5 SSTORE PUSH1 0x40 MLOAD SWAP2 SWAP1 SWAP3 AND SWAP3 DUP4 SWAP2 PUSH32 0x8BE0079C531659141344CD1FD0A4F28419497F9722A3DAAFE3B4186F6B6457E0 SWAP2 SWAP1 LOG3 POP POP JUMP JUMPDEST PUSH1 0x6 SWAP1 JUMP JUMPDEST PUSH1 0x1 PUSH1 0x1 PUSH1 0xA0 SHL SUB DUP3 AND PUSH3 0x235 JUMPI PUSH1 0x40 MLOAD PUSH3 0x461BCD PUSH1 0xE5 SHL DUP2 MSTORE PUSH1 0x20 PUSH1 0x4 DUP3 ADD MSTORE PUSH1 0x1F PUSH1 0x24 DUP3 ADD MSTORE PUSH32 0x45524332303A206D696E7420746F20746865207A65726F206164647265737300 PUSH1 0x44 DUP3 ADD MSTORE PUSH1 0x64 ADD PUSH1 0x40 MLOAD DUP1 SWAP2 SUB SWAP1 REVERT JUMPDEST DUP1 PUSH1 0x7 PUSH1 0x0 DUP3 DUP3 SLOAD PUSH3 0x249 SWAP2 SWAP1 PUSH3 0x6C4 JUMP JUMPDEST SWAP1 SWAP2 SSTORE POP POP PUSH1 0x1 PUSH1 0x1 PUSH1 0xA0 SHL SUB DUP3 AND PUSH1 0x0 DUP2 DUP2 MSTORE PUSH1 0x5 PUSH1 0x20 SWAP1 DUP2 MSTORE PUSH1 0x40 DUP1 DUP4 KECCAK256 DUP1 SLOAD DUP7 ADD SWAP1 SSTORE MLOAD DUP5 DUP2 MSTORE PUSH32 0xDDF252AD1BE2C89B69C2B068FC378DAA952BA7F163C4A11628F55A4DF523B3EF SWAP2 ADD PUSH1 0x40 MLOAD DUP1 SWAP2 SUB SWAP1 LOG3 POP POP JUMP JUMPDEST POP POP POP JUMP JUMPDEST PUSH4 0x4E487B71 PUSH1 0xE0 SHL PUSH1 0x0 MSTORE PUSH1 0x41 PUSH1 0x4 MSTORE PUSH1 0x24 PUSH1 0x0 REVERT JUMPDEST PUSH1 0x0 DUP3 PUSH1 0x1F DUP4 ADD SLT PUSH3 0x2CF JUMPI PUSH1 0x0 DUP1 REVERT JUMPDEST DUP2 MLOAD PUSH1 0x1 PUSH1 0x1 PUSH1 0x40 SHL SUB DUP1 DUP3 GT ISZERO PUSH3 0x2EC JUMPI PUSH3 0x2EC PUSH3 0x2A7 JUMP JUMPDEST PUSH1 0x40 MLOAD PUSH1 0x1F DUP4 ADD PUSH1 0x1F NOT SWAP1 DUP2 AND PUSH1 0x3F ADD AND DUP2 ADD SWAP1 DUP3 DUP3 GT DUP2 DUP4 LT OR ISZERO PUSH3 0x317 JUMPI PUSH3 0x317 PUSH3 0x2A7 JUMP JUMPDEST DUP2 PUSH1 0x40 MSTORE DUP4 DUP2 MSTORE PUSH1 0x20 SWAP3 POP DUP7 PUSH1 0x20 DUP6 DUP9 ADD ADD GT ISZERO PUSH3 0x335 JUMPI PUSH1 0x0 DUP1 REVERT JUMPDEST PUSH1 0x0 SWAP2 POP JUMPDEST DUP4 DUP3 LT ISZERO PUSH3 0x359 JUMPI DUP6 DUP3 ADD DUP4 ADD MLOAD DUP2 DUP4 ADD DUP5 ADD MSTORE SWAP1 DUP3 ADD SWAP1 PUSH3 0x33A JUMP JUMPDEST PUSH1 0x0 PUSH1 0x20 DUP6 DUP4 ADD ADD MSTORE DUP1 SWAP5 POP POP POP POP POP SWAP3 SWAP2 POP POP JUMP JUMPDEST DUP1 MLOAD PUSH1 0x1 PUSH1 0x1 PUSH1 0xA0 SHL SUB DUP2 AND DUP2 EQ PUSH3 0x387 JUMPI PUSH1 0x0 DUP1 REVERT JUMPDEST SWAP2 SWAP1 POP JUMP JUMPDEST PUSH1 0x0 DUP1 PUSH1 0x0 DUP1 PUSH1 0x80 DUP6 DUP8 SUB SLT ISZERO PUSH3 0x3A3 JUMPI PUSH1 0x0 DUP1 REVERT JUMPDEST DUP5 MLOAD PUSH1 0x1 PUSH1 0x1 PUSH1 0x40 SHL SUB DUP1 DUP3 GT ISZERO PUSH3 0x3BB JUMPI PUSH1 0x0 DUP1 REVERT JUMPDEST PUSH3 0x3C9 DUP9 DUP4 DUP10 ADD PUSH3 0x2BD JUMP JUMPDEST SWAP6 POP PUSH1 0x20 DUP8 ADD MLOAD SWAP2 POP DUP1 DUP3 GT ISZERO PUSH3 0x3E0 JUMPI PUSH1 0x0 DUP1 REVERT JUMPDEST POP PUSH3 0x3EF DUP8 DUP3 DUP9 ADD PUSH3 0x2BD JUMP JUMPDEST SWAP4 POP POP PUSH3 0x400 PUSH1 0x40 DUP7 ADD PUSH3 0x36F JUMP JUMPDEST SWAP2 POP PUSH3 0x410 PUSH1 0x60 DUP7 ADD PUSH3 0x36F JUMP JUMPDEST SWAP1 POP SWAP3 SWAP6 SWAP2 SWAP5 POP SWAP3 POP JUMP JUMPDEST PUSH4 0x4E487B71 PUSH1 0xE0 SHL PUSH1 0x0 MSTORE PUSH1 0x11 PUSH1 0x4 MSTORE PUSH1 0x24 PUSH1 0x0 REVERT JUMPDEST PUSH1 0xFF DUP3 DUP2 AND DUP3 DUP3 AND SUB SWAP1 DUP2 GT ISZERO PUSH3 0x44D JUMPI PUSH3 0x44D PUSH3 0x41B JUMP JUMPDEST SWAP3 SWAP2 POP POP JUMP JUMPDEST PUSH1 0x1 DUP2 DUP2 JUMPDEST DUP1 DUP6 GT ISZERO PUSH3 0x494 JUMPI DUP2 PUSH1 0x0 NOT DIV DUP3 GT ISZERO PUSH3 0x478 JUMPI PUSH3 0x478 PUSH3 0x41B JUMP JUMPDEST DUP1 DUP6 AND ISZERO PUSH3 0x486 JUMPI SWAP2 DUP2 MUL SWAP2 JUMPDEST SWAP4 DUP5 SHR SWAP4 SWAP1 DUP1 MUL SWAP1 PUSH3 0x458 JUMP JUMPDEST POP SWAP3 POP SWAP3 SWAP1 POP JUMP JUMPDEST PUSH1 0x0 DUP3 PUSH3 0x4AD JUMPI POP PUSH1 0x1 PUSH3 0x44D JUMP JUMPDEST DUP2 PUSH3 0x4BC JUMPI POP PUSH1 0x0 PUSH3 0x44D JUMP JUMPDEST DUP2 PUSH1 0x1 DUP2 EQ PUSH3 0x4D5 JUMPI PUSH1 0x2 DUP2 EQ PUSH3 0x4E0 JUMPI PUSH3 0x500 JUMP JUMPDEST PUSH1 0x1 SWAP2 POP POP PUSH3 0x44D JUMP JUMPDEST PUSH1 0xFF DUP5 GT ISZERO PUSH3 0x4F4 JUMPI PUSH3 0x4F4 PUSH3 0x41B JUMP JUMPDEST POP POP PUSH1 0x1 DUP3 SHL PUSH3 0x44D JUMP JUMPDEST POP PUSH1 0x20 DUP4 LT PUSH2 0x133 DUP4 LT AND PUSH1 0x4E DUP5 LT PUSH1 0xB DUP5 LT AND OR ISZERO PUSH3 0x525 JUMPI POP DUP2 DUP2 EXP PUSH3 0x44D JUMP JUMPDEST PUSH3 0x531 DUP4 DUP4 PUSH3 0x453 JUMP JUMPDEST DUP1 PUSH1 0x0 NOT DIV DUP3 GT ISZERO PUSH3 0x548 JUMPI PUSH3 0x548 PUSH3 0x41B JUMP JUMPDEST MUL SWAP4 SWAP3 POP POP POP JUMP JUMPDEST PUSH1 0x0 PUSH3 0x561 PUSH1 0xFF DUP5 AND DUP4 PUSH3 0x49C JUMP JUMPDEST SWAP4 SWAP3 POP POP POP JUMP JUMPDEST PUSH1 0x1 DUP2 DUP2 SHR SWAP1 DUP3 AND DUP1 PUSH3 0x57D JUMPI PUSH1 0x7F DUP3 AND SWAP2 POP JUMPDEST PUSH1 0x20 DUP3 LT DUP2 SUB PUSH3 0x59E JUMPI PUSH4 0x4E487B71 PUSH1 0xE0 SHL PUSH1 0x0 MSTORE PUSH1 0x22 PUSH1 0x4 MSTORE PUSH1 0x24 PUSH1 0x0 REVERT JUMPDEST POP SWAP2 SWAP1 POP JUMP JUMPDEST PUSH1 0x1F DUP3 GT ISZERO PUSH3 0x2A2 JUMPI PUSH1 0x0 DUP2 PUSH1 0x0 MSTORE PUSH1 0x20 PUSH1 0x0 KECCAK256 PUSH1 0x1F DUP6 ADD PUSH1 0x5 SHR DUP2 ADD PUSH1 0x20 DUP7 LT ISZERO PUSH3 0x5CF JUMPI POP DUP1 JUMPDEST PUSH1 0x1F DUP6 ADD PUSH1 0x5 SHR DUP3 ADD SWAP2 POP JUMPDEST DUP2 DUP2 LT ISZERO PUSH3 0x5F0 JUMPI DUP3 DUP2 SSTORE PUSH1 0x1 ADD PUSH3 0x5DB JUMP JUMPDEST POP POP POP POP POP POP JUMP JUMPDEST DUP2 MLOAD PUSH1 0x1 PUSH1 0x1 PUSH1 0x40 SHL SUB DUP2 GT ISZERO PUSH3 0x614 JUMPI PUSH3 0x614 PUSH3 0x2A7 JUMP JUMPDEST PUSH3 0x62C DUP2 PUSH3 0x625 DUP5 SLOAD PUSH3 0x568 JUMP JUMPDEST DUP5 PUSH3 0x5A4 JUMP JUMPDEST PUSH1 0x20 DUP1 PUSH1 0x1F DUP4 GT PUSH1 0x1 DUP2 EQ PUSH3 0x664 JUMPI PUSH1 0x0 DUP5 ISZERO PUSH3 0x64B JUMPI POP DUP6 DUP4 ADD MLOAD JUMPDEST PUSH1 0x0 NOT PUSH1 0x3 DUP7 SWAP1 SHL SHR NOT AND PUSH1 0x1 DUP6 SWAP1 SHL OR DUP6 SSTORE PUSH3 0x5F0 JUMP JUMPDEST PUSH1 0x0 DUP6 DUP2 MSTORE PUSH1 0x20 DUP2 KECCAK256 PUSH1 0x1F NOT DUP7 AND SWAP2 JUMPDEST DUP3 DUP2 LT ISZERO PUSH3 0x695 JUMPI DUP9 DUP7 ADD MLOAD DUP3 SSTORE SWAP5 DUP5 ADD SWAP5 PUSH1 0x1 SWAP1 SWAP2 ADD SWAP1 DUP5 ADD PUSH3 0x674 JUMP JUMPDEST POP DUP6 DUP3 LT ISZERO PUSH3 0x6B4 JUMPI DUP8 DUP6 ADD MLOAD PUSH1 0x0 NOT PUSH1 0x3 DUP9 SWAP1 SHL PUSH1 0xF8 AND SHR NOT AND DUP2 SSTORE JUMPDEST POP POP POP POP POP PUSH1 0x1 SWAP1 DUP2 SHL ADD SWAP1 SSTORE POP JUMP JUMPDEST DUP1 DUP3 ADD DUP1 DUP3 GT ISZERO PUSH3 0x44D JUMPI PUSH3 0x44D PUSH3 0x41B JUMP JUMPDEST PUSH1 0x80 MLOAD PUSH1 0xA0 MLOAD PUSH2 0x3379 PUSH3 0x746 PUSH1 0x0 CODECOPY PUSH1 0x0 DUP2 DUP2 PUSH2 0x633 ADD MSTORE DUP2 DUP2 PUSH2 0x1DB0 ADD MSTORE DUP2 DUP2 PUSH2 0x1E25 ADD MSTORE PUSH2 0x1EEB ADD MSTORE PUSH1 0x0 DUP2 DUP2 PUSH2 0x512 ADD MSTORE DUP2 DUP2 PUSH2 0x99C ADD MSTORE DUP2 DUP2 PUSH2 0x12A0 ADD MSTORE DUP2 DUP2 PUSH2 0x1697 ADD MSTORE DUP2 DUP2 PUSH2 0x1B22 ADD MSTORE DUP2 DUP2 PUSH2 0x1CD4 ADD MSTORE DUP2 DUP2 PUSH2 0x20EA ADD MSTORE PUSH2 0x21A3 ADD MSTORE PUSH2 0x3379 PUSH1 0x0 RETURN INVALID PUSH1 0x80 PUSH1 0x40 MSTORE PUSH1 0x4 CALLDATASIZE LT PUSH2 0x267 JUMPI PUSH1 0x0 CALLDATALOAD PUSH1 0xE0 SHR DUP1 PUSH4 0x7D25A05E GT PUSH2 0x144 JUMPI DUP1 PUSH4 0xBB0B6A53 GT PUSH2 0xB6 JUMPI DUP1 PUSH4 0xD045A0DC GT PUSH2 0x7A JUMPI DUP1 PUSH4 0xD045A0DC EQ PUSH2 0x78A JUMPI DUP1 PUSH4 0xD4243885 EQ PUSH2 0x79D JUMPI DUP1 PUSH4 0xDD62ED3E EQ PUSH2 0x7BD JUMPI DUP1 PUSH4 0xF2FDE38B EQ PUSH2 0x7DD JUMPI DUP1 PUSH4 0xFC0C546A EQ PUSH2 0x496 JUMPI DUP1 PUSH4 0xFF7BD03D EQ PUSH2 0x7FD JUMPI PUSH1 0x0 DUP1 REVERT JUMPDEST DUP1 PUSH4 0xBB0B6A53 EQ PUSH2 0x6E9 JUMPI DUP1 PUSH4 0xBC70B354 EQ PUSH2 0x716 JUMPI DUP1 PUSH4 0xBD815DB0 EQ PUSH2 0x736 JUMPI DUP1 PUSH4 0xC7C7F5B3 EQ PUSH2 0x749 JUMPI DUP1 PUSH4 0xCA5EB5E1 EQ PUSH2 0x76A JUMPI PUSH1 0x0 DUP1 REVERT JUMPDEST DUP1 PUSH4 0x9F68B964 GT PUSH2 0x108 JUMPI DUP1 PUSH4 0x9F68B964 EQ PUSH2 0x655 JUMPI DUP1 PUSH4 0xA457C2D7 EQ PUSH2 0x669 JUMPI DUP1 PUSH4 0xA9059CBB EQ PUSH2 0x689 JUMPI DUP1 PUSH4 0xB731EA0A EQ PUSH2 0x6A9 JUMPI DUP1 PUSH4 0xB92D0EFF EQ PUSH2 0x496 JUMPI DUP1 PUSH4 0xB98BD070 EQ PUSH2 0x6C9 JUMPI PUSH1 0x0 DUP1 REVERT JUMPDEST DUP1 PUSH4 0x7D25A05E EQ PUSH2 0x59F JUMPI DUP1 PUSH4 0x857749B0 EQ PUSH2 0x5DA JUMPI DUP1 PUSH4 0x8DA5CB5B EQ PUSH2 0x5EE JUMPI DUP1 PUSH4 0x95D89B41 EQ PUSH2 0x60C JUMPI DUP1 PUSH4 0x963EFCAA EQ PUSH2 0x621 JUMPI PUSH1 0x0 DUP1 REVERT JUMPDEST DUP1 PUSH4 0x313CE567 GT PUSH2 0x1DD JUMPI DUP1 PUSH4 0x5535D461 GT PUSH2 0x1A1 JUMPI DUP1 PUSH4 0x5535D461 EQ PUSH2 0x4A9 JUMPI DUP1 PUSH4 0x5A0DFE4D EQ PUSH2 0x4C9 JUMPI DUP1 PUSH4 0x5E280F11 EQ PUSH2 0x500 JUMPI DUP1 PUSH4 0x6FC1B31E EQ PUSH2 0x534 JUMPI DUP1 PUSH4 0x70A08231 EQ PUSH2 0x554 JUMPI DUP1 PUSH4 0x715018A6 EQ PUSH2 0x58A JUMPI PUSH1 0x0 DUP1 REVERT JUMPDEST DUP1 PUSH4 0x313CE567 EQ PUSH2 0x407 JUMPI DUP1 PUSH4 0x3400288B EQ PUSH2 0x429 JUMPI DUP1 PUSH4 0x39509351 EQ PUSH2 0x449 JUMPI DUP1 PUSH4 0x3B6F743B EQ PUSH2 0x469 JUMPI DUP1 PUSH4 0x52AE2879 EQ PUSH2 0x496 JUMPI PUSH1 0x0 DUP1 REVERT JUMPDEST DUP1 PUSH4 0x134D4F25 GT PUSH2 0x22F JUMPI DUP1 PUSH4 0x134D4F25 EQ PUSH2 0x343 JUMPI DUP1 PUSH4 0x156A0D0F EQ PUSH2 0x36B JUMPI DUP1 PUSH4 0x17442B70 EQ PUSH2 0x392 JUMPI DUP1 PUSH4 0x18160DDD EQ PUSH2 0x3B3 JUMPI DUP1 PUSH4 0x1F5E1334 EQ PUSH2 0x3D2 JUMPI DUP1 PUSH4 0x23B872DD EQ PUSH2 0x3E7 JUMPI PUSH1 0x0 DUP1 REVERT JUMPDEST DUP1 PUSH4 0x6FDDE03 EQ PUSH2 0x26C JUMPI DUP1 PUSH4 0x95EA7B3 EQ PUSH2 0x297 JUMPI DUP1 PUSH4 0xD35B415 EQ PUSH2 0x2C7 JUMPI DUP1 PUSH4 0x111ECDAD EQ PUSH2 0x2F6 JUMPI DUP1 PUSH4 0x13137D65 EQ PUSH2 0x32E JUMPI JUMPDEST PUSH1 0x0 DUP1 REVERT JUMPDEST CALLVALUE DUP1 ISZERO PUSH2 0x278 JUMPI PUSH1 0x0 DUP1 REVERT JUMPDEST POP PUSH2 0x281 PUSH2 0x81D JUMP JUMPDEST PUSH1 0x40 MLOAD PUSH2 0x28E SWAP2 SWAP1 PUSH2 0x254F JUMP JUMPDEST PUSH1 0x40 MLOAD DUP1 SWAP2 SUB SWAP1 RETURN JUMPDEST CALLVALUE DUP1 ISZERO PUSH2 0x2A3 JUMPI PUSH1 0x0 DUP1 REVERT JUMPDEST POP PUSH2 0x2B7 PUSH2 0x2B2 CALLDATASIZE PUSH1 0x4 PUSH2 0x2577 JUMP JUMPDEST PUSH2 0x8AF JUMP JUMPDEST PUSH1 0x40 MLOAD SWAP1 ISZERO ISZERO DUP2 MSTORE PUSH1 0x20 ADD PUSH2 0x28E JUMP JUMPDEST CALLVALUE DUP1 ISZERO PUSH2 0x2D3 JUMPI PUSH1 0x0 DUP1 REVERT JUMPDEST POP PUSH2 0x2E7 PUSH2 0x2E2 CALLDATASIZE PUSH1 0x4 PUSH2 0x25BB JUMP JUMPDEST PUSH2 0x8C9 JUMP JUMPDEST PUSH1 0x40 MLOAD PUSH2 0x28E SWAP4 SWAP3 SWAP2 SWAP1 PUSH2 0x25EF JUMP JUMPDEST CALLVALUE DUP1 ISZERO PUSH2 0x302 JUMPI PUSH1 0x0 DUP1 REVERT JUMPDEST POP PUSH1 0x4 SLOAD PUSH2 0x316 SWAP1 PUSH1 0x1 PUSH1 0x1 PUSH1 0xA0 SHL SUB AND DUP2 JUMP JUMPDEST PUSH1 0x40 MLOAD PUSH1 0x1 PUSH1 0x1 PUSH1 0xA0 SHL SUB SWAP1 SWAP2 AND DUP2 MSTORE PUSH1 0x20 ADD PUSH2 0x28E JUMP JUMPDEST PUSH2 0x341 PUSH2 0x33C CALLDATASIZE PUSH1 0x4 PUSH2 0x26E2 JUMP JUMPDEST PUSH2 0x99A JUMP JUMPDEST STOP JUMPDEST CALLVALUE DUP1 ISZERO PUSH2 0x34F JUMPI PUSH1 0x0 DUP1 REVERT JUMPDEST POP PUSH2 0x358 PUSH1 0x2 DUP2 JUMP JUMPDEST PUSH1 0x40 MLOAD PUSH2 0xFFFF SWAP1 SWAP2 AND DUP2 MSTORE PUSH1 0x20 ADD PUSH2 0x28E JUMP JUMPDEST CALLVALUE DUP1 ISZERO PUSH2 0x377 JUMPI PUSH1 0x0 DUP1 REVERT JUMPDEST POP PUSH1 0x40 DUP1 MLOAD PUSH3 0xB9270B PUSH1 0xE2 SHL DUP2 MSTORE PUSH1 0x1 PUSH1 0x20 DUP3 ADD MSTORE ADD PUSH2 0x28E JUMP JUMPDEST CALLVALUE DUP1 ISZERO PUSH2 0x39E JUMPI PUSH1 0x0 DUP1 REVERT JUMPDEST POP PUSH1 0x40 DUP1 MLOAD PUSH1 0x1 DUP1 DUP3 MSTORE PUSH1 0x20 DUP3 ADD MSTORE ADD PUSH2 0x28E JUMP JUMPDEST CALLVALUE DUP1 ISZERO PUSH2 0x3BF JUMPI PUSH1 0x0 DUP1 REVERT JUMPDEST POP PUSH1 0x7 SLOAD JUMPDEST PUSH1 0x40 MLOAD SWAP1 DUP2 MSTORE PUSH1 0x20 ADD PUSH2 0x28E JUMP JUMPDEST CALLVALUE DUP1 ISZERO PUSH2 0x3DE JUMPI PUSH1 0x0 DUP1 REVERT JUMPDEST POP PUSH2 0x358 PUSH1 0x1 DUP2 JUMP JUMPDEST CALLVALUE DUP1 ISZERO PUSH2 0x3F3 JUMPI PUSH1 0x0 DUP1 REVERT JUMPDEST POP PUSH2 0x2B7 PUSH2 0x402 CALLDATASIZE PUSH1 0x4 PUSH2 0x2781 JUMP JUMPDEST PUSH2 0xA5A JUMP JUMPDEST CALLVALUE DUP1 ISZERO PUSH2 0x413 JUMPI PUSH1 0x0 DUP1 REVERT JUMPDEST POP PUSH1 0x12 JUMPDEST PUSH1 0x40 MLOAD PUSH1 0xFF SWAP1 SWAP2 AND DUP2 MSTORE PUSH1 0x20 ADD PUSH2 0x28E JUMP JUMPDEST CALLVALUE DUP1 ISZERO PUSH2 0x435 JUMPI PUSH1 0x0 DUP1 REVERT JUMPDEST POP PUSH2 0x341 PUSH2 0x444 CALLDATASIZE PUSH1 0x4 PUSH2 0x27DB JUMP JUMPDEST PUSH2 0xA80 JUMP JUMPDEST CALLVALUE DUP1 ISZERO PUSH2 0x455 JUMPI PUSH1 0x0 DUP1 REVERT JUMPDEST POP PUSH2 0x2B7 PUSH2 0x464 CALLDATASIZE PUSH1 0x4 PUSH2 0x2577 JUMP JUMPDEST PUSH2 0xADE JUMP JUMPDEST CALLVALUE DUP1 ISZERO PUSH2 0x475 JUMPI PUSH1 0x0 DUP1 REVERT JUMPDEST POP PUSH2 0x489 PUSH2 0x484 CALLDATASIZE PUSH1 0x4 PUSH2 0x2805 JUMP JUMPDEST PUSH2 0xB00 JUMP JUMPDEST PUSH1 0x40 MLOAD PUSH2 0x28E SWAP2 SWAP1 PUSH2 0x2856 JUMP JUMPDEST CALLVALUE DUP1 ISZERO PUSH2 0x4A2 JUMPI PUSH1 0x0 DUP1 REVERT JUMPDEST POP ADDRESS PUSH2 0x316 JUMP JUMPDEST CALLVALUE DUP1 ISZERO PUSH2 0x4B5 JUMPI PUSH1 0x0 DUP1 REVERT JUMPDEST POP PUSH2 0x281 PUSH2 0x4C4 CALLDATASIZE PUSH1 0x4 PUSH2 0x287F JUMP JUMPDEST PUSH2 0xB67 JUMP JUMPDEST CALLVALUE DUP1 ISZERO PUSH2 0x4D5 JUMPI PUSH1 0x0 DUP1 REVERT JUMPDEST POP PUSH2 0x2B7 PUSH2 0x4E4 CALLDATASIZE PUSH1 0x4 PUSH2 0x27DB JUMP JUMPDEST PUSH4 0xFFFFFFFF SWAP2 SWAP1 SWAP2 AND PUSH1 0x0 SWAP1 DUP2 MSTORE PUSH1 0x1 PUSH1 0x20 MSTORE PUSH1 0x40 SWAP1 KECCAK256 SLOAD EQ SWAP1 JUMP JUMPDEST CALLVALUE DUP1 ISZERO PUSH2 0x50C JUMPI PUSH1 0x0 DUP1 REVERT JUMPDEST POP PUSH2 0x316 PUSH32 0x0 DUP2 JUMP JUMPDEST CALLVALUE DUP1 ISZERO PUSH2 0x540 JUMPI PUSH1 0x0 DUP1 REVERT JUMPDEST POP PUSH2 0x341 PUSH2 0x54F CALLDATASIZE PUSH1 0x4 PUSH2 0x28B2 JUMP JUMPDEST PUSH2 0xC0C JUMP JUMPDEST CALLVALUE DUP1 ISZERO PUSH2 0x560 JUMPI PUSH1 0x0 DUP1 REVERT JUMPDEST POP PUSH2 0x3C4 PUSH2 0x56F CALLDATASIZE PUSH1 0x4 PUSH2 0x28B2 JUMP JUMPDEST PUSH1 0x1 PUSH1 0x1 PUSH1 0xA0 SHL SUB AND PUSH1 0x0 SWAP1 DUP2 MSTORE PUSH1 0x5 PUSH1 0x20 MSTORE PUSH1 0x40 SWAP1 KECCAK256 SLOAD SWAP1 JUMP JUMPDEST CALLVALUE DUP1 ISZERO PUSH2 0x596 JUMPI PUSH1 0x0 DUP1 REVERT JUMPDEST POP PUSH2 0x341 PUSH2 0xC69 JUMP JUMPDEST CALLVALUE DUP1 ISZERO PUSH2 0x5AB JUMPI PUSH1 0x0 DUP1 REVERT JUMPDEST POP PUSH2 0x5C2 PUSH2 0x5BA CALLDATASIZE PUSH1 0x4 PUSH2 0x27DB JUMP JUMPDEST PUSH1 0x0 SWAP3 SWAP2 POP POP JUMP JUMPDEST PUSH1 0x40 MLOAD PUSH1 0x1 PUSH1 0x1 PUSH1 0x40 SHL SUB SWAP1 SWAP2 AND DUP2 MSTORE PUSH1 0x20 ADD PUSH2 0x28E JUMP JUMPDEST CALLVALUE DUP1 ISZERO PUSH2 0x5E6 JUMPI PUSH1 0x0 DUP1 REVERT JUMPDEST POP PUSH1 0x6 PUSH2 0x417 JUMP JUMPDEST CALLVALUE DUP1 ISZERO PUSH2 0x5FA JUMPI PUSH1 0x0 DUP1 REVERT JUMPDEST POP PUSH1 0x0 SLOAD PUSH1 0x1 PUSH1 0x1 PUSH1 0xA0 SHL SUB AND PUSH2 0x316 JUMP JUMPDEST CALLVALUE DUP1 ISZERO PUSH2 0x618 JUMPI PUSH1 0x0 DUP1 REVERT JUMPDEST POP PUSH2 0x281 PUSH2 0xC7D JUMP JUMPDEST CALLVALUE DUP1 ISZERO PUSH2 0x62D JUMPI PUSH1 0x0 DUP1 REVERT JUMPDEST POP PUSH2 0x3C4 PUSH32 0x0 DUP2 JUMP JUMPDEST CALLVALUE DUP1 ISZERO PUSH2 0x661 JUMPI PUSH1 0x0 DUP1 REVERT JUMPDEST POP PUSH1 0x0 PUSH2 0x2B7 JUMP JUMPDEST CALLVALUE DUP1 ISZERO PUSH2 0x675 JUMPI PUSH1 0x0 DUP1 REVERT JUMPDEST POP PUSH2 0x2B7 PUSH2 0x684 CALLDATASIZE PUSH1 0x4 PUSH2 0x2577 JUMP JUMPDEST PUSH2 0xC8C JUMP JUMPDEST CALLVALUE DUP1 ISZERO PUSH2 0x695 JUMPI PUSH1 0x0 DUP1 REVERT JUMPDEST POP PUSH2 0x2B7 PUSH2 0x6A4 CALLDATASIZE PUSH1 0x4 PUSH2 0x2577 JUMP JUMPDEST PUSH2 0xD12 JUMP JUMPDEST CALLVALUE DUP1 ISZERO PUSH2 0x6B5 JUMPI PUSH1 0x0 DUP1 REVERT JUMPDEST POP PUSH1 0x2 SLOAD PUSH2 0x316 SWAP1 PUSH1 0x1 PUSH1 0x1 PUSH1 0xA0 SHL SUB AND DUP2 JUMP JUMPDEST CALLVALUE DUP1 ISZERO PUSH2 0x6D5 JUMPI PUSH1 0x0 DUP1 REVERT JUMPDEST POP PUSH2 0x341 PUSH2 0x6E4 CALLDATASIZE PUSH1 0x4 PUSH2 0x2913 JUMP JUMPDEST PUSH2 0xD20 JUMP JUMPDEST CALLVALUE DUP1 ISZERO PUSH2 0x6F5 JUMPI PUSH1 0x0 DUP1 REVERT JUMPDEST POP PUSH2 0x3C4 PUSH2 0x704 CALLDATASIZE PUSH1 0x4 PUSH2 0x2954 JUMP JUMPDEST PUSH1 0x1 PUSH1 0x20 MSTORE PUSH1 0x0 SWAP1 DUP2 MSTORE PUSH1 0x40 SWAP1 KECCAK256 SLOAD DUP2 JUMP JUMPDEST CALLVALUE DUP1 ISZERO PUSH2 0x722 JUMPI PUSH1 0x0 DUP1 REVERT JUMPDEST POP PUSH2 0x281 PUSH2 0x731 CALLDATASIZE PUSH1 0x4 PUSH2 0x296F JUMP JUMPDEST PUSH2 0xE81 JUMP JUMPDEST PUSH2 0x341 PUSH2 0x744 CALLDATASIZE PUSH1 0x4 PUSH2 0x2913 JUMP JUMPDEST PUSH2 0xFFC JUMP JUMPDEST PUSH2 0x75C PUSH2 0x757 CALLDATASIZE PUSH1 0x4 PUSH2 0x29CF JUMP JUMPDEST PUSH2 0x1186 JUMP JUMPDEST PUSH1 0x40 MLOAD PUSH2 0x28E SWAP3 SWAP2 SWAP1 PUSH2 0x2A3C JUMP JUMPDEST CALLVALUE DUP1 ISZERO PUSH2 0x776 JUMPI PUSH1 0x0 DUP1 REVERT JUMPDEST POP PUSH2 0x341 PUSH2 0x785 CALLDATASIZE PUSH1 0x4 PUSH2 0x28B2 JUMP JUMPDEST PUSH2 0x1279 JUMP JUMPDEST PUSH2 0x341 PUSH2 0x798 CALLDATASIZE PUSH1 0x4 PUSH2 0x26E2 JUMP JUMPDEST PUSH2 0x12FF JUMP JUMPDEST CALLVALUE DUP1 ISZERO PUSH2 0x7A9 JUMPI PUSH1 0x0 DUP1 REVERT JUMPDEST POP PUSH2 0x341 PUSH2 0x7B8 CALLDATASIZE PUSH1 0x4 PUSH2 0x28B2 JUMP JUMPDEST PUSH2 0x132E JUMP JUMPDEST CALLVALUE DUP1 ISZERO PUSH2 0x7C9 JUMPI PUSH1 0x0 DUP1 REVERT JUMPDEST POP PUSH2 0x3C4 PUSH2 0x7D8 CALLDATASIZE PUSH1 0x4 PUSH2 0x2A8E JUMP JUMPDEST PUSH2 0x1384 JUMP JUMPDEST CALLVALUE DUP1 ISZERO PUSH2 0x7E9 JUMPI PUSH1 0x0 DUP1 REVERT JUMPDEST POP PUSH2 0x341 PUSH2 0x7F8 CALLDATASIZE PUSH1 0x4 PUSH2 0x28B2 JUMP JUMPDEST PUSH2 0x13AF JUMP JUMPDEST CALLVALUE DUP1 ISZERO PUSH2 0x809 JUMPI PUSH1 0x0 DUP1 REVERT JUMPDEST POP PUSH2 0x2B7 PUSH2 0x818 CALLDATASIZE PUSH1 0x4 PUSH2 0x2ABC JUMP JUMPDEST PUSH2 0x1428 JUMP JUMPDEST PUSH1 0x60 PUSH1 0x8 DUP1 SLOAD PUSH2 0x82C SWAP1 PUSH2 0x2AD8 JUMP JUMPDEST DUP1 PUSH1 0x1F ADD PUSH1 0x20 DUP1 SWAP2 DIV MUL PUSH1 0x20 ADD PUSH1 0x40 MLOAD SWAP1 DUP2 ADD PUSH1 0x40 MSTORE DUP1 SWAP3 SWAP2 SWAP1 DUP2 DUP2 MSTORE PUSH1 0x20 ADD DUP3 DUP1 SLOAD PUSH2 0x858 SWAP1 PUSH2 0x2AD8 JUMP JUMPDEST DUP1 ISZERO PUSH2 0x8A5 JUMPI DUP1 PUSH1 0x1F LT PUSH2 0x87A JUMPI PUSH2 0x100 DUP1 DUP4 SLOAD DIV MUL DUP4 MSTORE SWAP2 PUSH1 0x20 ADD SWAP2 PUSH2 0x8A5 JUMP JUMPDEST DUP3 ADD SWAP2 SWAP1 PUSH1 0x0 MSTORE PUSH1 0x20 PUSH1 0x0 KECCAK256 SWAP1 JUMPDEST DUP2 SLOAD DUP2 MSTORE SWAP1 PUSH1 0x1 ADD SWAP1 PUSH1 0x20 ADD DUP1 DUP4 GT PUSH2 0x888 JUMPI DUP3 SWAP1 SUB PUSH1 0x1F AND DUP3 ADD SWAP2 JUMPDEST POP POP POP POP POP SWAP1 POP SWAP1 JUMP JUMPDEST PUSH1 0x0 CALLER PUSH2 0x8BD DUP2 DUP6 DUP6 PUSH2 0x145E JUMP JUMPDEST PUSH1 0x1 SWAP2 POP POP JUMPDEST SWAP3 SWAP2 POP POP JUMP JUMPDEST PUSH1 0x40 DUP1 MLOAD DUP1 DUP3 ADD SWAP1 SWAP2 MSTORE PUSH1 0x0 DUP1 DUP3 MSTORE PUSH1 0x20 DUP3 ADD MSTORE PUSH1 0x60 PUSH2 0x8FC PUSH1 0x40 MLOAD DUP1 PUSH1 0x40 ADD PUSH1 0x40 MSTORE DUP1 PUSH1 0x0 DUP2 MSTORE PUSH1 0x20 ADD PUSH1 0x0 DUP2 MSTORE POP SWAP1 JUMP JUMPDEST PUSH1 0x40 DUP1 MLOAD DUP1 DUP3 ADD DUP3 MSTORE PUSH1 0x0 DUP1 DUP3 MSTORE PUSH1 0x1 PUSH1 0x1 PUSH1 0x40 SHL SUB PUSH1 0x20 DUP1 DUP5 ADD DUP3 SWAP1 MSTORE DUP5 MLOAD DUP4 DUP2 MSTORE SWAP1 DUP2 ADD SWAP1 SWAP5 MSTORE SWAP2 SWAP6 POP SWAP2 DUP3 PUSH2 0x957 JUMP JUMPDEST PUSH1 0x40 DUP1 MLOAD DUP1 DUP3 ADD SWAP1 SWAP2 MSTORE PUSH1 0x0 DUP2 MSTORE PUSH1 0x60 PUSH1 0x20 DUP3 ADD MSTORE DUP2 MSTORE PUSH1 0x20 ADD SWAP1 PUSH1 0x1 SWAP1 SUB SWAP1 DUP2 PUSH2 0x92F JUMPI SWAP1 POP JUMPDEST POP SWAP4 POP PUSH1 0x0 DUP1 PUSH2 0x97C PUSH1 0x40 DUP10 ADD CALLDATALOAD PUSH1 0x60 DUP11 ADD CALLDATALOAD PUSH2 0x977 PUSH1 0x20 DUP13 ADD DUP13 PUSH2 0x2954 JUMP JUMPDEST PUSH2 0x1582 JUMP JUMPDEST PUSH1 0x40 DUP1 MLOAD DUP1 DUP3 ADD SWAP1 SWAP2 MSTORE SWAP2 DUP3 MSTORE PUSH1 0x20 DUP3 ADD MSTORE SWAP7 SWAP9 SWAP6 SWAP8 POP POP POP POP POP POP JUMP JUMPDEST PUSH32 0x0 PUSH1 0x1 PUSH1 0x1 PUSH1 0xA0 SHL SUB AND CALLER EQ PUSH2 0x9EA JUMPI PUSH1 0x40 MLOAD PUSH4 0x91AC5E4F PUSH1 0xE0 SHL DUP2 MSTORE CALLER PUSH1 0x4 DUP3 ADD MSTORE PUSH1 0x24 ADD JUMPDEST PUSH1 0x40 MLOAD DUP1 SWAP2 SUB SWAP1 REVERT JUMPDEST PUSH1 0x20 DUP8 ADD DUP1 CALLDATALOAD SWAP1 PUSH2 0xA04 SWAP1 PUSH2 0x9FF SWAP1 DUP11 PUSH2 0x2954 JUMP JUMPDEST PUSH2 0x15C6 JUMP JUMPDEST EQ PUSH2 0xA42 JUMPI PUSH2 0xA16 PUSH1 0x20 DUP9 ADD DUP9 PUSH2 0x2954 JUMP JUMPDEST PUSH1 0x40 MLOAD PUSH4 0x309AFAF3 PUSH1 0xE2 SHL DUP2 MSTORE PUSH4 0xFFFFFFFF SWAP1 SWAP2 AND PUSH1 0x4 DUP3 ADD MSTORE PUSH1 0x20 DUP9 ADD CALLDATALOAD PUSH1 0x24 DUP3 ADD MSTORE PUSH1 0x44 ADD PUSH2 0x9E1 JUMP JUMPDEST PUSH2 0xA51 DUP8 DUP8 DUP8 DUP8 DUP8 DUP8 DUP8 PUSH2 0x1602 JUMP JUMPDEST POP POP POP POP POP POP POP JUMP JUMPDEST PUSH1 0x0 CALLER PUSH2 0xA68 DUP6 DUP3 DUP6 PUSH2 0x1769 JUMP JUMPDEST PUSH2 0xA73 DUP6 DUP6 DUP6 PUSH2 0x17E3 JUMP JUMPDEST PUSH1 0x1 SWAP2 POP POP JUMPDEST SWAP4 SWAP3 POP POP POP JUMP JUMPDEST PUSH2 0xA88 PUSH2 0x198E JUMP JUMPDEST PUSH4 0xFFFFFFFF DUP3 AND PUSH1 0x0 DUP2 DUP2 MSTORE PUSH1 0x1 PUSH1 0x20 SWAP1 DUP2 MSTORE PUSH1 0x40 SWAP2 DUP3 SWAP1 KECCAK256 DUP5 SWAP1 SSTORE DUP2 MLOAD SWAP3 DUP4 MSTORE DUP3 ADD DUP4 SWAP1 MSTORE PUSH32 0x238399D427B947898EDB290F5FF0F9109849B1C3BA196A42E35F00C50A54B98B SWAP2 ADD JUMPDEST PUSH1 0x40 MLOAD DUP1 SWAP2 SUB SWAP1 LOG1 POP POP JUMP JUMPDEST PUSH1 0x0 CALLER PUSH2 0x8BD DUP2 DUP6 DUP6 PUSH2 0xAF1 DUP4 DUP4 PUSH2 0x1384 JUMP JUMPDEST PUSH2 0xAFB SWAP2 SWAP1 PUSH2 0x2B38 JUMP JUMPDEST PUSH2 0x145E JUMP JUMPDEST PUSH1 0x40 DUP1 MLOAD DUP1 DUP3 ADD SWAP1 SWAP2 MSTORE PUSH1 0x0 DUP1 DUP3 MSTORE PUSH1 0x20 DUP3 ADD MSTORE PUSH1 0x0 PUSH2 0xB30 PUSH1 0x40 DUP6 ADD CALLDATALOAD PUSH1 0x60 DUP7 ADD CALLDATALOAD PUSH2 0x977 PUSH1 0x20 DUP9 ADD DUP9 PUSH2 0x2954 JUMP JUMPDEST SWAP2 POP POP PUSH1 0x0 DUP1 PUSH2 0xB40 DUP7 DUP5 PUSH2 0x19E8 JUMP JUMPDEST SWAP1 SWAP3 POP SWAP1 POP PUSH2 0xB5D PUSH2 0xB55 PUSH1 0x20 DUP9 ADD DUP9 PUSH2 0x2954 JUMP JUMPDEST DUP4 DUP4 DUP9 PUSH2 0x1B0C JUMP JUMPDEST SWAP7 SWAP6 POP POP POP POP POP POP JUMP JUMPDEST PUSH1 0x3 PUSH1 0x20 SWAP1 DUP2 MSTORE PUSH1 0x0 SWAP3 DUP4 MSTORE PUSH1 0x40 DUP1 DUP5 KECCAK256 SWAP1 SWAP2 MSTORE SWAP1 DUP3 MSTORE SWAP1 KECCAK256 DUP1 SLOAD PUSH2 0xB8B SWAP1 PUSH2 0x2AD8 JUMP JUMPDEST DUP1 PUSH1 0x1F ADD PUSH1 0x20 DUP1 SWAP2 DIV MUL PUSH1 0x20 ADD PUSH1 0x40 MLOAD SWAP1 DUP2 ADD PUSH1 0x40 MSTORE DUP1 SWAP3 SWAP2 SWAP1 DUP2 DUP2 MSTORE PUSH1 0x20 ADD DUP3 DUP1 SLOAD PUSH2 0xBB7 SWAP1 PUSH2 0x2AD8 JUMP JUMPDEST DUP1 ISZERO PUSH2 0xC04 JUMPI DUP1 PUSH1 0x1F LT PUSH2 0xBD9 JUMPI PUSH2 0x100 DUP1 DUP4 SLOAD DIV MUL DUP4 MSTORE SWAP2 PUSH1 0x20 ADD SWAP2 PUSH2 0xC04 JUMP JUMPDEST DUP3 ADD SWAP2 SWAP1 PUSH1 0x0 MSTORE PUSH1 0x20 PUSH1 0x0 KECCAK256 SWAP1 JUMPDEST DUP2 SLOAD DUP2 MSTORE SWAP1 PUSH1 0x1 ADD SWAP1 PUSH1 0x20 ADD DUP1 DUP4 GT PUSH2 0xBE7 JUMPI DUP3 SWAP1 SUB PUSH1 0x1F AND DUP3 ADD SWAP2 JUMPDEST POP POP POP POP POP DUP2 JUMP JUMPDEST PUSH2 0xC14 PUSH2 0x198E JUMP JUMPDEST PUSH1 0x4 DUP1 SLOAD PUSH1 0x1 PUSH1 0x1 PUSH1 0xA0 SHL SUB NOT AND PUSH1 0x1 PUSH1 0x1 PUSH1 0xA0 SHL SUB DUP4 AND SWAP1 DUP2 OR SWAP1 SWAP2 SSTORE PUSH1 0x40 MLOAD SWAP1 DUP2 MSTORE PUSH32 0xF0BE4F1E87349231D80C36B33F9E8639658EEAF474014DEE15A3E6A4D4414197 SWAP1 PUSH1 0x20 ADD JUMPDEST PUSH1 0x40 MLOAD DUP1 SWAP2 SUB SWAP1 LOG1 POP JUMP JUMPDEST PUSH2 0xC71 PUSH2 0x198E JUMP JUMPDEST PUSH2 0xC7B PUSH1 0x0 PUSH2 0x1BED JUMP JUMPDEST JUMP JUMPDEST PUSH1 0x60 PUSH1 0x9 DUP1 SLOAD PUSH2 0x82C SWAP1 PUSH2 0x2AD8 JUMP JUMPDEST PUSH1 0x0 CALLER DUP2 PUSH2 0xC9A DUP3 DUP7 PUSH2 0x1384 JUMP JUMPDEST SWAP1 POP DUP4 DUP2 LT ISZERO PUSH2 0xCFA JUMPI PUSH1 0x40 MLOAD PUSH3 0x461BCD PUSH1 0xE5 SHL DUP2 MSTORE PUSH1 0x20 PUSH1 0x4 DUP3 ADD MSTORE PUSH1 0x25 PUSH1 0x24 DUP3 ADD MSTORE PUSH32 0x45524332303A2064656372656173656420616C6C6F77616E63652062656C6F77 PUSH1 0x44 DUP3 ADD MSTORE PUSH5 0x207A65726F PUSH1 0xD8 SHL PUSH1 0x64 DUP3 ADD MSTORE PUSH1 0x84 ADD PUSH2 0x9E1 JUMP JUMPDEST PUSH2 0xD07 DUP3 DUP7 DUP7 DUP5 SUB PUSH2 0x145E JUMP JUMPDEST POP PUSH1 0x1 SWAP5 SWAP4 POP POP POP POP JUMP JUMPDEST PUSH1 0x0 CALLER PUSH2 0x8BD DUP2 DUP6 DUP6 PUSH2 0x17E3 JUMP JUMPDEST PUSH2 0xD28 PUSH2 0x198E JUMP JUMPDEST PUSH1 0x0 JUMPDEST DUP2 DUP2 LT ISZERO PUSH2 0xE4F JUMPI PUSH2 0xD6D DUP4 DUP4 DUP4 DUP2 DUP2 LT PUSH2 0xD48 JUMPI PUSH2 0xD48 PUSH2 0x2B4B JUMP JUMPDEST SWAP1 POP PUSH1 0x20 MUL DUP2 ADD SWAP1 PUSH2 0xD5A SWAP2 SWAP1 PUSH2 0x2B61 JUMP JUMPDEST PUSH2 0xD68 SWAP1 PUSH1 0x40 DUP2 ADD SWAP1 PUSH2 0x2B81 JUMP JUMPDEST PUSH2 0x1C3D JUMP JUMPDEST DUP3 DUP3 DUP3 DUP2 DUP2 LT PUSH2 0xD7F JUMPI PUSH2 0xD7F PUSH2 0x2B4B JUMP JUMPDEST SWAP1 POP PUSH1 0x20 MUL DUP2 ADD SWAP1 PUSH2 0xD91 SWAP2 SWAP1 PUSH2 0x2B61 JUMP JUMPDEST PUSH2 0xD9F SWAP1 PUSH1 0x40 DUP2 ADD SWAP1 PUSH2 0x2B81 JUMP JUMPDEST PUSH1 0x3 PUSH1 0x0 DUP7 DUP7 DUP7 DUP2 DUP2 LT PUSH2 0xDB5 JUMPI PUSH2 0xDB5 PUSH2 0x2B4B JUMP JUMPDEST SWAP1 POP PUSH1 0x20 MUL DUP2 ADD SWAP1 PUSH2 0xDC7 SWAP2 SWAP1 PUSH2 0x2B61 JUMP JUMPDEST PUSH2 0xDD5 SWAP1 PUSH1 0x20 DUP2 ADD SWAP1 PUSH2 0x2954 JUMP JUMPDEST PUSH4 0xFFFFFFFF AND PUSH4 0xFFFFFFFF AND DUP2 MSTORE PUSH1 0x20 ADD SWAP1 DUP2 MSTORE PUSH1 0x20 ADD PUSH1 0x0 KECCAK256 PUSH1 0x0 DUP7 DUP7 DUP7 DUP2 DUP2 LT PUSH2 0xE03 JUMPI PUSH2 0xE03 PUSH2 0x2B4B JUMP JUMPDEST SWAP1 POP PUSH1 0x20 MUL DUP2 ADD SWAP1 PUSH2 0xE15 SWAP2 SWAP1 PUSH2 0x2B61 JUMP JUMPDEST PUSH2 0xE26 SWAP1 PUSH1 0x40 DUP2 ADD SWAP1 PUSH1 0x20 ADD PUSH2 0x2BC7 JUMP JUMPDEST PUSH2 0xFFFF AND DUP2 MSTORE PUSH1 0x20 DUP2 ADD SWAP2 SWAP1 SWAP2 MSTORE PUSH1 0x40 ADD PUSH1 0x0 KECCAK256 SWAP2 PUSH2 0xE46 SWAP2 SWAP1 DUP4 PUSH2 0x2C32 JUMP JUMPDEST POP PUSH1 0x1 ADD PUSH2 0xD2B JUMP JUMPDEST POP PUSH32 0xBE4864A8E820971C0247F5992E2DA559595F7BF076A21CB5928D443D2A13B674 DUP3 DUP3 PUSH1 0x40 MLOAD PUSH2 0xAD2 SWAP3 SWAP2 SWAP1 PUSH2 0x2D1A JUMP JUMPDEST PUSH4 0xFFFFFFFF DUP5 AND PUSH1 0x0 SWAP1 DUP2 MSTORE PUSH1 0x3 PUSH1 0x20 SWAP1 DUP2 MSTORE PUSH1 0x40 DUP1 DUP4 KECCAK256 PUSH2 0xFFFF DUP8 AND DUP5 MSTORE SWAP1 SWAP2 MSTORE DUP2 KECCAK256 DUP1 SLOAD PUSH1 0x60 SWAP3 SWAP2 SWAP1 PUSH2 0xEB5 SWAP1 PUSH2 0x2AD8 JUMP JUMPDEST DUP1 PUSH1 0x1F ADD PUSH1 0x20 DUP1 SWAP2 DIV MUL PUSH1 0x20 ADD PUSH1 0x40 MLOAD SWAP1 DUP2 ADD PUSH1 0x40 MSTORE DUP1 SWAP3 SWAP2 SWAP1 DUP2 DUP2 MSTORE PUSH1 0x20 ADD DUP3 DUP1 SLOAD PUSH2 0xEE1 SWAP1 PUSH2 0x2AD8 JUMP JUMPDEST DUP1 ISZERO PUSH2 0xF2E JUMPI DUP1 PUSH1 0x1F LT PUSH2 0xF03 JUMPI PUSH2 0x100 DUP1 DUP4 SLOAD DIV MUL DUP4 MSTORE SWAP2 PUSH1 0x20 ADD SWAP2 PUSH2 0xF2E JUMP JUMPDEST DUP3 ADD SWAP2 SWAP1 PUSH1 0x0 MSTORE PUSH1 0x20 PUSH1 0x0 KECCAK256 SWAP1 JUMPDEST DUP2 SLOAD DUP2 MSTORE SWAP1 PUSH1 0x1 ADD SWAP1 PUSH1 0x20 ADD DUP1 DUP4 GT PUSH2 0xF11 JUMPI DUP3 SWAP1 SUB PUSH1 0x1F AND DUP3 ADD SWAP2 JUMPDEST POP POP POP POP POP SWAP1 POP DUP1 MLOAD PUSH1 0x0 SUB PUSH2 0xF7E JUMPI DUP4 DUP4 DUP1 DUP1 PUSH1 0x1F ADD PUSH1 0x20 DUP1 SWAP2 DIV MUL PUSH1 0x20 ADD PUSH1 0x40 MLOAD SWAP1 DUP2 ADD PUSH1 0x40 MSTORE DUP1 SWAP4 SWAP3 SWAP2 SWAP1 DUP2 DUP2 MSTORE PUSH1 0x20 ADD DUP4 DUP4 DUP1 DUP3 DUP5 CALLDATACOPY PUSH1 0x0 SWAP3 ADD SWAP2 SWAP1 SWAP2 MSTORE POP SWAP3 SWAP5 POP PUSH2 0xFF4 SWAP4 POP POP POP POP JUMP JUMPDEST PUSH1 0x0 DUP4 SWAP1 SUB PUSH2 0xF8E JUMPI SWAP1 POP PUSH2 0xFF4 JUMP JUMPDEST PUSH1 0x2 DUP4 LT PUSH2 0xFD7 JUMPI PUSH2 0xFA0 DUP5 DUP5 PUSH2 0x1C3D JUMP JUMPDEST DUP1 PUSH2 0xFAE DUP5 PUSH1 0x2 DUP2 DUP9 PUSH2 0x2DFE JUMP JUMPDEST PUSH1 0x40 MLOAD PUSH1 0x20 ADD PUSH2 0xFC0 SWAP4 SWAP3 SWAP2 SWAP1 PUSH2 0x2E28 JUMP JUMPDEST PUSH1 0x40 MLOAD PUSH1 0x20 DUP2 DUP4 SUB SUB DUP2 MSTORE SWAP1 PUSH1 0x40 MSTORE SWAP2 POP POP PUSH2 0xFF4 JUMP JUMPDEST DUP4 DUP4 PUSH1 0x40 MLOAD PUSH4 0x9A6D49CD PUSH1 0xE0 SHL DUP2 MSTORE PUSH1 0x4 ADD PUSH2 0x9E1 SWAP3 SWAP2 SWAP1 PUSH2 0x2E50 JUMP JUMPDEST SWAP5 SWAP4 POP POP POP POP JUMP JUMPDEST PUSH1 0x0 JUMPDEST DUP2 DUP2 LT ISZERO PUSH2 0x1105 JUMPI CALLDATASIZE DUP4 DUP4 DUP4 DUP2 DUP2 LT PUSH2 0x101A JUMPI PUSH2 0x101A PUSH2 0x2B4B JUMP JUMPDEST SWAP1 POP PUSH1 0x20 MUL DUP2 ADD SWAP1 PUSH2 0x102C SWAP2 SWAP1 PUSH2 0x2E64 JUMP JUMPDEST SWAP1 POP PUSH2 0x105F PUSH2 0x103E PUSH1 0x20 DUP4 ADD DUP4 PUSH2 0x2954 JUMP JUMPDEST PUSH1 0x20 DUP4 ADD CALLDATALOAD PUSH4 0xFFFFFFFF SWAP2 SWAP1 SWAP2 AND PUSH1 0x0 SWAP1 DUP2 MSTORE PUSH1 0x1 PUSH1 0x20 MSTORE PUSH1 0x40 SWAP1 KECCAK256 SLOAD EQ SWAP1 JUMP JUMPDEST PUSH2 0x1069 JUMPI POP PUSH2 0x10FD JUMP JUMPDEST ADDRESS PUSH4 0xD045A0DC PUSH1 0xC0 DUP4 ADD CALLDATALOAD DUP4 PUSH1 0xA0 DUP2 ADD CALLDATALOAD PUSH2 0x1088 PUSH2 0x100 DUP4 ADD DUP4 PUSH2 0x2B81 JUMP JUMPDEST PUSH2 0x1099 PUSH2 0x100 DUP10 ADD PUSH1 0xE0 DUP11 ADD PUSH2 0x28B2 JUMP JUMPDEST PUSH2 0x10A7 PUSH2 0x120 DUP11 ADD DUP11 PUSH2 0x2B81 JUMP JUMPDEST PUSH1 0x40 MLOAD DUP10 PUSH4 0xFFFFFFFF AND PUSH1 0xE0 SHL DUP2 MSTORE PUSH1 0x4 ADD PUSH2 0x10C9 SWAP8 SWAP7 SWAP6 SWAP5 SWAP4 SWAP3 SWAP2 SWAP1 PUSH2 0x2E90 JUMP JUMPDEST PUSH1 0x0 PUSH1 0x40 MLOAD DUP1 DUP4 SUB DUP2 DUP6 DUP9 DUP1 EXTCODESIZE ISZERO DUP1 ISZERO PUSH2 0x10E2 JUMPI PUSH1 0x0 DUP1 REVERT JUMPDEST POP GAS CALL ISZERO DUP1 ISZERO PUSH2 0x10F6 JUMPI RETURNDATASIZE PUSH1 0x0 DUP1 RETURNDATACOPY RETURNDATASIZE PUSH1 0x0 REVERT JUMPDEST POP POP POP POP POP POP JUMPDEST PUSH1 0x1 ADD PUSH2 0xFFF JUMP JUMPDEST POP CALLER PUSH1 0x1 PUSH1 0x1 PUSH1 0xA0 SHL SUB AND PUSH4 0x8E9E7099 PUSH1 0x40 MLOAD DUP2 PUSH4 0xFFFFFFFF AND PUSH1 0xE0 SHL DUP2 MSTORE PUSH1 0x4 ADD PUSH1 0x0 PUSH1 0x40 MLOAD DUP1 DUP4 SUB DUP2 DUP7 GAS STATICCALL ISZERO DUP1 ISZERO PUSH2 0x1144 JUMPI RETURNDATASIZE PUSH1 0x0 DUP1 RETURNDATACOPY RETURNDATASIZE PUSH1 0x0 REVERT JUMPDEST POP POP POP POP PUSH1 0x40 MLOAD RETURNDATASIZE PUSH1 0x0 DUP3 RETURNDATACOPY PUSH1 0x1F RETURNDATASIZE SWAP1 DUP2 ADD PUSH1 0x1F NOT AND DUP3 ADD PUSH1 0x40 MSTORE PUSH2 0x116C SWAP2 SWAP1 DUP2 ADD SWAP1 PUSH2 0x2F3E JUMP JUMPDEST PUSH1 0x40 MLOAD PUSH4 0x8351EEA7 PUSH1 0xE0 SHL DUP2 MSTORE PUSH1 0x4 ADD PUSH2 0x9E1 SWAP2 SWAP1 PUSH2 0x254F JUMP JUMPDEST PUSH2 0x118E PUSH2 0x24B8 JUMP JUMPDEST PUSH1 0x40 DUP1 MLOAD DUP1 DUP3 ADD SWAP1 SWAP2 MSTORE PUSH1 0x0 DUP1 DUP3 MSTORE PUSH1 0x20 DUP3 ADD MSTORE PUSH1 0x0 DUP1 PUSH2 0x11C4 PUSH1 0x40 DUP9 ADD CALLDATALOAD PUSH1 0x60 DUP10 ADD CALLDATALOAD PUSH2 0x11BF PUSH1 0x20 DUP12 ADD DUP12 PUSH2 0x2954 JUMP JUMPDEST PUSH2 0x1C84 JUMP JUMPDEST SWAP2 POP SWAP2 POP PUSH1 0x0 DUP1 PUSH2 0x11D5 DUP10 DUP5 PUSH2 0x19E8 JUMP JUMPDEST SWAP1 SWAP3 POP SWAP1 POP PUSH2 0x1201 PUSH2 0x11EA PUSH1 0x20 DUP12 ADD DUP12 PUSH2 0x2954 JUMP JUMPDEST DUP4 DUP4 PUSH2 0x11FB CALLDATASIZE DUP14 SWAP1 SUB DUP14 ADD DUP14 PUSH2 0x2FDF JUMP JUMPDEST DUP12 PUSH2 0x1CA1 JUMP JUMPDEST PUSH1 0x40 DUP1 MLOAD DUP1 DUP3 ADD SWAP1 SWAP2 MSTORE DUP6 DUP2 MSTORE PUSH1 0x20 DUP1 DUP3 ADD DUP7 SWAP1 MSTORE DUP3 MLOAD SWAP3 SWAP9 POP SWAP1 SWAP7 POP CALLER SWAP2 SWAP1 PUSH32 0xFFF873BB909B73D08A8C1AF4B21779E87103BB8EA8CF3B3A0067EB8526B8B80A SWAP1 PUSH2 0x124F SWAP1 DUP14 ADD DUP14 PUSH2 0x2954 JUMP JUMPDEST PUSH1 0x40 DUP1 MLOAD PUSH4 0xFFFFFFFF SWAP1 SWAP3 AND DUP3 MSTORE PUSH1 0x20 DUP3 ADD DUP10 SWAP1 MSTORE ADD PUSH1 0x40 MLOAD DUP1 SWAP2 SUB SWAP1 LOG3 POP POP POP POP SWAP4 POP SWAP4 SWAP2 POP POP JUMP JUMPDEST PUSH2 0x1281 PUSH2 0x198E JUMP JUMPDEST PUSH1 0x40 MLOAD PUSH4 0xCA5EB5E1 PUSH1 0xE0 SHL DUP2 MSTORE PUSH1 0x1 PUSH1 0x1 PUSH1 0xA0 SHL SUB DUP3 DUP2 AND PUSH1 0x4 DUP4 ADD MSTORE PUSH32 0x0 AND SWAP1 PUSH4 0xCA5EB5E1 SWAP1 PUSH1 0x24 ADD PUSH1 0x0 PUSH1 0x40 MLOAD DUP1 DUP4 SUB DUP2 PUSH1 0x0 DUP8 DUP1 EXTCODESIZE ISZERO DUP1 ISZERO PUSH2 0x12E4 JUMPI PUSH1 0x0 DUP1 REVERT JUMPDEST POP GAS CALL ISZERO DUP1 ISZERO PUSH2 0x12F8 JUMPI RETURNDATASIZE PUSH1 0x0 DUP1 RETURNDATACOPY RETURNDATASIZE PUSH1 0x0 REVERT JUMPDEST POP POP POP POP POP JUMP JUMPDEST CALLER ADDRESS EQ PUSH2 0x131F JUMPI PUSH1 0x40 MLOAD PUSH4 0x29A949D PUSH1 0xE3 SHL DUP2 MSTORE PUSH1 0x4 ADD PUSH1 0x40 MLOAD DUP1 SWAP2 SUB SWAP1 REVERT JUMPDEST PUSH2 0xA51 DUP8 DUP8 DUP8 DUP8 DUP8 DUP8 DUP8 PUSH2 0xA42 JUMP JUMPDEST PUSH2 0x1336 PUSH2 0x198E JUMP JUMPDEST PUSH1 0x2 DUP1 SLOAD PUSH1 0x1 PUSH1 0x1 PUSH1 0xA0 SHL SUB NOT AND PUSH1 0x1 PUSH1 0x1 PUSH1 0xA0 SHL SUB DUP4 AND SWAP1 DUP2 OR SWAP1 SWAP2 SSTORE PUSH1 0x40 MLOAD SWAP1 DUP2 MSTORE PUSH32 0xD48D879CEF83A1C0BDDA516F27B13DDB1B3F8BBAC1C9E1511BB2A659C2427760 SWAP1 PUSH1 0x20 ADD PUSH2 0xC5E JUMP JUMPDEST PUSH1 0x1 PUSH1 0x1 PUSH1 0xA0 SHL SUB SWAP2 DUP3 AND PUSH1 0x0 SWAP1 DUP2 MSTORE PUSH1 0x6 PUSH1 0x20 SWAP1 DUP2 MSTORE PUSH1 0x40 DUP1 DUP4 KECCAK256 SWAP4 SWAP1 SWAP5 AND DUP3 MSTORE SWAP2 SWAP1 SWAP2 MSTORE KECCAK256 SLOAD SWAP1 JUMP JUMPDEST PUSH2 0x13B7 PUSH2 0x198E JUMP JUMPDEST PUSH1 0x1 PUSH1 0x1 PUSH1 0xA0 SHL SUB DUP2 AND PUSH2 0x141C JUMPI PUSH1 0x40 MLOAD PUSH3 0x461BCD PUSH1 0xE5 SHL DUP2 MSTORE PUSH1 0x20 PUSH1 0x4 DUP3 ADD MSTORE PUSH1 0x26 PUSH1 0x24 DUP3 ADD MSTORE PUSH32 0x4F776E61626C653A206E6577206F776E657220697320746865207A65726F2061 PUSH1 0x44 DUP3 ADD MSTORE PUSH6 0x646472657373 PUSH1 0xD0 SHL PUSH1 0x64 DUP3 ADD MSTORE PUSH1 0x84 ADD PUSH2 0x9E1 JUMP JUMPDEST PUSH2 0x1425 DUP2 PUSH2 0x1BED JUMP JUMPDEST POP JUMP JUMPDEST PUSH1 0x0 PUSH1 0x20 DUP3 ADD DUP1 CALLDATALOAD SWAP1 PUSH1 0x1 SWAP1 DUP4 SWAP1 PUSH2 0x1440 SWAP1 DUP7 PUSH2 0x2954 JUMP JUMPDEST PUSH4 0xFFFFFFFF AND DUP2 MSTORE PUSH1 0x20 DUP2 ADD SWAP2 SWAP1 SWAP2 MSTORE PUSH1 0x40 ADD PUSH1 0x0 KECCAK256 SLOAD EQ SWAP3 SWAP2 POP POP JUMP JUMPDEST PUSH1 0x1 PUSH1 0x1 PUSH1 0xA0 SHL SUB DUP4 AND PUSH2 0x14C0 JUMPI PUSH1 0x40 MLOAD PUSH3 0x461BCD PUSH1 0xE5 SHL DUP2 MSTORE PUSH1 0x20 PUSH1 0x4 DUP3 ADD MSTORE PUSH1 0x24 DUP1 DUP3 ADD MSTORE PUSH32 0x45524332303A20617070726F76652066726F6D20746865207A65726F20616464 PUSH1 0x44 DUP3 ADD MSTORE PUSH4 0x72657373 PUSH1 0xE0 SHL PUSH1 0x64 DUP3 ADD MSTORE PUSH1 0x84 ADD PUSH2 0x9E1 JUMP JUMPDEST PUSH1 0x1 PUSH1 0x1 PUSH1 0xA0 SHL SUB DUP3 AND PUSH2 0x1521 JUMPI PUSH1 0x40 MLOAD PUSH3 0x461BCD PUSH1 0xE5 SHL DUP2 MSTORE PUSH1 0x20 PUSH1 0x4 DUP3 ADD MSTORE PUSH1 0x22 PUSH1 0x24 DUP3 ADD MSTORE PUSH32 0x45524332303A20617070726F766520746F20746865207A65726F206164647265 PUSH1 0x44 DUP3 ADD MSTORE PUSH2 0x7373 PUSH1 0xF0 SHL PUSH1 0x64 DUP3 ADD MSTORE PUSH1 0x84 ADD PUSH2 0x9E1 JUMP JUMPDEST PUSH1 0x1 PUSH1 0x1 PUSH1 0xA0 SHL SUB DUP4 DUP2 AND PUSH1 0x0 DUP2 DUP2 MSTORE PUSH1 0x6 PUSH1 0x20 SWAP1 DUP2 MSTORE PUSH1 0x40 DUP1 DUP4 KECCAK256 SWAP5 DUP8 AND DUP1 DUP5 MSTORE SWAP5 DUP3 MSTORE SWAP2 DUP3 SWAP1 KECCAK256 DUP6 SWAP1 SSTORE SWAP1 MLOAD DUP5 DUP2 MSTORE PUSH32 0x8C5BE1E5EBEC7D5BD14F71427D1E84F3DD0314C0F7B2291E5B200AC8C7C3B925 SWAP2 ADD PUSH1 0x40 MLOAD DUP1 SWAP2 SUB SWAP1 LOG3 POP POP POP JUMP JUMPDEST PUSH1 0x0 DUP1 PUSH2 0x158E DUP6 PUSH2 0x1DAC JUMP JUMPDEST SWAP2 POP DUP2 SWAP1 POP DUP4 DUP2 LT ISZERO PUSH2 0x15BE JUMPI PUSH1 0x40 MLOAD PUSH4 0x71C4EFED PUSH1 0xE0 SHL DUP2 MSTORE PUSH1 0x4 DUP2 ADD DUP3 SWAP1 MSTORE PUSH1 0x24 DUP2 ADD DUP6 SWAP1 MSTORE PUSH1 0x44 ADD PUSH2 0x9E1 JUMP JUMPDEST SWAP4 POP SWAP4 SWAP2 POP POP JUMP JUMPDEST PUSH4 0xFFFFFFFF DUP2 AND PUSH1 0x0 SWAP1 DUP2 MSTORE PUSH1 0x1 PUSH1 0x20 MSTORE PUSH1 0x40 DUP2 KECCAK256 SLOAD DUP1 PUSH2 0x8C3 JUMPI PUSH1 0x40 MLOAD PUSH4 0xF6FF4FB7 PUSH1 0xE0 SHL DUP2 MSTORE PUSH4 0xFFFFFFFF DUP5 AND PUSH1 0x4 DUP3 ADD MSTORE PUSH1 0x24 ADD PUSH2 0x9E1 JUMP JUMPDEST PUSH1 0x0 PUSH2 0x1614 PUSH2 0x1611 DUP8 DUP8 PUSH2 0x1DE3 JUMP JUMPDEST SWAP1 JUMP JUMPDEST SWAP1 POP PUSH1 0x0 PUSH2 0x1640 DUP3 PUSH2 0x162E PUSH2 0x1629 DUP11 DUP11 PUSH2 0x1DFB JUMP JUMPDEST PUSH2 0x1E1E JUMP JUMPDEST PUSH2 0x163B PUSH1 0x20 DUP14 ADD DUP14 PUSH2 0x2954 JUMP JUMPDEST PUSH2 0x1E53 JUMP JUMPDEST SWAP1 POP PUSH1 0x28 DUP7 GT ISZERO PUSH2 0x1707 JUMPI PUSH1 0x0 PUSH2 0x167D PUSH2 0x1660 PUSH1 0x60 DUP13 ADD PUSH1 0x40 DUP14 ADD PUSH2 0x3011 JUMP JUMPDEST PUSH2 0x166D PUSH1 0x20 DUP14 ADD DUP14 PUSH2 0x2954 JUMP JUMPDEST DUP5 PUSH2 0x1678 DUP13 DUP13 PUSH2 0x1E67 JUMP JUMPDEST PUSH2 0x1EB2 JUMP JUMPDEST PUSH1 0x40 MLOAD PUSH4 0x3E5AC809 PUSH1 0xE1 SHL DUP2 MSTORE SWAP1 SWAP2 POP PUSH1 0x1 PUSH1 0x1 PUSH1 0xA0 SHL SUB PUSH32 0x0 AND SWAP1 PUSH4 0x7CB59012 SWAP1 PUSH2 0x16D3 SWAP1 DUP7 SWAP1 DUP14 SWAP1 PUSH1 0x0 SWAP1 DUP8 SWAP1 PUSH1 0x4 ADD PUSH2 0x302E JUMP JUMPDEST PUSH1 0x0 PUSH1 0x40 MLOAD DUP1 DUP4 SUB DUP2 PUSH1 0x0 DUP8 DUP1 EXTCODESIZE ISZERO DUP1 ISZERO PUSH2 0x16ED JUMPI PUSH1 0x0 DUP1 REVERT JUMPDEST POP GAS CALL ISZERO DUP1 ISZERO PUSH2 0x1701 JUMPI RETURNDATASIZE PUSH1 0x0 DUP1 RETURNDATACOPY RETURNDATASIZE PUSH1 0x0 REVERT JUMPDEST POP POP POP POP POP JUMPDEST PUSH1 0x1 PUSH1 0x1 PUSH1 0xA0 SHL SUB DUP3 AND DUP9 PUSH32 0xEFED6D3500546B29533B128A29E3A94D70788727F0507505AC12EAF2E578FD9C PUSH2 0x1740 PUSH1 0x20 DUP14 ADD DUP14 PUSH2 0x2954 JUMP JUMPDEST PUSH1 0x40 DUP1 MLOAD PUSH4 0xFFFFFFFF SWAP1 SWAP3 AND DUP3 MSTORE PUSH1 0x20 DUP3 ADD DUP7 SWAP1 MSTORE ADD PUSH1 0x40 MLOAD DUP1 SWAP2 SUB SWAP1 LOG3 POP POP POP POP POP POP POP POP POP JUMP JUMPDEST PUSH1 0x0 PUSH2 0x1775 DUP5 DUP5 PUSH2 0x1384 JUMP JUMPDEST SWAP1 POP PUSH1 0x0 NOT DUP2 EQ PUSH2 0x17DD JUMPI DUP2 DUP2 LT ISZERO PUSH2 0x17D0 JUMPI PUSH1 0x40 MLOAD PUSH3 0x461BCD PUSH1 0xE5 SHL DUP2 MSTORE PUSH1 0x20 PUSH1 0x4 DUP3 ADD MSTORE PUSH1 0x1D PUSH1 0x24 DUP3 ADD MSTORE PUSH32 0x45524332303A20696E73756666696369656E7420616C6C6F77616E6365000000 PUSH1 0x44 DUP3 ADD MSTORE PUSH1 0x64 ADD PUSH2 0x9E1 JUMP JUMPDEST PUSH2 0x17DD DUP5 DUP5 DUP5 DUP5 SUB PUSH2 0x145E JUMP JUMPDEST POP POP POP POP JUMP JUMPDEST PUSH1 0x1 PUSH1 0x1 PUSH1 0xA0 SHL SUB DUP4 AND PUSH2 0x1847 JUMPI PUSH1 0x40 MLOAD PUSH3 0x461BCD PUSH1 0xE5 SHL DUP2 MSTORE PUSH1 0x20 PUSH1 0x4 DUP3 ADD MSTORE PUSH1 0x25 PUSH1 0x24 DUP3 ADD MSTORE PUSH32 0x45524332303A207472616E736665722066726F6D20746865207A65726F206164 PUSH1 0x44 DUP3 ADD MSTORE PUSH5 0x6472657373 PUSH1 0xD8 SHL PUSH1 0x64 DUP3 ADD MSTORE PUSH1 0x84 ADD PUSH2 0x9E1 JUMP JUMPDEST PUSH1 0x1 PUSH1 0x1 PUSH1 0xA0 SHL SUB DUP3 AND PUSH2 0x18A9 JUMPI PUSH1 0x40 MLOAD PUSH3 0x461BCD PUSH1 0xE5 SHL DUP2 MSTORE PUSH1 0x20 PUSH1 0x4 DUP3 ADD MSTORE PUSH1 0x23 PUSH1 0x24 DUP3 ADD MSTORE PUSH32 0x45524332303A207472616E7366657220746F20746865207A65726F2061646472 PUSH1 0x44 DUP3 ADD MSTORE PUSH3 0x657373 PUSH1 0xE8 SHL PUSH1 0x64 DUP3 ADD MSTORE PUSH1 0x84 ADD PUSH2 0x9E1 JUMP JUMPDEST PUSH1 0x1 PUSH1 0x1 PUSH1 0xA0 SHL SUB DUP4 AND PUSH1 0x0 SWAP1 DUP2 MSTORE PUSH1 0x5 PUSH1 0x20 MSTORE PUSH1 0x40 SWAP1 KECCAK256 SLOAD DUP2 DUP2 LT ISZERO PUSH2 0x1921 JUMPI PUSH1 0x40 MLOAD PUSH3 0x461BCD PUSH1 0xE5 SHL DUP2 MSTORE PUSH1 0x20 PUSH1 0x4 DUP3 ADD MSTORE PUSH1 0x26 PUSH1 0x24 DUP3 ADD MSTORE PUSH32 0x45524332303A207472616E7366657220616D6F756E7420657863656564732062 PUSH1 0x44 DUP3 ADD MSTORE PUSH6 0x616C616E6365 PUSH1 0xD0 SHL PUSH1 0x64 DUP3 ADD MSTORE PUSH1 0x84 ADD PUSH2 0x9E1 JUMP JUMPDEST PUSH1 0x1 PUSH1 0x1 PUSH1 0xA0 SHL SUB DUP1 DUP6 AND PUSH1 0x0 DUP2 DUP2 MSTORE PUSH1 0x5 PUSH1 0x20 MSTORE PUSH1 0x40 DUP1 DUP3 KECCAK256 DUP7 DUP7 SUB SWAP1 SSTORE SWAP3 DUP7 AND DUP1 DUP3 MSTORE SWAP1 DUP4 SWAP1 KECCAK256 DUP1 SLOAD DUP7 ADD SWAP1 SSTORE SWAP2 MLOAD PUSH32 0xDDF252AD1BE2C89B69C2B068FC378DAA952BA7F163C4A11628F55A4DF523B3EF SWAP1 PUSH2 0x1981 SWAP1 DUP7 DUP2 MSTORE PUSH1 0x20 ADD SWAP1 JUMP JUMPDEST PUSH1 0x40 MLOAD DUP1 SWAP2 SUB SWAP1 LOG3 PUSH2 0x17DD JUMP JUMPDEST PUSH1 0x0 SLOAD PUSH1 0x1 PUSH1 0x1 PUSH1 0xA0 SHL SUB AND CALLER EQ PUSH2 0xC7B JUMPI PUSH1 0x40 MLOAD PUSH3 0x461BCD PUSH1 0xE5 SHL DUP2 MSTORE PUSH1 0x20 PUSH1 0x4 DUP3 ADD DUP2 SWAP1 MSTORE PUSH1 0x24 DUP3 ADD MSTORE PUSH32 0x4F776E61626C653A2063616C6C6572206973206E6F7420746865206F776E6572 PUSH1 0x44 DUP3 ADD MSTORE PUSH1 0x64 ADD PUSH2 0x9E1 JUMP JUMPDEST PUSH1 0x60 DUP1 PUSH1 0x0 PUSH2 0x1A45 DUP6 PUSH1 0x20 ADD CALLDATALOAD PUSH2 0x19FE DUP7 PUSH2 0x1EE4 JUMP JUMPDEST PUSH2 0x1A0B PUSH1 0xA0 DUP10 ADD DUP10 PUSH2 0x2B81 JUMP JUMPDEST DUP1 DUP1 PUSH1 0x1F ADD PUSH1 0x20 DUP1 SWAP2 DIV MUL PUSH1 0x20 ADD PUSH1 0x40 MLOAD SWAP1 DUP2 ADD PUSH1 0x40 MSTORE DUP1 SWAP4 SWAP3 SWAP2 SWAP1 DUP2 DUP2 MSTORE PUSH1 0x20 ADD DUP4 DUP4 DUP1 DUP3 DUP5 CALLDATACOPY PUSH1 0x0 SWAP3 ADD SWAP2 SWAP1 SWAP2 MSTORE POP PUSH2 0x1F10 SWAP3 POP POP POP JUMP JUMPDEST SWAP1 SWAP4 POP SWAP1 POP PUSH1 0x0 DUP2 PUSH2 0x1A58 JUMPI PUSH1 0x1 PUSH2 0x1A5B JUMP JUMPDEST PUSH1 0x2 JUMPDEST SWAP1 POP PUSH2 0x1A7B PUSH2 0x1A6D PUSH1 0x20 DUP9 ADD DUP9 PUSH2 0x2954 JUMP JUMPDEST DUP3 PUSH2 0x731 PUSH1 0x80 DUP11 ADD DUP11 PUSH2 0x2B81 JUMP JUMPDEST PUSH1 0x4 SLOAD SWAP1 SWAP4 POP PUSH1 0x1 PUSH1 0x1 PUSH1 0xA0 SHL SUB AND ISZERO PUSH2 0x1B03 JUMPI PUSH1 0x4 DUP1 SLOAD PUSH1 0x40 MLOAD PUSH4 0x43A78EB PUSH1 0xE0 SHL DUP2 MSTORE PUSH1 0x1 PUSH1 0x1 PUSH1 0xA0 SHL SUB SWAP1 SWAP2 AND SWAP2 PUSH4 0x43A78EB SWAP2 PUSH2 0x1AC0 SWAP2 DUP9 SWAP2 DUP9 SWAP2 ADD PUSH2 0x305F JUMP JUMPDEST PUSH1 0x20 PUSH1 0x40 MLOAD DUP1 DUP4 SUB DUP2 DUP7 GAS STATICCALL ISZERO DUP1 ISZERO PUSH2 0x1ADD JUMPI RETURNDATASIZE PUSH1 0x0 DUP1 RETURNDATACOPY RETURNDATASIZE PUSH1 0x0 REVERT JUMPDEST POP POP POP POP PUSH1 0x40 MLOAD RETURNDATASIZE PUSH1 0x1F NOT PUSH1 0x1F DUP3 ADD AND DUP3 ADD DUP1 PUSH1 0x40 MSTORE POP DUP2 ADD SWAP1 PUSH2 0x1B01 SWAP2 SWAP1 PUSH2 0x3084 JUMP JUMPDEST POP JUMPDEST POP POP SWAP3 POP SWAP3 SWAP1 POP JUMP JUMPDEST PUSH1 0x40 DUP1 MLOAD DUP1 DUP3 ADD SWAP1 SWAP2 MSTORE PUSH1 0x0 DUP1 DUP3 MSTORE PUSH1 0x20 DUP3 ADD MSTORE PUSH32 0x0 PUSH1 0x1 PUSH1 0x1 PUSH1 0xA0 SHL SUB AND PUSH4 0xDDC28C58 PUSH1 0x40 MLOAD DUP1 PUSH1 0xA0 ADD PUSH1 0x40 MSTORE DUP1 DUP9 PUSH4 0xFFFFFFFF AND DUP2 MSTORE PUSH1 0x20 ADD PUSH2 0x1B6F DUP10 PUSH2 0x15C6 JUMP JUMPDEST DUP2 MSTORE PUSH1 0x20 ADD DUP8 DUP2 MSTORE PUSH1 0x20 ADD DUP7 DUP2 MSTORE PUSH1 0x20 ADD DUP6 ISZERO ISZERO DUP2 MSTORE POP ADDRESS PUSH1 0x40 MLOAD DUP4 PUSH4 0xFFFFFFFF AND PUSH1 0xE0 SHL DUP2 MSTORE PUSH1 0x4 ADD PUSH2 0x1BA4 SWAP3 SWAP2 SWAP1 PUSH2 0x30A1 JUMP JUMPDEST PUSH1 0x40 DUP1 MLOAD DUP1 DUP4 SUB DUP2 DUP7 GAS STATICCALL ISZERO DUP1 ISZERO PUSH2 0x1BC0 JUMPI RETURNDATASIZE PUSH1 0x0 DUP1 RETURNDATACOPY RETURNDATASIZE PUSH1 0x0 REVERT JUMPDEST POP POP POP POP PUSH1 0x40 MLOAD RETURNDATASIZE PUSH1 0x1F NOT PUSH1 0x1F DUP3 ADD AND DUP3 ADD DUP1 PUSH1 0x40 MSTORE POP DUP2 ADD SWAP1 PUSH2 0x1BE4 SWAP2 SWAP1 PUSH2 0x314A JUMP JUMPDEST SWAP6 SWAP5 POP POP POP POP POP JUMP JUMPDEST PUSH1 0x0 DUP1 SLOAD PUSH1 0x1 PUSH1 0x1 PUSH1 0xA0 SHL SUB DUP4 DUP2 AND PUSH1 0x1 PUSH1 0x1 PUSH1 0xA0 SHL SUB NOT DUP4 AND DUP2 OR DUP5 SSTORE PUSH1 0x40 MLOAD SWAP2 SWAP1 SWAP3 AND SWAP3 DUP4 SWAP2 PUSH32 0x8BE0079C531659141344CD1FD0A4F28419497F9722A3DAAFE3B4186F6B6457E0 SWAP2 SWAP1 LOG3 POP POP JUMP JUMPDEST PUSH1 0x0 PUSH2 0x1C4C PUSH1 0x2 DUP3 DUP5 DUP7 PUSH2 0x2DFE JUMP JUMPDEST PUSH2 0x1C55 SWAP2 PUSH2 0x3166 JUMP JUMPDEST PUSH1 0xF0 SHR SWAP1 POP PUSH1 0x3 DUP2 EQ PUSH2 0x1C7F JUMPI DUP3 DUP3 PUSH1 0x40 MLOAD PUSH4 0x9A6D49CD PUSH1 0xE0 SHL DUP2 MSTORE PUSH1 0x4 ADD PUSH2 0x9E1 SWAP3 SWAP2 SWAP1 PUSH2 0x2E50 JUMP JUMPDEST POP POP POP JUMP JUMPDEST PUSH1 0x0 DUP1 PUSH2 0x1C92 DUP6 DUP6 DUP6 PUSH2 0x1582 JUMP JUMPDEST SWAP1 SWAP3 POP SWAP1 POP PUSH2 0x15BE CALLER DUP4 PUSH2 0x1F8A JUMP JUMPDEST PUSH2 0x1CA9 PUSH2 0x24B8 JUMP JUMPDEST PUSH1 0x0 PUSH2 0x1CB8 DUP5 PUSH1 0x0 ADD MLOAD PUSH2 0x20BE JUMP JUMPDEST PUSH1 0x20 DUP6 ADD MLOAD SWAP1 SWAP2 POP ISZERO PUSH2 0x1CD2 JUMPI PUSH2 0x1CD2 DUP5 PUSH1 0x20 ADD MLOAD PUSH2 0x20E6 JUMP JUMPDEST PUSH32 0x0 PUSH1 0x1 PUSH1 0x1 PUSH1 0xA0 SHL SUB AND PUSH4 0x2637A450 DUP3 PUSH1 0x40 MLOAD DUP1 PUSH1 0xA0 ADD PUSH1 0x40 MSTORE DUP1 DUP12 PUSH4 0xFFFFFFFF AND DUP2 MSTORE PUSH1 0x20 ADD PUSH2 0x1D22 DUP13 PUSH2 0x15C6 JUMP JUMPDEST DUP2 MSTORE PUSH1 0x20 ADD DUP11 DUP2 MSTORE PUSH1 0x20 ADD DUP10 DUP2 MSTORE PUSH1 0x20 ADD PUSH1 0x0 DUP10 PUSH1 0x20 ADD MLOAD GT ISZERO ISZERO DUP2 MSTORE POP DUP7 PUSH1 0x40 MLOAD DUP5 PUSH4 0xFFFFFFFF AND PUSH1 0xE0 SHL DUP2 MSTORE PUSH1 0x4 ADD PUSH2 0x1D5E SWAP3 SWAP2 SWAP1 PUSH2 0x30A1 JUMP JUMPDEST PUSH1 0x80 PUSH1 0x40 MLOAD DUP1 DUP4 SUB DUP2 DUP6 DUP9 GAS CALL ISZERO DUP1 ISZERO PUSH2 0x1D7C JUMPI RETURNDATASIZE PUSH1 0x0 DUP1 RETURNDATACOPY RETURNDATASIZE PUSH1 0x0 REVERT JUMPDEST POP POP POP POP POP PUSH1 0x40 MLOAD RETURNDATASIZE PUSH1 0x1F NOT PUSH1 0x1F DUP3 ADD AND DUP3 ADD DUP1 PUSH1 0x40 MSTORE POP DUP2 ADD SWAP1 PUSH2 0x1DA1 SWAP2 SWAP1 PUSH2 0x3196 JUMP JUMPDEST SWAP8 SWAP7 POP POP POP POP POP POP POP JUMP JUMPDEST PUSH1 0x0 PUSH32 0x0 PUSH2 0x1DD9 DUP2 DUP5 PUSH2 0x31FD JUMP JUMPDEST PUSH2 0x8C3 SWAP2 SWAP1 PUSH2 0x321F JUMP JUMPDEST PUSH1 0x0 PUSH2 0x1DF2 PUSH1 0x20 DUP3 DUP5 DUP7 PUSH2 0x2DFE JUMP JUMPDEST PUSH2 0xA79 SWAP2 PUSH2 0x3236 JUMP JUMPDEST PUSH1 0x0 PUSH2 0x1E0B PUSH1 0x28 PUSH1 0x20 DUP5 DUP7 PUSH2 0x2DFE JUMP JUMPDEST PUSH2 0x1E14 SWAP2 PUSH2 0x3254 JUMP JUMPDEST PUSH1 0xC0 SHR SWAP4 SWAP3 POP POP POP JUMP JUMPDEST PUSH1 0x0 PUSH2 0x8C3 PUSH32 0x0 PUSH1 0x1 PUSH1 0x1 PUSH1 0x40 SHL SUB DUP5 AND PUSH2 0x321F JUMP JUMPDEST PUSH1 0x0 PUSH2 0x1E5F DUP5 DUP5 PUSH2 0x21CC JUMP JUMPDEST POP SWAP1 SWAP3 SWAP2 POP POP JUMP JUMPDEST PUSH1 0x60 PUSH2 0x1E76 DUP3 PUSH1 0x28 DUP2 DUP7 PUSH2 0x2DFE JUMP JUMPDEST DUP1 DUP1 PUSH1 0x1F ADD PUSH1 0x20 DUP1 SWAP2 DIV MUL PUSH1 0x20 ADD PUSH1 0x40 MLOAD SWAP1 DUP2 ADD PUSH1 0x40 MSTORE DUP1 SWAP4 SWAP3 SWAP2 SWAP1 DUP2 DUP2 MSTORE PUSH1 0x20 ADD DUP4 DUP4 DUP1 DUP3 DUP5 CALLDATACOPY PUSH1 0x0 SWAP3 ADD SWAP2 SWAP1 SWAP2 MSTORE POP SWAP3 SWAP7 SWAP6 POP POP POP POP POP POP JUMP JUMPDEST PUSH1 0x60 DUP5 DUP5 DUP5 DUP5 PUSH1 0x40 MLOAD PUSH1 0x20 ADD PUSH2 0x1ECB SWAP5 SWAP4 SWAP3 SWAP2 SWAP1 PUSH2 0x3282 JUMP JUMPDEST PUSH1 0x40 MLOAD PUSH1 0x20 DUP2 DUP4 SUB SUB DUP2 MSTORE SWAP1 PUSH1 0x40 MSTORE SWAP1 POP SWAP5 SWAP4 POP POP POP POP JUMP JUMPDEST PUSH1 0x0 PUSH2 0x8C3 PUSH32 0x0 DUP4 PUSH2 0x31FD JUMP JUMPDEST DUP1 MLOAD PUSH1 0x60 SWAP1 ISZERO ISZERO DUP1 PUSH2 0x1F59 JUMPI DUP5 DUP5 PUSH1 0x40 MLOAD PUSH1 0x20 ADD PUSH2 0x1F45 SWAP3 SWAP2 SWAP1 SWAP2 DUP3 MSTORE PUSH1 0xC0 SHL PUSH1 0x1 PUSH1 0x1 PUSH1 0xC0 SHL SUB NOT AND PUSH1 0x20 DUP3 ADD MSTORE PUSH1 0x28 ADD SWAP1 JUMP JUMPDEST PUSH1 0x40 MLOAD PUSH1 0x20 DUP2 DUP4 SUB SUB DUP2 MSTORE SWAP1 PUSH1 0x40 MSTORE PUSH2 0x1F80 JUMP JUMPDEST DUP5 DUP5 CALLER DUP6 PUSH1 0x40 MLOAD PUSH1 0x20 ADD PUSH2 0x1F70 SWAP5 SWAP4 SWAP3 SWAP2 SWAP1 PUSH2 0x32D1 JUMP JUMPDEST PUSH1 0x40 MLOAD PUSH1 0x20 DUP2 DUP4 SUB SUB DUP2 MSTORE SWAP1 PUSH1 0x40 MSTORE JUMPDEST SWAP2 POP SWAP4 POP SWAP4 SWAP2 POP POP JUMP JUMPDEST PUSH1 0x1 PUSH1 0x1 PUSH1 0xA0 SHL SUB DUP3 AND PUSH2 0x1FEA JUMPI PUSH1 0x40 MLOAD PUSH3 0x461BCD PUSH1 0xE5 SHL DUP2 MSTORE PUSH1 0x20 PUSH1 0x4 DUP3 ADD MSTORE PUSH1 0x21 PUSH1 0x24 DUP3 ADD MSTORE PUSH32 0x45524332303A206275726E2066726F6D20746865207A65726F20616464726573 PUSH1 0x44 DUP3 ADD MSTORE PUSH1 0x73 PUSH1 0xF8 SHL PUSH1 0x64 DUP3 ADD MSTORE PUSH1 0x84 ADD PUSH2 0x9E1 JUMP JUMPDEST PUSH1 0x1 PUSH1 0x1 PUSH1 0xA0 SHL SUB DUP3 AND PUSH1 0x0 SWAP1 DUP2 MSTORE PUSH1 0x5 PUSH1 0x20 MSTORE PUSH1 0x40 SWAP1 KECCAK256 SLOAD DUP2 DUP2 LT ISZERO PUSH2 0x205E JUMPI PUSH1 0x40 MLOAD PUSH3 0x461BCD PUSH1 0xE5 SHL DUP2 MSTORE PUSH1 0x20 PUSH1 0x4 DUP3 ADD MSTORE PUSH1 0x22 PUSH1 0x24 DUP3 ADD MSTORE PUSH32 0x45524332303A206275726E20616D6F756E7420657863656564732062616C616E PUSH1 0x44 DUP3 ADD MSTORE PUSH2 0x6365 PUSH1 0xF0 SHL PUSH1 0x64 DUP3 ADD MSTORE PUSH1 0x84 ADD PUSH2 0x9E1 JUMP JUMPDEST PUSH1 0x1 PUSH1 0x1 PUSH1 0xA0 SHL SUB DUP4 AND PUSH1 0x0 DUP2 DUP2 MSTORE PUSH1 0x5 PUSH1 0x20 SWAP1 DUP2 MSTORE PUSH1 0x40 DUP1 DUP4 KECCAK256 DUP7 DUP7 SUB SWAP1 SSTORE PUSH1 0x7 DUP1 SLOAD DUP8 SWAP1 SUB SWAP1 SSTORE MLOAD DUP6 DUP2 MSTORE SWAP2 SWAP3 SWAP2 PUSH32 0xDDF252AD1BE2C89B69C2B068FC378DAA952BA7F163C4A11628F55A4DF523B3EF SWAP2 ADD PUSH1 0x40 MLOAD DUP1 SWAP2 SUB SWAP1 LOG3 POP POP POP JUMP JUMPDEST PUSH1 0x0 DUP2 CALLVALUE EQ PUSH2 0x20E2 JUMPI PUSH1 0x40 MLOAD PUSH4 0x4FB8209 PUSH1 0xE5 SHL DUP2 MSTORE CALLVALUE PUSH1 0x4 DUP3 ADD MSTORE PUSH1 0x24 ADD PUSH2 0x9E1 JUMP JUMPDEST POP SWAP1 JUMP JUMPDEST PUSH1 0x0 PUSH32 0x0 PUSH1 0x1 PUSH1 0x1 PUSH1 0xA0 SHL SUB AND PUSH4 0xE4FE1D94 PUSH1 0x40 MLOAD DUP2 PUSH4 0xFFFFFFFF AND PUSH1 0xE0 SHL DUP2 MSTORE PUSH1 0x4 ADD PUSH1 0x20 PUSH1 0x40 MLOAD DUP1 DUP4 SUB DUP2 DUP7 GAS STATICCALL ISZERO DUP1 ISZERO PUSH2 0x2146 JUMPI RETURNDATASIZE PUSH1 0x0 DUP1 RETURNDATACOPY RETURNDATASIZE PUSH1 0x0 REVERT JUMPDEST POP POP POP POP PUSH1 0x40 MLOAD RETURNDATASIZE PUSH1 0x1F NOT PUSH1 0x1F DUP3 ADD AND DUP3 ADD DUP1 PUSH1 0x40 MSTORE POP DUP2 ADD SWAP1 PUSH2 0x216A SWAP2 SWAP1 PUSH2 0x3314 JUMP JUMPDEST SWAP1 POP PUSH1 0x1 PUSH1 0x1 PUSH1 0xA0 SHL SUB DUP2 AND PUSH2 0x2193 JUMPI PUSH1 0x40 MLOAD PUSH4 0x29B99A95 PUSH1 0xE1 SHL DUP2 MSTORE PUSH1 0x4 ADD PUSH1 0x40 MLOAD DUP1 SWAP2 SUB SWAP1 REVERT JUMPDEST PUSH2 0x21C8 PUSH1 0x1 PUSH1 0x1 PUSH1 0xA0 SHL SUB DUP3 AND CALLER PUSH32 0x0 DUP6 PUSH2 0x228D JUMP JUMPDEST POP POP JUMP JUMPDEST PUSH1 0x1 PUSH1 0x1 PUSH1 0xA0 SHL SUB DUP3 AND PUSH2 0x2222 JUMPI PUSH1 0x40 MLOAD PUSH3 0x461BCD PUSH1 0xE5 SHL DUP2 MSTORE PUSH1 0x20 PUSH1 0x4 DUP3 ADD MSTORE PUSH1 0x1F PUSH1 0x24 DUP3 ADD MSTORE PUSH32 0x45524332303A206D696E7420746F20746865207A65726F206164647265737300 PUSH1 0x44 DUP3 ADD MSTORE PUSH1 0x64 ADD PUSH2 0x9E1 JUMP JUMPDEST DUP1 PUSH1 0x7 PUSH1 0x0 DUP3 DUP3 SLOAD PUSH2 0x2234 SWAP2 SWAP1 PUSH2 0x2B38 JUMP JUMPDEST SWAP1 SWAP2 SSTORE POP POP PUSH1 0x1 PUSH1 0x1 PUSH1 0xA0 SHL SUB DUP3 AND PUSH1 0x0 DUP2 DUP2 MSTORE PUSH1 0x5 PUSH1 0x20 SWAP1 DUP2 MSTORE PUSH1 0x40 DUP1 DUP4 KECCAK256 DUP1 SLOAD DUP7 ADD SWAP1 SSTORE MLOAD DUP5 DUP2 MSTORE PUSH32 0xDDF252AD1BE2C89B69C2B068FC378DAA952BA7F163C4A11628F55A4DF523B3EF SWAP2 ADD PUSH1 0x40 MLOAD DUP1 SWAP2 SUB SWAP1 LOG3 POP POP JUMP JUMPDEST PUSH1 0x40 DUP1 MLOAD PUSH1 0x1 PUSH1 0x1 PUSH1 0xA0 SHL SUB DUP6 DUP2 AND PUSH1 0x24 DUP4 ADD MSTORE DUP5 DUP2 AND PUSH1 0x44 DUP4 ADD MSTORE PUSH1 0x64 DUP1 DUP4 ADD DUP6 SWAP1 MSTORE DUP4 MLOAD DUP1 DUP5 SUB SWAP1 SWAP2 ADD DUP2 MSTORE PUSH1 0x84 SWAP1 SWAP3 ADD DUP4 MSTORE PUSH1 0x20 DUP1 DUP4 ADD DUP1 MLOAD PUSH1 0x1 PUSH1 0x1 PUSH1 0xE0 SHL SUB AND PUSH4 0x23B872DD PUSH1 0xE0 SHL OR SWAP1 MSTORE DUP4 MLOAD DUP1 DUP6 ADD SWAP1 SWAP5 MSTORE DUP1 DUP5 MSTORE PUSH32 0x5361666545524332303A206C6F772D6C6576656C2063616C6C206661696C6564 SWAP1 DUP5 ADD MSTORE PUSH2 0x17DD SWAP3 DUP8 SWAP3 SWAP2 PUSH1 0x0 SWAP2 PUSH2 0x2325 SWAP2 DUP6 AND SWAP1 DUP5 SWAP1 PUSH2 0x23A5 JUMP JUMPDEST SWAP1 POP DUP1 MLOAD PUSH1 0x0 EQ DUP1 PUSH2 0x2346 JUMPI POP DUP1 DUP1 PUSH1 0x20 ADD SWAP1 MLOAD DUP2 ADD SWAP1 PUSH2 0x2346 SWAP2 SWAP1 PUSH2 0x3084 JUMP JUMPDEST PUSH2 0x1C7F JUMPI PUSH1 0x40 MLOAD PUSH3 0x461BCD PUSH1 0xE5 SHL DUP2 MSTORE PUSH1 0x20 PUSH1 0x4 DUP3 ADD MSTORE PUSH1 0x2A PUSH1 0x24 DUP3 ADD MSTORE PUSH32 0x5361666545524332303A204552433230206F7065726174696F6E20646964206E PUSH1 0x44 DUP3 ADD MSTORE PUSH10 0x1BDD081CDD58D8D95959 PUSH1 0xB2 SHL PUSH1 0x64 DUP3 ADD MSTORE PUSH1 0x84 ADD PUSH2 0x9E1 JUMP JUMPDEST PUSH1 0x60 PUSH2 0xFF4 DUP5 DUP5 PUSH1 0x0 DUP6 DUP6 PUSH1 0x0 DUP1 DUP7 PUSH1 0x1 PUSH1 0x1 PUSH1 0xA0 SHL SUB AND DUP6 DUP8 PUSH1 0x40 MLOAD PUSH2 0x23CC SWAP2 SWAP1 PUSH2 0x3331 JUMP JUMPDEST PUSH1 0x0 PUSH1 0x40 MLOAD DUP1 DUP4 SUB DUP2 DUP6 DUP8 GAS CALL SWAP3 POP POP POP RETURNDATASIZE DUP1 PUSH1 0x0 DUP2 EQ PUSH2 0x2409 JUMPI PUSH1 0x40 MLOAD SWAP2 POP PUSH1 0x1F NOT PUSH1 0x3F RETURNDATASIZE ADD AND DUP3 ADD PUSH1 0x40 MSTORE RETURNDATASIZE DUP3 MSTORE RETURNDATASIZE PUSH1 0x0 PUSH1 0x20 DUP5 ADD RETURNDATACOPY PUSH2 0x240E JUMP JUMPDEST PUSH1 0x60 SWAP2 POP JUMPDEST POP SWAP2 POP SWAP2 POP PUSH2 0x1DA1 DUP8 DUP4 DUP4 DUP8 PUSH1 0x60 DUP4 ISZERO PUSH2 0x2489 JUMPI DUP3 MLOAD PUSH1 0x0 SUB PUSH2 0x2482 JUMPI PUSH1 0x1 PUSH1 0x1 PUSH1 0xA0 SHL SUB DUP6 AND EXTCODESIZE PUSH2 0x2482 JUMPI PUSH1 0x40 MLOAD PUSH3 0x461BCD PUSH1 0xE5 SHL DUP2 MSTORE PUSH1 0x20 PUSH1 0x4 DUP3 ADD MSTORE PUSH1 0x1D PUSH1 0x24 DUP3 ADD MSTORE PUSH32 0x416464726573733A2063616C6C20746F206E6F6E2D636F6E7472616374000000 PUSH1 0x44 DUP3 ADD MSTORE PUSH1 0x64 ADD PUSH2 0x9E1 JUMP JUMPDEST POP DUP2 PUSH2 0xFF4 JUMP JUMPDEST PUSH2 0xFF4 DUP4 DUP4 DUP2 MLOAD ISZERO PUSH2 0x249E JUMPI DUP2 MLOAD DUP1 DUP4 PUSH1 0x20 ADD REVERT JUMPDEST DUP1 PUSH1 0x40 MLOAD PUSH3 0x461BCD PUSH1 0xE5 SHL DUP2 MSTORE PUSH1 0x4 ADD PUSH2 0x9E1 SWAP2 SWAP1 PUSH2 0x254F JUMP JUMPDEST PUSH1 0x40 MLOAD DUP1 PUSH1 0x60 ADD PUSH1 0x40 MSTORE DUP1 PUSH1 0x0 DUP1 NOT AND DUP2 MSTORE PUSH1 0x20 ADD PUSH1 0x0 PUSH1 0x1 PUSH1 0x1 PUSH1 0x40 SHL SUB AND DUP2 MSTORE PUSH1 0x20 ADD PUSH2 0x24FA PUSH1 0x40 MLOAD DUP1 PUSH1 0x40 ADD PUSH1 0x40 MSTORE DUP1 PUSH1 0x0 DUP2 MSTORE PUSH1 0x20 ADD PUSH1 0x0 DUP2 MSTORE POP SWAP1 JUMP JUMPDEST SWAP1 MSTORE SWAP1 JUMP JUMPDEST PUSH1 0x0 JUMPDEST DUP4 DUP2 LT ISZERO PUSH2 0x251A JUMPI DUP2 DUP2 ADD MLOAD DUP4 DUP3 ADD MSTORE PUSH1 0x20 ADD PUSH2 0x2502 JUMP JUMPDEST POP POP PUSH1 0x0 SWAP2 ADD MSTORE JUMP JUMPDEST PUSH1 0x0 DUP2 MLOAD DUP1 DUP5 MSTORE PUSH2 0x253B DUP2 PUSH1 0x20 DUP7 ADD PUSH1 0x20 DUP7 ADD PUSH2 0x24FF JUMP JUMPDEST PUSH1 0x1F ADD PUSH1 0x1F NOT AND SWAP3 SWAP1 SWAP3 ADD PUSH1 0x20 ADD SWAP3 SWAP2 POP POP JUMP JUMPDEST PUSH1 0x20 DUP2 MSTORE PUSH1 0x0 PUSH2 0xA79 PUSH1 0x20 DUP4 ADD DUP5 PUSH2 0x2523 JUMP JUMPDEST PUSH1 0x1 PUSH1 0x1 PUSH1 0xA0 SHL SUB DUP2 AND DUP2 EQ PUSH2 0x1425 JUMPI PUSH1 0x0 DUP1 REVERT JUMPDEST PUSH1 0x0 DUP1 PUSH1 0x40 DUP4 DUP6 SUB SLT ISZERO PUSH2 0x258A JUMPI PUSH1 0x0 DUP1 REVERT JUMPDEST DUP3 CALLDATALOAD PUSH2 0x2595 DUP2 PUSH2 0x2562 JUMP JUMPDEST SWAP5 PUSH1 0x20 SWAP4 SWAP1 SWAP4 ADD CALLDATALOAD SWAP4 POP POP POP JUMP JUMPDEST PUSH1 0x0 PUSH1 0xE0 DUP3 DUP5 SUB SLT ISZERO PUSH2 0x25B5 JUMPI PUSH1 0x0 DUP1 REVERT JUMPDEST POP SWAP2 SWAP1 POP JUMP JUMPDEST PUSH1 0x0 PUSH1 0x20 DUP3 DUP5 SUB SLT ISZERO PUSH2 0x25CD JUMPI PUSH1 0x0 DUP1 REVERT JUMPDEST DUP2 CALLDATALOAD PUSH1 0x1 PUSH1 0x1 PUSH1 0x40 SHL SUB DUP2 GT ISZERO PUSH2 0x25E3 JUMPI PUSH1 0x0 DUP1 REVERT JUMPDEST PUSH2 0xFF4 DUP5 DUP3 DUP6 ADD PUSH2 0x25A3 JUMP JUMPDEST DUP4 MLOAD DUP2 MSTORE PUSH1 0x20 DUP1 DUP6 ADD MLOAD SWAP1 DUP3 ADD MSTORE PUSH1 0x0 PUSH1 0xA0 DUP3 ADD PUSH1 0x40 PUSH1 0xA0 PUSH1 0x40 DUP6 ADD MSTORE DUP2 DUP7 MLOAD DUP1 DUP5 MSTORE PUSH1 0xC0 DUP7 ADD SWAP2 POP PUSH1 0xC0 DUP2 PUSH1 0x5 SHL DUP8 ADD ADD SWAP4 POP PUSH1 0x20 DUP1 DUP10 ADD PUSH1 0x0 JUMPDEST DUP4 DUP2 LT ISZERO PUSH2 0x266A JUMPI DUP9 DUP8 SUB PUSH1 0xBF NOT ADD DUP6 MSTORE DUP2 MLOAD DUP1 MLOAD DUP9 MSTORE DUP4 ADD MLOAD DUP4 DUP9 ADD DUP8 SWAP1 MSTORE PUSH2 0x2657 DUP8 DUP10 ADD DUP3 PUSH2 0x2523 JUMP JUMPDEST SWAP8 POP POP SWAP4 DUP3 ADD SWAP4 SWAP1 DUP3 ADD SWAP1 PUSH1 0x1 ADD PUSH2 0x262B JUMP JUMPDEST POP POP DUP8 MLOAD PUSH1 0x60 DUP9 ADD MSTORE POP POP POP PUSH1 0x20 DUP6 ADD MLOAD PUSH1 0x80 DUP6 ADD MSTORE POP SWAP1 POP PUSH2 0xFF4 JUMP JUMPDEST PUSH1 0x0 PUSH1 0x60 DUP3 DUP5 SUB SLT ISZERO PUSH2 0x25B5 JUMPI PUSH1 0x0 DUP1 REVERT JUMPDEST PUSH1 0x0 DUP1 DUP4 PUSH1 0x1F DUP5 ADD SLT PUSH2 0x26AC JUMPI PUSH1 0x0 DUP1 REVERT JUMPDEST POP DUP2 CALLDATALOAD PUSH1 0x1 PUSH1 0x1 PUSH1 0x40 SHL SUB DUP2 GT ISZERO PUSH2 0x26C3 JUMPI PUSH1 0x0 DUP1 REVERT JUMPDEST PUSH1 0x20 DUP4 ADD SWAP2 POP DUP4 PUSH1 0x20 DUP3 DUP6 ADD ADD GT ISZERO PUSH2 0x26DB JUMPI PUSH1 0x0 DUP1 REVERT JUMPDEST SWAP3 POP SWAP3 SWAP1 POP JUMP JUMPDEST PUSH1 0x0 DUP1 PUSH1 0x0 DUP1 PUSH1 0x0 DUP1 PUSH1 0x0 PUSH1 0xE0 DUP9 DUP11 SUB SLT ISZERO PUSH2 0x26FD JUMPI PUSH1 0x0 DUP1 REVERT JUMPDEST PUSH2 0x2707 DUP10 DUP10 PUSH2 0x2688 JUMP JUMPDEST SWAP7 POP PUSH1 0x60 DUP9 ADD CALLDATALOAD SWAP6 POP PUSH1 0x80 DUP9 ADD CALLDATALOAD PUSH1 0x1 PUSH1 0x1 PUSH1 0x40 SHL SUB DUP1 DUP3 GT ISZERO PUSH2 0x272A JUMPI PUSH1 0x0 DUP1 REVERT JUMPDEST PUSH2 0x2736 DUP12 DUP4 DUP13 ADD PUSH2 0x269A JUMP JUMPDEST SWAP1 SWAP8 POP SWAP6 POP PUSH1 0xA0 DUP11 ADD CALLDATALOAD SWAP2 POP PUSH2 0x274B DUP3 PUSH2 0x2562 JUMP JUMPDEST SWAP1 SWAP4 POP PUSH1 0xC0 DUP10 ADD CALLDATALOAD SWAP1 DUP1 DUP3 GT ISZERO PUSH2 0x2761 JUMPI PUSH1 0x0 DUP1 REVERT JUMPDEST POP PUSH2 0x276E DUP11 DUP3 DUP12 ADD PUSH2 0x269A JUMP JUMPDEST SWAP9 SWAP12 SWAP8 SWAP11 POP SWAP6 SWAP9 POP SWAP4 SWAP7 SWAP3 SWAP6 SWAP3 SWAP4 POP POP POP JUMP JUMPDEST PUSH1 0x0 DUP1 PUSH1 0x0 PUSH1 0x60 DUP5 DUP7 SUB SLT ISZERO PUSH2 0x2796 JUMPI PUSH1 0x0 DUP1 REVERT JUMPDEST DUP4 CALLDATALOAD PUSH2 0x27A1 DUP2 PUSH2 0x2562 JUMP JUMPDEST SWAP3 POP PUSH1 0x20 DUP5 ADD CALLDATALOAD PUSH2 0x27B1 DUP2 PUSH2 0x2562 JUMP JUMPDEST SWAP3 SWAP6 SWAP3 SWAP5 POP POP POP PUSH1 0x40 SWAP2 SWAP1 SWAP2 ADD CALLDATALOAD SWAP1 JUMP JUMPDEST DUP1 CALLDATALOAD PUSH4 0xFFFFFFFF DUP2 AND DUP2 EQ PUSH2 0x27D6 JUMPI PUSH1 0x0 DUP1 REVERT JUMPDEST SWAP2 SWAP1 POP JUMP JUMPDEST PUSH1 0x0 DUP1 PUSH1 0x40 DUP4 DUP6 SUB SLT ISZERO PUSH2 0x27EE JUMPI PUSH1 0x0 DUP1 REVERT JUMPDEST PUSH2 0x2595 DUP4 PUSH2 0x27C2 JUMP JUMPDEST DUP1 ISZERO ISZERO DUP2 EQ PUSH2 0x1425 JUMPI PUSH1 0x0 DUP1 REVERT JUMPDEST PUSH1 0x0 DUP1 PUSH1 0x40 DUP4 DUP6 SUB SLT ISZERO PUSH2 0x2818 JUMPI PUSH1 0x0 DUP1 REVERT JUMPDEST DUP3 CALLDATALOAD PUSH1 0x1 PUSH1 0x1 PUSH1 0x40 SHL SUB DUP2 GT ISZERO PUSH2 0x282E JUMPI PUSH1 0x0 DUP1 REVERT JUMPDEST PUSH2 0x283A DUP6 DUP3 DUP7 ADD PUSH2 0x25A3 JUMP JUMPDEST SWAP3 POP POP PUSH1 0x20 DUP4 ADD CALLDATALOAD PUSH2 0x284B DUP2 PUSH2 0x27F7 JUMP JUMPDEST DUP1 SWAP2 POP POP SWAP3 POP SWAP3 SWAP1 POP JUMP JUMPDEST DUP2 MLOAD DUP2 MSTORE PUSH1 0x20 DUP1 DUP4 ADD MLOAD SWAP1 DUP3 ADD MSTORE PUSH1 0x40 DUP2 ADD PUSH2 0x8C3 JUMP JUMPDEST DUP1 CALLDATALOAD PUSH2 0xFFFF DUP2 AND DUP2 EQ PUSH2 0x27D6 JUMPI PUSH1 0x0 DUP1 REVERT JUMPDEST PUSH1 0x0 DUP1 PUSH1 0x40 DUP4 DUP6 SUB SLT ISZERO PUSH2 0x2892 JUMPI PUSH1 0x0 DUP1 REVERT JUMPDEST PUSH2 0x289B DUP4 PUSH2 0x27C2 JUMP JUMPDEST SWAP2 POP PUSH2 0x28A9 PUSH1 0x20 DUP5 ADD PUSH2 0x286D JUMP JUMPDEST SWAP1 POP SWAP3 POP SWAP3 SWAP1 POP JUMP JUMPDEST PUSH1 0x0 PUSH1 0x20 DUP3 DUP5 SUB SLT ISZERO PUSH2 0x28C4 JUMPI PUSH1 0x0 DUP1 REVERT JUMPDEST DUP2 CALLDATALOAD PUSH2 0xA79 DUP2 PUSH2 0x2562 JUMP JUMPDEST PUSH1 0x0 DUP1 DUP4 PUSH1 0x1F DUP5 ADD SLT PUSH2 0x28E1 JUMPI PUSH1 0x0 DUP1 REVERT JUMPDEST POP DUP2 CALLDATALOAD PUSH1 0x1 PUSH1 0x1 PUSH1 0x40 SHL SUB DUP2 GT ISZERO PUSH2 0x28F8 JUMPI PUSH1 0x0 DUP1 REVERT JUMPDEST PUSH1 0x20 DUP4 ADD SWAP2 POP DUP4 PUSH1 0x20 DUP3 PUSH1 0x5 SHL DUP6 ADD ADD GT ISZERO PUSH2 0x26DB JUMPI PUSH1 0x0 DUP1 REVERT JUMPDEST PUSH1 0x0 DUP1 PUSH1 0x20 DUP4 DUP6 SUB SLT ISZERO PUSH2 0x2926 JUMPI PUSH1 0x0 DUP1 REVERT JUMPDEST DUP3 CALLDATALOAD PUSH1 0x1 PUSH1 0x1 PUSH1 0x40 SHL SUB DUP2 GT ISZERO PUSH2 0x293C JUMPI PUSH1 0x0 DUP1 REVERT JUMPDEST PUSH2 0x2948 DUP6 DUP3 DUP7 ADD PUSH2 0x28CF JUMP JUMPDEST SWAP1 SWAP7 SWAP1 SWAP6 POP SWAP4 POP POP POP POP JUMP JUMPDEST PUSH1 0x0 PUSH1 0x20 DUP3 DUP5 SUB SLT ISZERO PUSH2 0x2966 JUMPI PUSH1 0x0 DUP1 REVERT JUMPDEST PUSH2 0xA79 DUP3 PUSH2 0x27C2 JUMP JUMPDEST PUSH1 0x0 DUP1 PUSH1 0x0 DUP1 PUSH1 0x60 DUP6 DUP8 SUB SLT ISZERO PUSH2 0x2985 JUMPI PUSH1 0x0 DUP1 REVERT JUMPDEST PUSH2 0x298E DUP6 PUSH2 0x27C2 JUMP JUMPDEST SWAP4 POP PUSH2 0x299C PUSH1 0x20 DUP7 ADD PUSH2 0x286D JUMP JUMPDEST SWAP3 POP PUSH1 0x40 DUP6 ADD CALLDATALOAD PUSH1 0x1 PUSH1 0x1 PUSH1 0x40 SHL SUB DUP2 GT ISZERO PUSH2 0x29B7 JUMPI PUSH1 0x0 DUP1 REVERT JUMPDEST PUSH2 0x29C3 DUP8 DUP3 DUP9 ADD PUSH2 0x269A JUMP JUMPDEST SWAP6 SWAP9 SWAP5 SWAP8 POP SWAP6 POP POP POP POP JUMP JUMPDEST PUSH1 0x0 DUP1 PUSH1 0x0 DUP4 DUP6 SUB PUSH1 0x80 DUP2 SLT ISZERO PUSH2 0x29E5 JUMPI PUSH1 0x0 DUP1 REVERT JUMPDEST DUP5 CALLDATALOAD PUSH1 0x1 PUSH1 0x1 PUSH1 0x40 SHL SUB DUP2 GT ISZERO PUSH2 0x29FB JUMPI PUSH1 0x0 DUP1 REVERT JUMPDEST PUSH2 0x2A07 DUP8 DUP3 DUP9 ADD PUSH2 0x25A3 JUMP JUMPDEST SWAP5 POP POP PUSH1 0x40 PUSH1 0x1F NOT DUP3 ADD SLT ISZERO PUSH2 0x2A1C JUMPI PUSH1 0x0 DUP1 REVERT JUMPDEST POP PUSH1 0x20 DUP5 ADD SWAP2 POP PUSH1 0x60 DUP5 ADD CALLDATALOAD PUSH2 0x2A31 DUP2 PUSH2 0x2562 JUMP JUMPDEST DUP1 SWAP2 POP POP SWAP3 POP SWAP3 POP SWAP3 JUMP JUMPDEST PUSH1 0x0 PUSH1 0xC0 DUP3 ADD SWAP1 POP DUP4 MLOAD DUP3 MSTORE PUSH1 0x1 PUSH1 0x1 PUSH1 0x40 SHL SUB PUSH1 0x20 DUP6 ADD MLOAD AND PUSH1 0x20 DUP4 ADD MSTORE PUSH1 0x40 DUP5 ADD MLOAD PUSH2 0x2A77 PUSH1 0x40 DUP5 ADD DUP3 DUP1 MLOAD DUP3 MSTORE PUSH1 0x20 SWAP1 DUP2 ADD MLOAD SWAP2 ADD MSTORE JUMP JUMPDEST POP DUP3 MLOAD PUSH1 0x80 DUP4 ADD MSTORE PUSH1 0x20 DUP4 ADD MLOAD PUSH1 0xA0 DUP4 ADD MSTORE PUSH2 0xA79 JUMP JUMPDEST PUSH1 0x0 DUP1 PUSH1 0x40 DUP4 DUP6 SUB SLT ISZERO PUSH2 0x2AA1 JUMPI PUSH1 0x0 DUP1 REVERT JUMPDEST DUP3 CALLDATALOAD PUSH2 0x2AAC DUP2 PUSH2 0x2562 JUMP JUMPDEST SWAP2 POP PUSH1 0x20 DUP4 ADD CALLDATALOAD PUSH2 0x284B DUP2 PUSH2 0x2562 JUMP JUMPDEST PUSH1 0x0 PUSH1 0x60 DUP3 DUP5 SUB SLT ISZERO PUSH2 0x2ACE JUMPI PUSH1 0x0 DUP1 REVERT JUMPDEST PUSH2 0xA79 DUP4 DUP4 PUSH2 0x2688 JUMP JUMPDEST PUSH1 0x1 DUP2 DUP2 SHR SWAP1 DUP3 AND DUP1 PUSH2 0x2AEC JUMPI PUSH1 0x7F DUP3 AND SWAP2 POP JUMPDEST PUSH1 0x20 DUP3 LT DUP2 SUB PUSH2 0x25B5 JUMPI PUSH4 0x4E487B71 PUSH1 0xE0 SHL PUSH1 0x0 MSTORE PUSH1 0x22 PUSH1 0x4 MSTORE PUSH1 0x24 PUSH1 0x0 REVERT JUMPDEST PUSH4 0x4E487B71 PUSH1 0xE0 SHL PUSH1 0x0 MSTORE PUSH1 0x41 PUSH1 0x4 MSTORE PUSH1 0x24 PUSH1 0x0 REVERT JUMPDEST PUSH4 0x4E487B71 PUSH1 0xE0 SHL PUSH1 0x0 MSTORE PUSH1 0x11 PUSH1 0x4 MSTORE PUSH1 0x24 PUSH1 0x0 REVERT JUMPDEST DUP1 DUP3 ADD DUP1 DUP3 GT ISZERO PUSH2 0x8C3 JUMPI PUSH2 0x8C3 PUSH2 0x2B22 JUMP JUMPDEST PUSH4 0x4E487B71 PUSH1 0xE0 SHL PUSH1 0x0 MSTORE PUSH1 0x32 PUSH1 0x4 MSTORE PUSH1 0x24 PUSH1 0x0 REVERT JUMPDEST PUSH1 0x0 DUP3 CALLDATALOAD PUSH1 0x5E NOT DUP4 CALLDATASIZE SUB ADD DUP2 SLT PUSH2 0x2B77 JUMPI PUSH1 0x0 DUP1 REVERT JUMPDEST SWAP2 SWAP1 SWAP2 ADD SWAP3 SWAP2 POP POP JUMP JUMPDEST PUSH1 0x0 DUP1 DUP4 CALLDATALOAD PUSH1 0x1E NOT DUP5 CALLDATASIZE SUB ADD DUP2 SLT PUSH2 0x2B98 JUMPI PUSH1 0x0 DUP1 REVERT JUMPDEST DUP4 ADD DUP1 CALLDATALOAD SWAP2 POP PUSH1 0x1 PUSH1 0x1 PUSH1 0x40 SHL SUB DUP3 GT ISZERO PUSH2 0x2BB2 JUMPI PUSH1 0x0 DUP1 REVERT JUMPDEST PUSH1 0x20 ADD SWAP2 POP CALLDATASIZE DUP2 SWAP1 SUB DUP3 SGT ISZERO PUSH2 0x26DB JUMPI PUSH1 0x0 DUP1 REVERT JUMPDEST PUSH1 0x0 PUSH1 0x20 DUP3 DUP5 SUB SLT ISZERO PUSH2 0x2BD9 JUMPI PUSH1 0x0 DUP1 REVERT JUMPDEST PUSH2 0xA79 DUP3 PUSH2 0x286D JUMP JUMPDEST PUSH1 0x1F DUP3 GT ISZERO PUSH2 0x1C7F JUMPI PUSH1 0x0 DUP2 PUSH1 0x0 MSTORE PUSH1 0x20 PUSH1 0x0 KECCAK256 PUSH1 0x1F DUP6 ADD PUSH1 0x5 SHR DUP2 ADD PUSH1 0x20 DUP7 LT ISZERO PUSH2 0x2C0B JUMPI POP DUP1 JUMPDEST PUSH1 0x1F DUP6 ADD PUSH1 0x5 SHR DUP3 ADD SWAP2 POP JUMPDEST DUP2 DUP2 LT ISZERO PUSH2 0x2C2A JUMPI DUP3 DUP2 SSTORE PUSH1 0x1 ADD PUSH2 0x2C17 JUMP JUMPDEST POP POP POP POP POP POP JUMP JUMPDEST PUSH1 0x1 PUSH1 0x1 PUSH1 0x40 SHL SUB DUP4 GT ISZERO PUSH2 0x2C49 JUMPI PUSH2 0x2C49 PUSH2 0x2B0C JUMP JUMPDEST PUSH2 0x2C5D DUP4 PUSH2 0x2C57 DUP4 SLOAD PUSH2 0x2AD8 JUMP JUMPDEST DUP4 PUSH2 0x2BE2 JUMP JUMPDEST PUSH1 0x0 PUSH1 0x1F DUP5 GT PUSH1 0x1 DUP2 EQ PUSH2 0x2C91 JUMPI PUSH1 0x0 DUP6 ISZERO PUSH2 0x2C79 JUMPI POP DUP4 DUP3 ADD CALLDATALOAD JUMPDEST PUSH1 0x0 NOT PUSH1 0x3 DUP8 SWAP1 SHL SHR NOT AND PUSH1 0x1 DUP7 SWAP1 SHL OR DUP4 SSTORE PUSH2 0x12F8 JUMP JUMPDEST PUSH1 0x0 DUP4 DUP2 MSTORE PUSH1 0x20 SWAP1 KECCAK256 PUSH1 0x1F NOT DUP7 AND SWAP1 DUP4 JUMPDEST DUP3 DUP2 LT ISZERO PUSH2 0x2CC2 JUMPI DUP7 DUP6 ADD CALLDATALOAD DUP3 SSTORE PUSH1 0x20 SWAP5 DUP6 ADD SWAP5 PUSH1 0x1 SWAP1 SWAP3 ADD SWAP2 ADD PUSH2 0x2CA2 JUMP JUMPDEST POP DUP7 DUP3 LT ISZERO PUSH2 0x2CDF JUMPI PUSH1 0x0 NOT PUSH1 0xF8 DUP9 PUSH1 0x3 SHL AND SHR NOT DUP5 DUP8 ADD CALLDATALOAD AND DUP2 SSTORE JUMPDEST POP POP PUSH1 0x1 DUP6 PUSH1 0x1 SHL ADD DUP4 SSTORE POP POP POP POP POP JUMP JUMPDEST DUP2 DUP4 MSTORE DUP2 DUP2 PUSH1 0x20 DUP6 ADD CALLDATACOPY POP PUSH1 0x0 DUP3 DUP3 ADD PUSH1 0x20 SWAP1 DUP2 ADD SWAP2 SWAP1 SWAP2 MSTORE PUSH1 0x1F SWAP1 SWAP2 ADD PUSH1 0x1F NOT AND SWAP1 SWAP2 ADD ADD SWAP1 JUMP JUMPDEST PUSH1 0x20 DUP1 DUP3 MSTORE DUP2 DUP2 ADD DUP4 SWAP1 MSTORE PUSH1 0x0 SWAP1 PUSH1 0x40 DUP1 DUP5 ADD PUSH1 0x5 DUP7 SWAP1 SHL DUP6 ADD DUP3 ADD DUP8 DUP6 JUMPDEST DUP9 DUP2 LT ISZERO PUSH2 0x2DF0 JUMPI DUP8 DUP4 SUB PUSH1 0x3F NOT ADD DUP5 MSTORE DUP2 CALLDATALOAD CALLDATASIZE DUP12 SWAP1 SUB PUSH1 0x5E NOT ADD DUP2 SLT PUSH2 0x2D5F JUMPI PUSH1 0x0 DUP1 REVERT JUMPDEST DUP11 ADD PUSH1 0x60 PUSH4 0xFFFFFFFF PUSH2 0x2D71 DUP4 PUSH2 0x27C2 JUMP JUMPDEST AND DUP6 MSTORE PUSH2 0xFFFF PUSH2 0x2D82 DUP10 DUP5 ADD PUSH2 0x286D JUMP JUMPDEST AND DUP9 DUP7 ADD MSTORE DUP7 DUP3 ADD CALLDATALOAD PUSH1 0x1E NOT DUP4 CALLDATASIZE SUB ADD DUP2 SLT PUSH2 0x2D9D JUMPI PUSH1 0x0 DUP1 REVERT JUMPDEST SWAP1 SWAP2 ADD DUP8 DUP2 ADD SWAP2 SWAP1 CALLDATALOAD PUSH1 0x1 PUSH1 0x1 PUSH1 0x40 SHL SUB DUP2 GT ISZERO PUSH2 0x2DBA JUMPI PUSH1 0x0 DUP1 REVERT JUMPDEST DUP1 CALLDATASIZE SUB DUP4 SGT ISZERO PUSH2 0x2DC9 JUMPI PUSH1 0x0 DUP1 REVERT JUMPDEST DUP2 DUP9 DUP8 ADD MSTORE PUSH2 0x2DDB DUP3 DUP8 ADD DUP3 DUP6 PUSH2 0x2CF1 JUMP JUMPDEST SWAP7 DUP10 ADD SWAP7 SWAP6 POP POP POP SWAP2 DUP7 ADD SWAP2 POP PUSH1 0x1 ADD PUSH2 0x2D39 JUMP JUMPDEST POP SWAP1 SWAP9 SWAP8 POP POP POP POP POP POP POP POP JUMP JUMPDEST PUSH1 0x0 DUP1 DUP6 DUP6 GT ISZERO PUSH2 0x2E0E JUMPI PUSH1 0x0 DUP1 REVERT JUMPDEST DUP4 DUP7 GT ISZERO PUSH2 0x2E1B JUMPI PUSH1 0x0 DUP1 REVERT JUMPDEST POP POP DUP3 ADD SWAP4 SWAP2 SWAP1 SWAP3 SUB SWAP2 POP JUMP JUMPDEST PUSH1 0x0 DUP5 MLOAD PUSH2 0x2E3A DUP2 DUP5 PUSH1 0x20 DUP10 ADD PUSH2 0x24FF JUMP JUMPDEST DUP3 ADD DUP4 DUP6 DUP3 CALLDATACOPY PUSH1 0x0 SWAP4 ADD SWAP3 DUP4 MSTORE POP SWAP1 SWAP4 SWAP3 POP POP POP JUMP JUMPDEST PUSH1 0x20 DUP2 MSTORE PUSH1 0x0 PUSH2 0xFF4 PUSH1 0x20 DUP4 ADD DUP5 DUP7 PUSH2 0x2CF1 JUMP JUMPDEST PUSH1 0x0 DUP3 CALLDATALOAD PUSH2 0x13E NOT DUP4 CALLDATASIZE SUB ADD DUP2 SLT PUSH2 0x2B77 JUMPI PUSH1 0x0 DUP1 REVERT JUMPDEST PUSH1 0x1 PUSH1 0x1 PUSH1 0x40 SHL SUB DUP2 AND DUP2 EQ PUSH2 0x1425 JUMPI PUSH1 0x0 DUP1 REVERT JUMPDEST PUSH4 0xFFFFFFFF PUSH2 0x2E9E DUP10 PUSH2 0x27C2 JUMP JUMPDEST AND DUP2 MSTORE PUSH1 0x20 DUP9 ADD CALLDATALOAD PUSH1 0x20 DUP3 ADD MSTORE PUSH1 0x0 PUSH1 0x40 DUP10 ADD CALLDATALOAD PUSH2 0x2EBB DUP2 PUSH2 0x2E7B JUMP JUMPDEST PUSH1 0x1 PUSH1 0x1 PUSH1 0x40 SHL SUB DUP2 AND PUSH1 0x40 DUP5 ADD MSTORE POP DUP8 PUSH1 0x60 DUP4 ADD MSTORE PUSH1 0xE0 PUSH1 0x80 DUP4 ADD MSTORE PUSH2 0x2EE6 PUSH1 0xE0 DUP4 ADD DUP8 DUP10 PUSH2 0x2CF1 JUMP JUMPDEST PUSH1 0x1 PUSH1 0x1 PUSH1 0xA0 SHL SUB DUP7 AND PUSH1 0xA0 DUP5 ADD MSTORE DUP3 DUP2 SUB PUSH1 0xC0 DUP5 ADD MSTORE PUSH2 0x2F08 DUP2 DUP6 DUP8 PUSH2 0x2CF1 JUMP JUMPDEST SWAP11 SWAP10 POP POP POP POP POP POP POP POP POP POP JUMP JUMPDEST PUSH1 0x40 DUP1 MLOAD SWAP1 DUP2 ADD PUSH1 0x1 PUSH1 0x1 PUSH1 0x40 SHL SUB DUP2 GT DUP3 DUP3 LT OR ISZERO PUSH2 0x2F38 JUMPI PUSH2 0x2F38 PUSH2 0x2B0C JUMP JUMPDEST PUSH1 0x40 MSTORE SWAP1 JUMP JUMPDEST PUSH1 0x0 PUSH1 0x20 DUP3 DUP5 SUB SLT ISZERO PUSH2 0x2F50 JUMPI PUSH1 0x0 DUP1 REVERT JUMPDEST DUP2 MLOAD PUSH1 0x1 PUSH1 0x1 PUSH1 0x40 SHL SUB DUP1 DUP3 GT ISZERO PUSH2 0x2F67 JUMPI PUSH1 0x0 DUP1 REVERT JUMPDEST DUP2 DUP5 ADD SWAP2 POP DUP5 PUSH1 0x1F DUP4 ADD SLT PUSH2 0x2F7B JUMPI PUSH1 0x0 DUP1 REVERT JUMPDEST DUP2 MLOAD DUP2 DUP2 GT ISZERO PUSH2 0x2F8D JUMPI PUSH2 0x2F8D PUSH2 0x2B0C JUMP JUMPDEST PUSH1 0x40 MLOAD PUSH1 0x1F DUP3 ADD PUSH1 0x1F NOT SWAP1 DUP2 AND PUSH1 0x3F ADD AND DUP2 ADD SWAP1 DUP4 DUP3 GT DUP2 DUP4 LT OR ISZERO PUSH2 0x2FB5 JUMPI PUSH2 0x2FB5 PUSH2 0x2B0C JUMP JUMPDEST DUP2 PUSH1 0x40 MSTORE DUP3 DUP2 MSTORE DUP8 PUSH1 0x20 DUP5 DUP8 ADD ADD GT ISZERO PUSH2 0x2FCE JUMPI PUSH1 0x0 DUP1 REVERT JUMPDEST PUSH2 0x1DA1 DUP4 PUSH1 0x20 DUP4 ADD PUSH1 0x20 DUP9 ADD PUSH2 0x24FF JUMP JUMPDEST PUSH1 0x0 PUSH1 0x40 DUP3 DUP5 SUB SLT ISZERO PUSH2 0x2FF1 JUMPI PUSH1 0x0 DUP1 REVERT JUMPDEST PUSH2 0x2FF9 PUSH2 0x2F16 JUMP JUMPDEST DUP3 CALLDATALOAD DUP2 MSTORE PUSH1 0x20 DUP4 ADD CALLDATALOAD PUSH1 0x20 DUP3 ADD MSTORE DUP1 SWAP2 POP POP SWAP3 SWAP2 POP POP JUMP JUMPDEST PUSH1 0x0 PUSH1 0x20 DUP3 DUP5 SUB SLT ISZERO PUSH2 0x3023 JUMPI PUSH1 0x0 DUP1 REVERT JUMPDEST DUP2 CALLDATALOAD PUSH2 0xA79 DUP2 PUSH2 0x2E7B JUMP JUMPDEST PUSH1 0x1 DUP1 PUSH1 0xA0 SHL SUB DUP6 AND DUP2 MSTORE DUP4 PUSH1 0x20 DUP3 ADD MSTORE PUSH2 0xFFFF DUP4 AND PUSH1 0x40 DUP3 ADD MSTORE PUSH1 0x80 PUSH1 0x60 DUP3 ADD MSTORE PUSH1 0x0 PUSH2 0xB5D PUSH1 0x80 DUP4 ADD DUP5 PUSH2 0x2523 JUMP JUMPDEST PUSH1 0x40 DUP2 MSTORE PUSH1 0x0 PUSH2 0x3072 PUSH1 0x40 DUP4 ADD DUP6 PUSH2 0x2523 JUMP JUMPDEST DUP3 DUP2 SUB PUSH1 0x20 DUP5 ADD MSTORE PUSH2 0x1BE4 DUP2 DUP6 PUSH2 0x2523 JUMP JUMPDEST PUSH1 0x0 PUSH1 0x20 DUP3 DUP5 SUB SLT ISZERO PUSH2 0x3096 JUMPI PUSH1 0x0 DUP1 REVERT JUMPDEST DUP2 MLOAD PUSH2 0xA79 DUP2 PUSH2 0x27F7 JUMP JUMPDEST PUSH1 0x40 DUP2 MSTORE PUSH4 0xFFFFFFFF DUP4 MLOAD AND PUSH1 0x40 DUP3 ADD MSTORE PUSH1 0x20 DUP4 ADD MLOAD PUSH1 0x60 DUP3 ADD MSTORE PUSH1 0x0 PUSH1 0x40 DUP5 ADD MLOAD PUSH1 0xA0 PUSH1 0x80 DUP5 ADD MSTORE PUSH2 0x30D7 PUSH1 0xE0 DUP5 ADD DUP3 PUSH2 0x2523 JUMP JUMPDEST SWAP1 POP PUSH1 0x60 DUP6 ADD MLOAD PUSH1 0x3F NOT DUP5 DUP4 SUB ADD PUSH1 0xA0 DUP6 ADD MSTORE PUSH2 0x30F4 DUP3 DUP3 PUSH2 0x2523 JUMP JUMPDEST PUSH1 0x80 SWAP7 SWAP1 SWAP7 ADD MLOAD ISZERO ISZERO PUSH1 0xC0 DUP6 ADD MSTORE POP POP POP PUSH1 0x1 PUSH1 0x1 PUSH1 0xA0 SHL SUB SWAP2 SWAP1 SWAP2 AND PUSH1 0x20 SWAP1 SWAP2 ADD MSTORE SWAP1 JUMP JUMPDEST PUSH1 0x0 PUSH1 0x40 DUP3 DUP5 SUB SLT ISZERO PUSH2 0x312C JUMPI PUSH1 0x0 DUP1 REVERT JUMPDEST PUSH2 0x3134 PUSH2 0x2F16 JUMP JUMPDEST SWAP1 POP DUP2 MLOAD DUP2 MSTORE PUSH1 0x20 DUP3 ADD MLOAD PUSH1 0x20 DUP3 ADD MSTORE SWAP3 SWAP2 POP POP JUMP JUMPDEST PUSH1 0x0 PUSH1 0x40 DUP3 DUP5 SUB SLT ISZERO PUSH2 0x315C JUMPI PUSH1 0x0 DUP1 REVERT JUMPDEST PUSH2 0xA79 DUP4 DUP4 PUSH2 0x311A JUMP JUMPDEST PUSH1 0x1 PUSH1 0x1 PUSH1 0xF0 SHL SUB NOT DUP2 CALLDATALOAD DUP2 DUP2 AND SWAP2 PUSH1 0x2 DUP6 LT ISZERO PUSH2 0x318E JUMPI DUP1 DUP2 DUP7 PUSH1 0x2 SUB PUSH1 0x3 SHL SHL DUP4 AND AND SWAP3 POP JUMPDEST POP POP SWAP3 SWAP2 POP POP JUMP JUMPDEST PUSH1 0x0 PUSH1 0x80 DUP3 DUP5 SUB SLT ISZERO PUSH2 0x31A8 JUMPI PUSH1 0x0 DUP1 REVERT JUMPDEST PUSH1 0x40 MLOAD PUSH1 0x60 DUP2 ADD DUP2 DUP2 LT PUSH1 0x1 PUSH1 0x1 PUSH1 0x40 SHL SUB DUP3 GT OR ISZERO PUSH2 0x31CA JUMPI PUSH2 0x31CA PUSH2 0x2B0C JUMP JUMPDEST PUSH1 0x40 MSTORE DUP3 MLOAD DUP2 MSTORE PUSH1 0x20 DUP4 ADD MLOAD PUSH2 0x31DF DUP2 PUSH2 0x2E7B JUMP JUMPDEST PUSH1 0x20 DUP3 ADD MSTORE PUSH2 0x31F1 DUP5 PUSH1 0x40 DUP6 ADD PUSH2 0x311A JUMP JUMPDEST PUSH1 0x40 DUP3 ADD MSTORE SWAP4 SWAP3 POP POP POP JUMP JUMPDEST PUSH1 0x0 DUP3 PUSH2 0x321A JUMPI PUSH4 0x4E487B71 PUSH1 0xE0 SHL PUSH1 0x0 MSTORE PUSH1 0x12 PUSH1 0x4 MSTORE PUSH1 0x24 PUSH1 0x0 REVERT JUMPDEST POP DIV SWAP1 JUMP JUMPDEST DUP1 DUP3 MUL DUP2 ISZERO DUP3 DUP3 DIV DUP5 EQ OR PUSH2 0x8C3 JUMPI PUSH2 0x8C3 PUSH2 0x2B22 JUMP JUMPDEST DUP1 CALLDATALOAD PUSH1 0x20 DUP4 LT ISZERO PUSH2 0x8C3 JUMPI PUSH1 0x0 NOT PUSH1 0x20 DUP5 SWAP1 SUB PUSH1 0x3 SHL SHL AND SWAP3 SWAP2 POP POP JUMP JUMPDEST PUSH1 0x1 PUSH1 0x1 PUSH1 0xC0 SHL SUB NOT DUP2 CALLDATALOAD DUP2 DUP2 AND SWAP2 PUSH1 0x8 DUP6 LT ISZERO PUSH2 0x318E JUMPI PUSH1 0x8 SWAP5 SWAP1 SWAP5 SUB PUSH1 0x3 SHL DUP5 SWAP1 SHL AND SWAP1 SWAP3 AND SWAP3 SWAP2 POP POP JUMP JUMPDEST PUSH1 0x1 PUSH1 0x1 PUSH1 0x40 SHL SUB PUSH1 0xC0 SHL DUP6 PUSH1 0xC0 SHL AND DUP2 MSTORE PUSH4 0xFFFFFFFF PUSH1 0xE0 SHL DUP5 PUSH1 0xE0 SHL AND PUSH1 0x8 DUP3 ADD MSTORE DUP3 PUSH1 0xC DUP3 ADD MSTORE PUSH1 0x0 DUP3 MLOAD PUSH2 0x32C1 DUP2 PUSH1 0x2C DUP6 ADD PUSH1 0x20 DUP8 ADD PUSH2 0x24FF JUMP JUMPDEST SWAP2 SWAP1 SWAP2 ADD PUSH1 0x2C ADD SWAP6 SWAP5 POP POP POP POP POP JUMP JUMPDEST DUP5 DUP2 MSTORE PUSH1 0x1 PUSH1 0x1 PUSH1 0x40 SHL SUB PUSH1 0xC0 SHL DUP5 PUSH1 0xC0 SHL AND PUSH1 0x20 DUP3 ADD MSTORE DUP3 PUSH1 0x28 DUP3 ADD MSTORE PUSH1 0x0 DUP3 MLOAD PUSH2 0x3304 DUP2 PUSH1 0x48 DUP6 ADD PUSH1 0x20 DUP8 ADD PUSH2 0x24FF JUMP JUMPDEST SWAP2 SWAP1 SWAP2 ADD PUSH1 0x48 ADD SWAP6 SWAP5 POP POP POP POP POP JUMP JUMPDEST PUSH1 0x0 PUSH1 0x20 DUP3 DUP5 SUB SLT ISZERO PUSH2 0x3326 JUMPI PUSH1 0x0 DUP1 REVERT JUMPDEST DUP2 MLOAD PUSH2 0xA79 DUP2 PUSH2 0x2562 JUMP JUMPDEST PUSH1 0x0 DUP3 MLOAD PUSH2 0x2B77 DUP2 DUP5 PUSH1 0x20 DUP8 ADD PUSH2 0x24FF JUMP INVALID LOG2 PUSH5 0x6970667358 0x22 SLT KECCAK256 0x29 0xAA PUSH31 0x8FA5DE46AFF59AAA250D2BC7EDDAEB72CB8215EA8B7835D1860CF9303A6473 PUSH16 0x6C634300081600330000000000000000 "},"methodIdentifiers":{"SEND()":"1f5e1334","SEND_AND_CALL()":"134d4f25","allowInitializePath((uint32,bytes32,uint64))":"ff7bd03d","allowance(address,address)":"dd62ed3e","approvalRequired()":"9f68b964","approve(address,uint256)":"095ea7b3","balanceOf(address)":"70a08231","combineOptions(uint32,uint16,bytes)":"bc70b354","composeMsgSender()":"b92d0eff","decimalConversionRate()":"963efcaa","decimals()":"313ce567","decreaseAllowance(address,uint256)":"a457c2d7","endpoint()":"5e280f11","enforcedOptions(uint32,uint16)":"5535d461","increaseAllowance(address,uint256)":"39509351","isPeer(uint32,bytes32)":"5a0dfe4d","lzReceive((uint32,bytes32,uint64),bytes32,bytes,address,bytes)":"13137d65","lzReceiveAndRevert(((uint32,bytes32,uint64),uint32,address,bytes32,uint256,address,bytes,bytes)[])":"bd815db0","lzReceiveSimulate((uint32,bytes32,uint64),bytes32,bytes,address,bytes)":"d045a0dc","msgInspector()":"111ecdad","name()":"06fdde03","nextNonce(uint32,bytes32)":"7d25a05e","oApp()":"52ae2879","oAppVersion()":"17442b70","oftVersion()":"156a0d0f","owner()":"8da5cb5b","peers(uint32)":"bb0b6a53","preCrime()":"b731ea0a","quoteOFT((uint32,bytes32,uint256,uint256,bytes,bytes,bytes))":"0d35b415","quoteSend((uint32,bytes32,uint256,uint256,bytes,bytes,bytes),bool)":"3b6f743b","renounceOwnership()":"715018a6","send((uint32,bytes32,uint256,uint256,bytes,bytes,bytes),(uint256,uint256),address)":"c7c7f5b3","setDelegate(address)":"ca5eb5e1","setEnforcedOptions((uint32,uint16,bytes)[])":"b98bd070","setMsgInspector(address)":"6fc1b31e","setPeer(uint32,bytes32)":"3400288b","setPreCrime(address)":"d4243885","sharedDecimals()":"857749b0","symbol()":"95d89b41","token()":"fc0c546a","totalSupply()":"18160ddd","transfer(address,uint256)":"a9059cbb","transferFrom(address,address,uint256)":"23b872dd","transferOwnership(address)":"f2fde38b"}}}}}