{
  "_format": "hh-sol-artifact-1",
  "contractName": "IGNToken",
  "sourceName": "contracts/IGNToken.sol",
  "abi": [
    {
      "inputs": [
        {
          "internalType": "string",
          "name": "_name",
          "type": "string"
        },
        {
          "internalType": "string",
          "name": "_symbol",
          "type": "string"
        },
        {
          "internalType": "address",
          "name": "_lzEndpoint",
          "type": "address"
        },
        {
          "internalType": "address",
          "name": "_owner",
          "type": "address"
        }
      ],
      "stateMutability": "nonpayable",
      "type": "constructor"
    },
    {
      "inputs": [],
      "name": "InvalidDelegate",
      "type": "error"
    },
    {
      "inputs": [],
      "name": "InvalidEndpointCall",
      "type": "error"
    },
    {
      "inputs": [],
      "name": "InvalidLocalDecimals",
      "type": "error"
    },
    {
      "inputs": [
        {
          "internalType": "bytes",
          "name": "options",
          "type": "bytes"
        }
      ],
      "name": "InvalidOptions",
      "type": "error"
    },
    {
      "inputs": [],
      "name": "InvalidShortString",
      "type": "error"
    },
    {
      "inputs": [],
      "name": "LzTokenUnavailable",
      "type": "error"
    },
    {
      "inputs": [
        {
          "internalType": "uint32",
          "name": "eid",
          "type": "uint32"
        }
      ],
      "name": "NoPeer",
      "type": "error"
    },
    {
      "inputs": [
        {
          "internalType": "uint256",
          "name": "msgValue",
          "type": "uint256"
        }
      ],
      "name": "NotEnoughNative",
      "type": "error"
    },
    {
      "inputs": [
        {
          "internalType": "address",
          "name": "addr",
          "type": "address"
        }
      ],
      "name": "OnlyEndpoint",
      "type": "error"
    },
    {
      "inputs": [
        {
          "internalType": "uint32",
          "name": "eid",
          "type": "uint32"
        },
        {
          "internalType": "bytes32",
          "name": "sender",
          "type": "bytes32"
        }
      ],
      "name": "OnlyPeer",
      "type": "error"
    },
    {
      "inputs": [],
      "name": "OnlySelf",
      "type": "error"
    },
    {
      "inputs": [
        {
          "internalType": "bytes",
          "name": "result",
          "type": "bytes"
        }
      ],
      "name": "SimulationResult",
      "type": "error"
    },
    {
      "inputs": [
        {
          "internalType": "uint256",
          "name": "amountLD",
          "type": "uint256"
        },
        {
          "internalType": "uint256",
          "name": "minAmountLD",
          "type": "uint256"
        }
      ],
      "name": "SlippageExceeded",
      "type": "error"
    },
    {
      "inputs": [
        {
          "internalType": "string",
          "name": "str",
          "type": "string"
        }
      ],
      "name": "StringTooLong",
      "type": "error"
    },
    {
      "anonymous": false,
      "inputs": [
        {
          "indexed": true,
          "internalType": "address",
          "name": "owner",
          "type": "address"
        },
        {
          "indexed": true,
          "internalType": "address",
          "name": "spender",
          "type": "address"
        },
        {
          "indexed": false,
          "internalType": "uint256",
          "name": "value",
          "type": "uint256"
        }
      ],
      "name": "Approval",
      "type": "event"
    },
    {
      "anonymous": false,
      "inputs": [],
      "name": "EIP712DomainChanged",
      "type": "event"
    },
    {
      "anonymous": false,
      "inputs": [
        {
          "components": [
            {
              "internalType": "uint32",
              "name": "eid",
              "type": "uint32"
            },
            {
              "internalType": "uint16",
              "name": "msgType",
              "type": "uint16"
            },
            {
              "internalType": "bytes",
              "name": "options",
              "type": "bytes"
            }
          ],
          "indexed": false,
          "internalType": "struct EnforcedOptionParam[]",
          "name": "_enforcedOptions",
          "type": "tuple[]"
        }
      ],
      "name": "EnforcedOptionSet",
      "type": "event"
    },
    {
      "anonymous": false,
      "inputs": [
        {
          "indexed": false,
          "internalType": "address",
          "name": "inspector",
          "type": "address"
        }
      ],
      "name": "MsgInspectorSet",
      "type": "event"
    },
    {
      "anonymous": false,
      "inputs": [
        {
          "indexed": true,
          "internalType": "bytes32",
          "name": "guid",
          "type": "bytes32"
        },
        {
          "indexed": false,
          "internalType": "uint32",
          "name": "srcEid",
          "type": "uint32"
        },
        {
          "indexed": true,
          "internalType": "address",
          "name": "toAddress",
          "type": "address"
        },
        {
          "indexed": false,
          "internalType": "uint256",
          "name": "amountLD",
          "type": "uint256"
        }
      ],
      "name": "OFTReceived",
      "type": "event"
    },
    {
      "anonymous": false,
      "inputs": [
        {
          "indexed": true,
          "internalType": "bytes32",
          "name": "guid",
          "type": "bytes32"
        },
        {
          "indexed": false,
          "internalType": "uint32",
          "name": "dstEid",
          "type": "uint32"
        },
        {
          "indexed": true,
          "internalType": "address",
          "name": "fromAddress",
          "type": "address"
        },
        {
          "indexed": false,
          "internalType": "uint256",
          "name": "amountLD",
          "type": "uint256"
        }
      ],
      "name": "OFTSent",
      "type": "event"
    },
    {
      "anonymous": false,
      "inputs": [
        {
          "indexed": true,
          "internalType": "address",
          "name": "previousOwner",
          "type": "address"
        },
        {
          "indexed": true,
          "internalType": "address",
          "name": "newOwner",
          "type": "address"
        }
      ],
      "name": "OwnershipTransferred",
      "type": "event"
    },
    {
      "anonymous": false,
      "inputs": [
        {
          "indexed": false,
          "internalType": "uint32",
          "name": "eid",
          "type": "uint32"
        },
        {
          "indexed": false,
          "internalType": "bytes32",
          "name": "peer",
          "type": "bytes32"
        }
      ],
      "name": "PeerSet",
      "type": "event"
    },
    {
      "anonymous": false,
      "inputs": [
        {
          "indexed": false,
          "internalType": "address",
          "name": "preCrimeAddress",
          "type": "address"
        }
      ],
      "name": "PreCrimeSet",
      "type": "event"
    },
    {
      "anonymous": false,
      "inputs": [
        {
          "indexed": true,
          "internalType": "address",
          "name": "from",
          "type": "address"
        },
        {
          "indexed": true,
          "internalType": "address",
          "name": "to",
          "type": "address"
        },
        {
          "indexed": false,
          "internalType": "uint256",
          "name": "value",
          "type": "uint256"
        }
      ],
      "name": "Transfer",
      "type": "event"
    },
    {
      "inputs": [],
      "name": "DOMAIN_SEPARATOR",
      "outputs": [
        {
          "internalType": "bytes32",
          "name": "",
          "type": "bytes32"
        }
      ],
      "stateMutability": "view",
      "type": "function"
    },
    {
      "inputs": [],
      "name": "SEND",
      "outputs": [
        {
          "internalType": "uint16",
          "name": "",
          "type": "uint16"
        }
      ],
      "stateMutability": "view",
      "type": "function"
    },
    {
      "inputs": [],
      "name": "SEND_AND_CALL",
      "outputs": [
        {
          "internalType": "uint16",
          "name": "",
          "type": "uint16"
        }
      ],
      "stateMutability": "view",
      "type": "function"
    },
    {
      "inputs": [
        {
          "components": [
            {
              "internalType": "uint32",
              "name": "srcEid",
              "type": "uint32"
            },
            {
              "internalType": "bytes32",
              "name": "sender",
              "type": "bytes32"
            },
            {
              "internalType": "uint64",
              "name": "nonce",
              "type": "uint64"
            }
          ],
          "internalType": "struct Origin",
          "name": "origin",
          "type": "tuple"
        }
      ],
      "name": "allowInitializePath",
      "outputs": [
        {
          "internalType": "bool",
          "name": "",
          "type": "bool"
        }
      ],
      "stateMutability": "view",
      "type": "function"
    },
    {
      "inputs": [
        {
          "internalType": "address",
          "name": "owner",
          "type": "address"
        },
        {
          "internalType": "address",
          "name": "spender",
          "type": "address"
        }
      ],
      "name": "allowance",
      "outputs": [
        {
          "internalType": "uint256",
          "name": "",
          "type": "uint256"
        }
      ],
      "stateMutability": "view",
      "type": "function"
    },
    {
      "inputs": [],
      "name": "approvalRequired",
      "outputs": [
        {
          "internalType": "bool",
          "name": "",
          "type": "bool"
        }
      ],
      "stateMutability": "pure",
      "type": "function"
    },
    {
      "inputs": [
        {
          "internalType": "address",
          "name": "spender",
          "type": "address"
        },
        {
          "internalType": "uint256",
          "name": "amount",
          "type": "uint256"
        }
      ],
      "name": "approve",
      "outputs": [
        {
          "internalType": "bool",
          "name": "",
          "type": "bool"
        }
      ],
      "stateMutability": "nonpayable",
      "type": "function"
    },
    {
      "inputs": [
        {
          "internalType": "address",
          "name": "account",
          "type": "address"
        }
      ],
      "name": "balanceOf",
      "outputs": [
        {
          "internalType": "uint256",
          "name": "",
          "type": "uint256"
        }
      ],
      "stateMutability": "view",
      "type": "function"
    },
    {
      "inputs": [
        {
          "internalType": "uint32",
          "name": "_eid",
          "type": "uint32"
        },
        {
          "internalType": "uint16",
          "name": "_msgType",
          "type": "uint16"
        },
        {
          "internalType": "bytes",
          "name": "_extraOptions",
          "type": "bytes"
        }
      ],
      "name": "combineOptions",
      "outputs": [
        {
          "internalType": "bytes",
          "name": "",
          "type": "bytes"
        }
      ],
      "stateMutability": "view",
      "type": "function"
    },
    {
      "inputs": [],
      "name": "composeMsgSender",
      "outputs": [
        {
          "internalType": "address",
          "name": "sender",
          "type": "address"
        }
      ],
      "stateMutability": "view",
      "type": "function"
    },
    {
      "inputs": [],
      "name": "decimalConversionRate",
      "outputs": [
        {
          "internalType": "uint256",
          "name": "",
          "type": "uint256"
        }
      ],
      "stateMutability": "view",
      "type": "function"
    },
    {
      "inputs": [],
      "name": "decimals",
      "outputs": [
        {
          "internalType": "uint8",
          "name": "",
          "type": "uint8"
        }
      ],
      "stateMutability": "view",
      "type": "function"
    },
    {
      "inputs": [
        {
          "internalType": "address",
          "name": "spender",
          "type": "address"
        },
        {
          "internalType": "uint256",
          "name": "subtractedValue",
          "type": "uint256"
        }
      ],
      "name": "decreaseAllowance",
      "outputs": [
        {
          "internalType": "bool",
          "name": "",
          "type": "bool"
        }
      ],
      "stateMutability": "nonpayable",
      "type": "function"
    },
    {
      "inputs": [],
      "name": "eip712Domain",
      "outputs": [
        {
          "internalType": "bytes1",
          "name": "fields",
          "type": "bytes1"
        },
        {
          "internalType": "string",
          "name": "name",
          "type": "string"
        },
        {
          "internalType": "string",
          "name": "version",
          "type": "string"
        },
        {
          "internalType": "uint256",
          "name": "chainId",
          "type": "uint256"
        },
        {
          "internalType": "address",
          "name": "verifyingContract",
          "type": "address"
        },
        {
          "internalType": "bytes32",
          "name": "salt",
          "type": "bytes32"
        },
        {
          "internalType": "uint256[]",
          "name": "extensions",
          "type": "uint256[]"
        }
      ],
      "stateMutability": "view",
      "type": "function"
    },
    {
      "inputs": [],
      "name": "endpoint",
      "outputs": [
        {
          "internalType": "contract ILayerZeroEndpointV2",
          "name": "",
          "type": "address"
        }
      ],
      "stateMutability": "view",
      "type": "function"
    },
    {
      "inputs": [
        {
          "internalType": "uint32",
          "name": "eid",
          "type": "uint32"
        },
        {
          "internalType": "uint16",
          "name": "msgType",
          "type": "uint16"
        }
      ],
      "name": "enforcedOptions",
      "outputs": [
        {
          "internalType": "bytes",
          "name": "enforcedOption",
          "type": "bytes"
        }
      ],
      "stateMutability": "view",
      "type": "function"
    },
    {
      "inputs": [
        {
          "internalType": "address",
          "name": "spender",
          "type": "address"
        },
        {
          "internalType": "uint256",
          "name": "addedValue",
          "type": "uint256"
        }
      ],
      "name": "increaseAllowance",
      "outputs": [
        {
          "internalType": "bool",
          "name": "",
          "type": "bool"
        }
      ],
      "stateMutability": "nonpayable",
      "type": "function"
    },
    {
      "inputs": [
        {
          "internalType": "uint32",
          "name": "_eid",
          "type": "uint32"
        },
        {
          "internalType": "bytes32",
          "name": "_peer",
          "type": "bytes32"
        }
      ],
      "name": "isPeer",
      "outputs": [
        {
          "internalType": "bool",
          "name": "",
          "type": "bool"
        }
      ],
      "stateMutability": "view",
      "type": "function"
    },
    {
      "inputs": [
        {
          "components": [
            {
              "internalType": "uint32",
              "name": "srcEid",
              "type": "uint32"
            },
            {
              "internalType": "bytes32",
              "name": "sender",
              "type": "bytes32"
            },
            {
              "internalType": "uint64",
              "name": "nonce",
              "type": "uint64"
            }
          ],
          "internalType": "struct Origin",
          "name": "_origin",
          "type": "tuple"
        },
        {
          "internalType": "bytes32",
          "name": "_guid",
          "type": "bytes32"
        },
        {
          "internalType": "bytes",
          "name": "_message",
          "type": "bytes"
        },
        {
          "internalType": "address",
          "name": "_executor",
          "type": "address"
        },
        {
          "internalType": "bytes",
          "name": "_extraData",
          "type": "bytes"
        }
      ],
      "name": "lzReceive",
      "outputs": [],
      "stateMutability": "payable",
      "type": "function"
    },
    {
      "inputs": [
        {
          "components": [
            {
              "components": [
                {
                  "internalType": "uint32",
                  "name": "srcEid",
                  "type": "uint32"
                },
                {
                  "internalType": "bytes32",
                  "name": "sender",
                  "type": "bytes32"
                },
                {
                  "internalType": "uint64",
                  "name": "nonce",
                  "type": "uint64"
                }
              ],
              "internalType": "struct Origin",
              "name": "origin",
              "type": "tuple"
            },
            {
              "internalType": "uint32",
              "name": "dstEid",
              "type": "uint32"
            },
            {
              "internalType": "address",
              "name": "receiver",
              "type": "address"
            },
            {
              "internalType": "bytes32",
              "name": "guid",
              "type": "bytes32"
            },
            {
              "internalType": "uint256",
              "name": "value",
              "type": "uint256"
            },
            {
              "internalType": "address",
              "name": "executor",
              "type": "address"
            },
            {
              "internalType": "bytes",
              "name": "message",
              "type": "bytes"
            },
            {
              "internalType": "bytes",
              "name": "extraData",
              "type": "bytes"
            }
          ],
          "internalType": "struct InboundPacket[]",
          "name": "_packets",
          "type": "tuple[]"
        }
      ],
      "name": "lzReceiveAndRevert",
      "outputs": [],
      "stateMutability": "payable",
      "type": "function"
    },
    {
      "inputs": [
        {
          "components": [
            {
              "internalType": "uint32",
              "name": "srcEid",
              "type": "uint32"
            },
            {
              "internalType": "bytes32",
              "name": "sender",
              "type": "bytes32"
            },
            {
              "internalType": "uint64",
              "name": "nonce",
              "type": "uint64"
            }
          ],
          "internalType": "struct Origin",
          "name": "_origin",
          "type": "tuple"
        },
        {
          "internalType": "bytes32",
          "name": "_guid",
          "type": "bytes32"
        },
        {
          "internalType": "bytes",
          "name": "_message",
          "type": "bytes"
        },
        {
          "internalType": "address",
          "name": "_executor",
          "type": "address"
        },
        {
          "internalType": "bytes",
          "name": "_extraData",
          "type": "bytes"
        }
      ],
      "name": "lzReceiveSimulate",
      "outputs": [],
      "stateMutability": "payable",
      "type": "function"
    },
    {
      "inputs": [],
      "name": "msgInspector",
      "outputs": [
        {
          "internalType": "address",
          "name": "",
          "type": "address"
        }
      ],
      "stateMutability": "view",
      "type": "function"
    },
    {
      "inputs": [],
      "name": "name",
      "outputs": [
        {
          "internalType": "string",
          "name": "",
          "type": "string"
        }
      ],
      "stateMutability": "view",
      "type": "function"
    },
    {
      "inputs": [
        {
          "internalType": "uint32",
          "name": "",
          "type": "uint32"
        },
        {
          "internalType": "bytes32",
          "name": "",
          "type": "bytes32"
        }
      ],
      "name": "nextNonce",
      "outputs": [
        {
          "internalType": "uint64",
          "name": "nonce",
          "type": "uint64"
        }
      ],
      "stateMutability": "view",
      "type": "function"
    },
    {
      "inputs": [
        {
          "internalType": "address",
          "name": "owner",
          "type": "address"
        }
      ],
      "name": "nonces",
      "outputs": [
        {
          "internalType": "uint256",
          "name": "",
          "type": "uint256"
        }
      ],
      "stateMutability": "view",
      "type": "function"
    },
    {
      "inputs": [],
      "name": "oApp",
      "outputs": [
        {
          "internalType": "address",
          "name": "",
          "type": "address"
        }
      ],
      "stateMutability": "view",
      "type": "function"
    },
    {
      "inputs": [],
      "name": "oAppVersion",
      "outputs": [
        {
          "internalType": "uint64",
          "name": "senderVersion",
          "type": "uint64"
        },
        {
          "internalType": "uint64",
          "name": "receiverVersion",
          "type": "uint64"
        }
      ],
      "stateMutability": "pure",
      "type": "function"
    },
    {
      "inputs": [],
      "name": "oftVersion",
      "outputs": [
        {
          "internalType": "bytes4",
          "name": "interfaceId",
          "type": "bytes4"
        },
        {
          "internalType": "uint64",
          "name": "version",
          "type": "uint64"
        }
      ],
      "stateMutability": "pure",
      "type": "function"
    },
    {
      "inputs": [],
      "name": "owner",
      "outputs": [
        {
          "internalType": "address",
          "name": "",
          "type": "address"
        }
      ],
      "stateMutability": "view",
      "type": "function"
    },
    {
      "inputs": [
        {
          "internalType": "uint32",
          "name": "eid",
          "type": "uint32"
        }
      ],
      "name": "peers",
      "outputs": [
        {
          "internalType": "bytes32",
          "name": "peer",
          "type": "bytes32"
        }
      ],
      "stateMutability": "view",
      "type": "function"
    },
    {
      "inputs": [
        {
          "internalType": "address",
          "name": "owner",
          "type": "address"
        },
        {
          "internalType": "address",
          "name": "spender",
          "type": "address"
        },
        {
          "internalType": "uint256",
          "name": "value",
          "type": "uint256"
        },
        {
          "internalType": "uint256",
          "name": "deadline",
          "type": "uint256"
        },
        {
          "internalType": "uint8",
          "name": "v",
          "type": "uint8"
        },
        {
          "internalType": "bytes32",
          "name": "r",
          "type": "bytes32"
        },
        {
          "internalType": "bytes32",
          "name": "s",
          "type": "bytes32"
        }
      ],
      "name": "permit",
      "outputs": [],
      "stateMutability": "nonpayable",
      "type": "function"
    },
    {
      "inputs": [],
      "name": "preCrime",
      "outputs": [
        {
          "internalType": "address",
          "name": "",
          "type": "address"
        }
      ],
      "stateMutability": "view",
      "type": "function"
    },
    {
      "inputs": [
        {
          "components": [
            {
              "internalType": "uint32",
              "name": "dstEid",
              "type": "uint32"
            },
            {
              "internalType": "bytes32",
              "name": "to",
              "type": "bytes32"
            },
            {
              "internalType": "uint256",
              "name": "amountLD",
              "type": "uint256"
            },
            {
              "internalType": "uint256",
              "name": "minAmountLD",
              "type": "uint256"
            },
            {
              "internalType": "bytes",
              "name": "extraOptions",
              "type": "bytes"
            },
            {
              "internalType": "bytes",
              "name": "composeMsg",
              "type": "bytes"
            },
            {
              "internalType": "bytes",
              "name": "oftCmd",
              "type": "bytes"
            }
          ],
          "internalType": "struct SendParam",
          "name": "_sendParam",
          "type": "tuple"
        }
      ],
      "name": "quoteOFT",
      "outputs": [
        {
          "components": [
            {
              "internalType": "uint256",
              "name": "minAmountLD",
              "type": "uint256"
            },
            {
              "internalType": "uint256",
              "name": "maxAmountLD",
              "type": "uint256"
            }
          ],
          "internalType": "struct OFTLimit",
          "name": "oftLimit",
          "type": "tuple"
        },
        {
          "components": [
            {
              "internalType": "int256",
              "name": "feeAmountLD",
              "type": "int256"
            },
            {
              "internalType": "string",
              "name": "description",
              "type": "string"
            }
          ],
          "internalType": "struct OFTFeeDetail[]",
          "name": "oftFeeDetails",
          "type": "tuple[]"
        },
        {
          "components": [
            {
              "internalType": "uint256",
              "name": "amountSentLD",
              "type": "uint256"
            },
            {
              "internalType": "uint256",
              "name": "amountReceivedLD",
              "type": "uint256"
            }
          ],
          "internalType": "struct OFTReceipt",
          "name": "oftReceipt",
          "type": "tuple"
        }
      ],
      "stateMutability": "view",
      "type": "function"
    },
    {
      "inputs": [
        {
          "components": [
            {
              "internalType": "uint32",
              "name": "dstEid",
              "type": "uint32"
            },
            {
              "internalType": "bytes32",
              "name": "to",
              "type": "bytes32"
            },
            {
              "internalType": "uint256",
              "name": "amountLD",
              "type": "uint256"
            },
            {
              "internalType": "uint256",
              "name": "minAmountLD",
              "type": "uint256"
            },
            {
              "internalType": "bytes",
              "name": "extraOptions",
              "type": "bytes"
            },
            {
              "internalType": "bytes",
              "name": "composeMsg",
              "type": "bytes"
            },
            {
              "internalType": "bytes",
              "name": "oftCmd",
              "type": "bytes"
            }
          ],
          "internalType": "struct SendParam",
          "name": "_sendParam",
          "type": "tuple"
        },
        {
          "internalType": "bool",
          "name": "_payInLzToken",
          "type": "bool"
        }
      ],
      "name": "quoteSend",
      "outputs": [
        {
          "components": [
            {
              "internalType": "uint256",
              "name": "nativeFee",
              "type": "uint256"
            },
            {
              "internalType": "uint256",
              "name": "lzTokenFee",
              "type": "uint256"
            }
          ],
          "internalType": "struct MessagingFee",
          "name": "msgFee",
          "type": "tuple"
        }
      ],
      "stateMutability": "view",
      "type": "function"
    },
    {
      "inputs": [],
      "name": "renounceOwnership",
      "outputs": [],
      "stateMutability": "nonpayable",
      "type": "function"
    },
    {
      "inputs": [
        {
          "components": [
            {
              "internalType": "uint32",
              "name": "dstEid",
              "type": "uint32"
            },
            {
              "internalType": "bytes32",
              "name": "to",
              "type": "bytes32"
            },
            {
              "internalType": "uint256",
              "name": "amountLD",
              "type": "uint256"
            },
            {
              "internalType": "uint256",
              "name": "minAmountLD",
              "type": "uint256"
            },
            {
              "internalType": "bytes",
              "name": "extraOptions",
              "type": "bytes"
            },
            {
              "internalType": "bytes",
              "name": "composeMsg",
              "type": "bytes"
            },
            {
              "internalType": "bytes",
              "name": "oftCmd",
              "type": "bytes"
            }
          ],
          "internalType": "struct SendParam",
          "name": "_sendParam",
          "type": "tuple"
        },
        {
          "components": [
            {
              "internalType": "uint256",
              "name": "nativeFee",
              "type": "uint256"
            },
            {
              "internalType": "uint256",
              "name": "lzTokenFee",
              "type": "uint256"
            }
          ],
          "internalType": "struct MessagingFee",
          "name": "_fee",
          "type": "tuple"
        },
        {
          "internalType": "address",
          "name": "_refundAddress",
          "type": "address"
        }
      ],
      "name": "send",
      "outputs": [
        {
          "components": [
            {
              "internalType": "bytes32",
              "name": "guid",
              "type": "bytes32"
            },
            {
              "internalType": "uint64",
              "name": "nonce",
              "type": "uint64"
            },
            {
              "components": [
                {
                  "internalType": "uint256",
                  "name": "nativeFee",
                  "type": "uint256"
                },
                {
                  "internalType": "uint256",
                  "name": "lzTokenFee",
                  "type": "uint256"
                }
              ],
              "internalType": "struct MessagingFee",
              "name": "fee",
              "type": "tuple"
            }
          ],
          "internalType": "struct MessagingReceipt",
          "name": "msgReceipt",
          "type": "tuple"
        },
        {
          "components": [
            {
              "internalType": "uint256",
              "name": "amountSentLD",
              "type": "uint256"
            },
            {
              "internalType": "uint256",
              "name": "amountReceivedLD",
              "type": "uint256"
            }
          ],
          "internalType": "struct OFTReceipt",
          "name": "oftReceipt",
          "type": "tuple"
        }
      ],
      "stateMutability": "payable",
      "type": "function"
    },
    {
      "inputs": [
        {
          "internalType": "address",
          "name": "_delegate",
          "type": "address"
        }
      ],
      "name": "setDelegate",
      "outputs": [],
      "stateMutability": "nonpayable",
      "type": "function"
    },
    {
      "inputs": [
        {
          "components": [
            {
              "internalType": "uint32",
              "name": "eid",
              "type": "uint32"
            },
            {
              "internalType": "uint16",
              "name": "msgType",
              "type": "uint16"
            },
            {
              "internalType": "bytes",
              "name": "options",
              "type": "bytes"
            }
          ],
          "internalType": "struct EnforcedOptionParam[]",
          "name": "_enforcedOptions",
          "type": "tuple[]"
        }
      ],
      "name": "setEnforcedOptions",
      "outputs": [],
      "stateMutability": "nonpayable",
      "type": "function"
    },
    {
      "inputs": [
        {
          "internalType": "address",
          "name": "_msgInspector",
          "type": "address"
        }
      ],
      "name": "setMsgInspector",
      "outputs": [],
      "stateMutability": "nonpayable",
      "type": "function"
    },
    {
      "inputs": [
        {
          "internalType": "uint32",
          "name": "_eid",
          "type": "uint32"
        },
        {
          "internalType": "bytes32",
          "name": "_peer",
          "type": "bytes32"
        }
      ],
      "name": "setPeer",
      "outputs": [],
      "stateMutability": "nonpayable",
      "type": "function"
    },
    {
      "inputs": [
        {
          "internalType": "address",
          "name": "_preCrime",
          "type": "address"
        }
      ],
      "name": "setPreCrime",
      "outputs": [],
      "stateMutability": "nonpayable",
      "type": "function"
    },
    {
      "inputs": [],
      "name": "sharedDecimals",
      "outputs": [
        {
          "internalType": "uint8",
          "name": "",
          "type": "uint8"
        }
      ],
      "stateMutability": "pure",
      "type": "function"
    },
    {
      "inputs": [],
      "name": "symbol",
      "outputs": [
        {
          "internalType": "string",
          "name": "",
          "type": "string"
        }
      ],
      "stateMutability": "view",
      "type": "function"
    },
    {
      "inputs": [],
      "name": "token",
      "outputs": [
        {
          "internalType": "address",
          "name": "",
          "type": "address"
        }
      ],
      "stateMutability": "view",
      "type": "function"
    },
    {
      "inputs": [],
      "name": "totalSupply",
      "outputs": [
        {
          "internalType": "uint256",
          "name": "",
          "type": "uint256"
        }
      ],
      "stateMutability": "view",
      "type": "function"
    },
    {
      "inputs": [
        {
          "internalType": "address",
          "name": "to",
          "type": "address"
        },
        {
          "internalType": "uint256",
          "name": "amount",
          "type": "uint256"
        }
      ],
      "name": "transfer",
      "outputs": [
        {
          "internalType": "bool",
          "name": "",
          "type": "bool"
        }
      ],
      "stateMutability": "nonpayable",
      "type": "function"
    },
    {
      "inputs": [
        {
          "internalType": "address",
          "name": "from",
          "type": "address"
        },
        {
          "internalType": "address",
          "name": "to",
          "type": "address"
        },
        {
          "internalType": "uint256",
          "name": "amount",
          "type": "uint256"
        }
      ],
      "name": "transferFrom",
      "outputs": [
        {
          "internalType": "bool",
          "name": "",
          "type": "bool"
        }
      ],
      "stateMutability": "nonpayable",
      "type": "function"
    },
    {
      "inputs": [
        {
          "internalType": "address",
          "name": "newOwner",
          "type": "address"
        }
      ],
      "name": "transferOwnership",
      "outputs": [],
      "stateMutability": "nonpayable",
      "type": "function"
    }
  ],
  "bytecode": "0x6101a06040523480156200001257600080fd5b5060405162004572380380620045728339810160408190526200003591620004f5565b8380604051806040016040528060018152602001603160f81b815250868686868383620000676200026760201b60201c565b84848181818162000078336200026c565b6001600160a01b038083166080528116620000a657604051632d618d8160e21b815260040160405180910390fd5b60805160405163ca5eb5e160e01b81526001600160a01b0383811660048301529091169063ca5eb5e190602401600060405180830381600087803b158015620000ee57600080fd5b505af115801562000103573d6000803e3d6000fd5b50505050505050506200011b620002bc60201b60201c565b60ff168360ff16101562000142576040516301e9714b60e41b815260040160405180910390fd5b6200014f6006846200059a565b6200015c90600a620006b3565b60a052506008915062000172905083826200075b565b5060096200018182826200075b565b50620001999550879450600a935050620002c1915050565b61016052620001aa81600b620002c1565b61018052815160208084019190912061012052815190820120610140524660e0526200023a6101205161014051604080517f8b73c3c69bb8fe3d512ecc4cf759cc79239f7b179b0ffacaa9a75d522b39400f60208201529081019290925260608201524660808201523060a082015260009060c00160405160208183030381529060405280519060200120905090565b60c05250503061010052506200025d336b033b2e3c9fd0803ce8000000620002fa565b5050505062000897565b601290565b600080546001600160a01b038381166001600160a01b0319831681178455604051919092169283917f8be0079c531659141344cd1fd0a4f28419497f9722a3daafe3b4186f6b6457e09190a35050565b600690565b6000602083511015620002e157620002d983620003c3565b9050620002f4565b81620002ee84826200075b565b5060ff90505b92915050565b6001600160a01b038216620003565760405162461bcd60e51b815260206004820152601f60248201527f45524332303a206d696e7420746f20746865207a65726f20616464726573730060448201526064015b60405180910390fd5b80600760008282546200036a919062000827565b90915550506001600160a01b0382166000818152600560209081526040808320805486019055518481527fddf252ad1be2c89b69c2b068fc378daa952ba7f163c4a11628f55a4df523b3ef910160405180910390a35050565b600080829050601f81511115620003f1578260405163305a27a960e01b81526004016200034d91906200083d565b8051620003fe8262000872565b179392505050565b505050565b634e487b7160e01b600052604160045260246000fd5b60005b838110156200043e57818101518382015260200162000424565b50506000910152565b600082601f8301126200045957600080fd5b81516001600160401b03808211156200047657620004766200040b565b604051601f8301601f19908116603f01168101908282118183101715620004a157620004a16200040b565b81604052838152866020858801011115620004bb57600080fd5b620004ce84602083016020890162000421565b9695505050505050565b80516001600160a01b0381168114620004f057600080fd5b919050565b600080600080608085870312156200050c57600080fd5b84516001600160401b03808211156200052457600080fd5b620005328883890162000447565b955060208701519150808211156200054957600080fd5b50620005588782880162000447565b9350506200056960408601620004d8565b91506200057960608601620004d8565b905092959194509250565b634e487b7160e01b600052601160045260246000fd5b60ff8281168282160390811115620002f457620002f462000584565b600181815b80851115620005f7578160001904821115620005db57620005db62000584565b80851615620005e957918102915b93841c9390800290620005bb565b509250929050565b6000826200061057506001620002f4565b816200061f57506000620002f4565b8160018114620006385760028114620006435762000663565b6001915050620002f4565b60ff84111562000657576200065762000584565b50506001821b620002f4565b5060208310610133831016604e8410600b841016171562000688575081810a620002f4565b620006948383620005b6565b8060001904821115620006ab57620006ab62000584565b029392505050565b6000620006c460ff841683620005ff565b9392505050565b600181811c90821680620006e057607f821691505b6020821081036200070157634e487b7160e01b600052602260045260246000fd5b50919050565b601f82111562000406576000816000526020600020601f850160051c81016020861015620007325750805b601f850160051c820191505b8181101562000753578281556001016200073e565b505050505050565b81516001600160401b038111156200077757620007776200040b565b6200078f81620007888454620006cb565b8462000707565b602080601f831160018114620007c75760008415620007ae5750858301515b600019600386901b1c1916600185901b17855562000753565b600085815260208120601f198616915b82811015620007f857888601518255948401946001909101908401620007d7565b5085821015620008175787850151600019600388901b60f8161c191681555b5050505050600190811b01905550565b80820180821115620002f457620002f462000584565b60208152600082518060208401526200085e81604085016020870162000421565b601f01601f19169190910160400192915050565b80516020808301519190811015620007015760001960209190910360031b1b16919050565b60805160a05160c05160e0516101005161012051610140516101605161018051613c246200094e6000396000610d8c01526000610d6101526000611d8501526000611d5d01526000611cb801526000611ce201526000611d0c0152600081816106bc015281816122c60152818161233b015261240101526000818161055301528181610a45015281816113ff0152818161195a01528181611f100152818161216d0152818161263f01526126f80152613c246000f3fe6080604052600436106102935760003560e01c80637ecebe001161015a578063bb0b6a53116100c1578063d42438851161007a578063d424388514610826578063d505accf14610846578063dd62ed3e14610866578063f2fde38b14610886578063fc0c546a146104d7578063ff7bd03d146108a657600080fd5b8063bb0b6a5314610772578063bc70b3541461079f578063bd815db0146107bf578063c7c7f5b3146107d2578063ca5eb5e1146107f3578063d045a0dc1461081357600080fd5b80639f68b964116101135780639f68b964146106de578063a457c2d7146106f2578063a9059cbb14610712578063b731ea0a14610732578063b92d0eff146104d7578063b98bd0701461075257600080fd5b80637ecebe001461061b57806384b0196e1461063b578063857749b0146106635780638da5cb5b1461067757806395d89b4114610695578063963efcaa146106aa57600080fd5b80633400288b116101fe5780635a0dfe4d116101b75780635a0dfe4d1461050a5780635e280f11146105415780636fc1b31e1461057557806370a0823114610595578063715018a6146105cb5780637d25a05e146105e057600080fd5b80633400288b146104555780633644e51514610475578063395093511461048a5780633b6f743b146104aa57806352ae2879146104d75780635535d461146104ea57600080fd5b8063156a0d0f11610250578063156a0d0f1461039757806317442b70146103be57806318160ddd146103df5780631f5e1334146103fe57806323b872dd14610413578063313ce5671461043357600080fd5b806306fdde0314610298578063095ea7b3146102c35780630d35b415146102f3578063111ecdad1461032257806313137d651461035a578063134d4f251461036f575b600080fd5b3480156102a457600080fd5b506102ad6108c6565b6040516102ba9190612cda565b60405180910390f35b3480156102cf57600080fd5b506102e36102de366004612d02565b610958565b60405190151581526020016102ba565b3480156102ff57600080fd5b5061031361030e366004612d40565b610972565b6040516102ba93929190612d74565b34801561032e57600080fd5b50600454610342906001600160a01b031681565b6040516001600160a01b0390911681526020016102ba565b61036d610368366004612e67565b610a43565b005b34801561037b57600080fd5b50610384600281565b60405161ffff90911681526020016102ba565b3480156103a357600080fd5b506040805162b9270b60e21b815260016020820152016102ba565b3480156103ca57600080fd5b506040805160018082526020820152016102ba565b3480156103eb57600080fd5b506007545b6040519081526020016102ba565b34801561040a57600080fd5b50610384600181565b34801561041f57600080fd5b506102e361042e366004612f06565b610b03565b34801561043f57600080fd5b5060125b60405160ff90911681526020016102ba565b34801561046157600080fd5b5061036d610470366004612f60565b610b29565b34801561048157600080fd5b506103f0610b87565b34801561049657600080fd5b506102e36104a5366004612d02565b610b96565b3480156104b657600080fd5b506104ca6104c5366004612f8a565b610bb8565b6040516102ba9190612fdb565b3480156104e357600080fd5b5030610342565b3480156104f657600080fd5b506102ad610505366004613004565b610c1f565b34801561051657600080fd5b506102e3610525366004612f60565b63ffffffff919091166000908152600160205260409020541490565b34801561054d57600080fd5b506103427f000000000000000000000000000000000000000000000000000000000000000081565b34801561058157600080fd5b5061036d610590366004613037565b610cc4565b3480156105a157600080fd5b506103f06105b0366004613037565b6001600160a01b031660009081526005602052604090205490565b3480156105d757600080fd5b5061036d610d21565b3480156105ec57600080fd5b506106036105fb366004612f60565b600092915050565b6040516001600160401b0390911681526020016102ba565b34801561062757600080fd5b506103f0610636366004613037565b610d35565b34801561064757600080fd5b50610650610d53565b6040516102ba9796959493929190613054565b34801561066f57600080fd5b506006610443565b34801561068357600080fd5b506000546001600160a01b0316610342565b3480156106a157600080fd5b506102ad610ddc565b3480156106b657600080fd5b506103f07f000000000000000000000000000000000000000000000000000000000000000081565b3480156106ea57600080fd5b5060006102e3565b3480156106fe57600080fd5b506102e361070d366004612d02565b610deb565b34801561071e57600080fd5b506102e361072d366004612d02565b610e71565b34801561073e57600080fd5b50600254610342906001600160a01b031681565b34801561075e57600080fd5b5061036d61076d366004613131565b610e7f565b34801561077e57600080fd5b506103f061078d366004613172565b60016020526000908152604090205481565b3480156107ab57600080fd5b506102ad6107ba36600461318d565b610fe0565b61036d6107cd366004613131565b61115b565b6107e56107e03660046131ed565b6112e5565b6040516102ba92919061325a565b3480156107ff57600080fd5b5061036d61080e366004613037565b6113d8565b61036d610821366004612e67565b61145e565b34801561083257600080fd5b5061036d610841366004613037565b61148d565b34801561085257600080fd5b5061036d6108613660046132ac565b6114e3565b34801561087257600080fd5b506103f0610881366004613323565b611647565b34801561089257600080fd5b5061036d6108a1366004613037565b611672565b3480156108b257600080fd5b506102e36108c1366004613351565b6116eb565b6060600880546108d59061336d565b80601f01602080910402602001604051908101604052809291908181526020018280546109019061336d565b801561094e5780601f106109235761010080835404028352916020019161094e565b820191906000526020600020905b81548152906001019060200180831161093157829003601f168201915b5050505050905090565b600033610966818585611721565b60019150505b92915050565b604080518082019091526000808252602082015260606109a5604051806040016040528060008152602001600081525090565b60408051808201825260008082526001600160401b03602080840182905284518381529081019094529195509182610a00565b6040805180820190915260008152606060208201528152602001906001900390816109d85790505b509350600080610a25604089013560608a0135610a2060208c018c613172565b611845565b60408051808201909152918252602082015296989597505050505050565b7f00000000000000000000000000000000000000000000000000000000000000006001600160a01b03163314610a93576040516391ac5e4f60e01b81523360048201526024015b60405180910390fd5b60208701803590610aad90610aa8908a613172565b611889565b14610aeb57610abf6020880188613172565b60405163309afaf360e21b815263ffffffff909116600482015260208801356024820152604401610a8a565b610afa878787878787876118c5565b50505050505050565b600033610b11858285611a2c565b610b1c858585611aa6565b60019150505b9392505050565b610b31611c51565b63ffffffff8216600081815260016020908152604091829020849055815192835282018390527f238399d427b947898edb290f5ff0f9109849b1c3ba196a42e35f00c50a54b98b91015b60405180910390a15050565b6000610b91611cab565b905090565b600033610966818585610ba98383611647565b610bb391906133cd565b611721565b60408051808201909152600080825260208201526000610be860408501356060860135610a206020880188613172565b915050600080610bf88684611dd6565b9092509050610c15610c0d6020880188613172565b838388611efa565b9695505050505050565b600360209081526000928352604080842090915290825290208054610c439061336d565b80601f0160208091040260200160405190810160405280929190818152602001828054610c6f9061336d565b8015610cbc5780601f10610c9157610100808354040283529160200191610cbc565b820191906000526020600020905b815481529060010190602001808311610c9f57829003601f168201915b505050505081565b610ccc611c51565b600480546001600160a01b0319166001600160a01b0383169081179091556040519081527ff0be4f1e87349231d80c36b33f9e8639658eeaf474014dee15a3e6a4d4414197906020015b60405180910390a150565b610d29611c51565b610d336000611fdb565b565b6001600160a01b0381166000908152600c602052604081205461096c565b600060608082808083610d877f0000000000000000000000000000000000000000000000000000000000000000600a61202b565b610db27f0000000000000000000000000000000000000000000000000000000000000000600b61202b565b60408051600080825260208201909252600f60f81b9b939a50919850469750309650945092509050565b6060600980546108d59061336d565b60003381610df98286611647565b905083811015610e595760405162461bcd60e51b815260206004820152602560248201527f45524332303a2064656372656173656420616c6c6f77616e63652062656c6f77604482015264207a65726f60d81b6064820152608401610a8a565b610e668286868403611721565b506001949350505050565b600033610966818585611aa6565b610e87611c51565b60005b81811015610fae57610ecc838383818110610ea757610ea76133e0565b9050602002810190610eb991906133f6565b610ec7906040810190613416565b6120d6565b828282818110610ede57610ede6133e0565b9050602002810190610ef091906133f6565b610efe906040810190613416565b60036000868686818110610f1457610f146133e0565b9050602002810190610f2691906133f6565b610f34906020810190613172565b63ffffffff1663ffffffff1681526020019081526020016000206000868686818110610f6257610f626133e0565b9050602002810190610f7491906133f6565b610f8590604081019060200161345c565b61ffff168152602081019190915260400160002091610fa59190836134c7565b50600101610e8a565b507fbe4864a8e820971c0247f5992e2da559595f7bf076a21cb5928d443d2a13b6748282604051610b7b9291906135af565b63ffffffff8416600090815260036020908152604080832061ffff871684529091528120805460609291906110149061336d565b80601f01602080910402602001604051908101604052809291908181526020018280546110409061336d565b801561108d5780601f106110625761010080835404028352916020019161108d565b820191906000526020600020905b81548152906001019060200180831161107057829003601f168201915b5050505050905080516000036110dd5783838080601f0160208091040260200160405190810160405280939291908181526020018383808284376000920191909152509294506111539350505050565b60008390036110ed579050611153565b60028310611136576110ff84846120d6565b8061110d8460028188613693565b60405160200161111f939291906136bd565b604051602081830303815290604052915050611153565b8383604051639a6d49cd60e01b8152600401610a8a9291906136e5565b949350505050565b60005b818110156112645736838383818110611179576111796133e0565b905060200281019061118b91906136f9565b90506111be61119d6020830183613172565b602083013563ffffffff919091166000908152600160205260409020541490565b6111c8575061125c565b3063d045a0dc60c08301358360a08101356111e7610100830183613416565b6111f8610100890160e08a01613037565b6112066101208a018a613416565b6040518963ffffffff1660e01b81526004016112289796959493929190613725565b6000604051808303818588803b15801561124157600080fd5b505af1158015611255573d6000803e3d6000fd5b5050505050505b60010161115e565b50336001600160a01b0316638e9e70996040518163ffffffff1660e01b8152600401600060405180830381865afa1580156112a3573d6000803e3d6000fd5b505050506040513d6000823e601f3d908101601f191682016040526112cb91908101906137d3565b604051638351eea760e01b8152600401610a8a9190612cda565b6112ed612c43565b60408051808201909152600080825260208201526000806113236040880135606089013561131e60208b018b613172565b61211d565b915091506000806113348984611dd6565b909250905061136061134960208b018b613172565b838361135a368d90038d018d613874565b8b61213a565b60408051808201909152858152602080820186905282519298509096503391907ffff873bb909b73d08a8c1af4b21779e87103bb8ea8cf3b3a0067eb8526b8b80a906113ae908d018d613172565b6040805163ffffffff9092168252602082018990520160405180910390a350505050935093915050565b6113e0611c51565b60405163ca5eb5e160e01b81526001600160a01b0382811660048301527f0000000000000000000000000000000000000000000000000000000000000000169063ca5eb5e190602401600060405180830381600087803b15801561144357600080fd5b505af1158015611457573d6000803e3d6000fd5b5050505050565b33301461147e5760405163029a949d60e31b815260040160405180910390fd5b610afa87878787878787610aeb565b611495611c51565b600280546001600160a01b0319166001600160a01b0383169081179091556040519081527fd48d879cef83a1c0bdda516f27b13ddb1b3f8bbac1c9e1511bb2a659c242776090602001610d16565b834211156115335760405162461bcd60e51b815260206004820152601d60248201527f45524332305065726d69743a206578706972656420646561646c696e650000006044820152606401610a8a565b60007f6e71edae12b1b97f4d1f60370fef10105fa2faae0126114a169c64845d6126c98888886115628c612245565b6040805160208101969096526001600160a01b0394851690860152929091166060840152608083015260a082015260c0810186905260e00160405160208183030381529060405280519060200120905060006115bd8261226d565b905060006115cd8287878761229a565b9050896001600160a01b0316816001600160a01b0316146116305760405162461bcd60e51b815260206004820152601e60248201527f45524332305065726d69743a20696e76616c6964207369676e617475726500006044820152606401610a8a565b61163b8a8a8a611721565b50505050505050505050565b6001600160a01b03918216600090815260066020908152604080832093909416825291909152205490565b61167a611c51565b6001600160a01b0381166116df5760405162461bcd60e51b815260206004820152602660248201527f4f776e61626c653a206e6577206f776e657220697320746865207a65726f206160448201526564647265737360d01b6064820152608401610a8a565b6116e881611fdb565b50565b60006020820180359060019083906117039086613172565b63ffffffff1681526020810191909152604001600020541492915050565b6001600160a01b0383166117835760405162461bcd60e51b8152602060048201526024808201527f45524332303a20617070726f76652066726f6d20746865207a65726f206164646044820152637265737360e01b6064820152608401610a8a565b6001600160a01b0382166117e45760405162461bcd60e51b815260206004820152602260248201527f45524332303a20617070726f766520746f20746865207a65726f206164647265604482015261737360f01b6064820152608401610a8a565b6001600160a01b0383811660008181526006602090815260408083209487168084529482529182902085905590518481527f8c5be1e5ebec7d5bd14f71427d1e84f3dd0314c0f7b2291e5b200ac8c7c3b925910160405180910390a3505050565b600080611851856122c2565b915081905083811015611881576040516371c4efed60e01b81526004810182905260248101859052604401610a8a565b935093915050565b63ffffffff81166000908152600160205260408120548061096c5760405163f6ff4fb760e01b815263ffffffff84166004820152602401610a8a565b60006118d76118d487876122f9565b90565b90506000611903826118f16118ec8a8a612311565b612334565b6118fe60208d018d613172565b612369565b905060288611156119ca57600061194061192360608c0160408d016138a6565b61193060208d018d613172565b8461193b8c8c61237d565b6123c8565b604051633e5ac80960e11b81529091506001600160a01b037f00000000000000000000000000000000000000000000000000000000000000001690637cb59012906119969086908d9060009087906004016138c3565b600060405180830381600087803b1580156119b057600080fd5b505af11580156119c4573d6000803e3d6000fd5b50505050505b6001600160a01b038216887fefed6d3500546b29533b128a29e3a94d70788727f0507505ac12eaf2e578fd9c611a0360208d018d613172565b6040805163ffffffff9092168252602082018690520160405180910390a3505050505050505050565b6000611a388484611647565b90506000198114611aa05781811015611a935760405162461bcd60e51b815260206004820152601d60248201527f45524332303a20696e73756666696369656e7420616c6c6f77616e63650000006044820152606401610a8a565b611aa08484848403611721565b50505050565b6001600160a01b038316611b0a5760405162461bcd60e51b815260206004820152602560248201527f45524332303a207472616e736665722066726f6d20746865207a65726f206164604482015264647265737360d81b6064820152608401610a8a565b6001600160a01b038216611b6c5760405162461bcd60e51b815260206004820152602360248201527f45524332303a207472616e7366657220746f20746865207a65726f206164647260448201526265737360e81b6064820152608401610a8a565b6001600160a01b03831660009081526005602052604090205481811015611be45760405162461bcd60e51b815260206004820152602660248201527f45524332303a207472616e7366657220616d6f756e7420657863656564732062604482015265616c616e636560d01b6064820152608401610a8a565b6001600160a01b0380851660008181526005602052604080822086860390559286168082529083902080548601905591517fddf252ad1be2c89b69c2b068fc378daa952ba7f163c4a11628f55a4df523b3ef90611c449086815260200190565b60405180910390a3611aa0565b6000546001600160a01b03163314610d335760405162461bcd60e51b815260206004820181905260248201527f4f776e61626c653a2063616c6c6572206973206e6f7420746865206f776e65726044820152606401610a8a565b6000306001600160a01b037f000000000000000000000000000000000000000000000000000000000000000016148015611d0457507f000000000000000000000000000000000000000000000000000000000000000046145b15611d2e57507f000000000000000000000000000000000000000000000000000000000000000090565b610b91604080517f8b73c3c69bb8fe3d512ecc4cf759cc79239f7b179b0ffacaa9a75d522b39400f60208201527f0000000000000000000000000000000000000000000000000000000000000000918101919091527f000000000000000000000000000000000000000000000000000000000000000060608201524660808201523060a082015260009060c00160405160208183030381529060405280519060200120905090565b6060806000611e338560200135611dec866123fa565b611df960a0890189613416565b8080601f01602080910402602001604051908101604052809392919081815260200183838082843760009201919091525061242692505050565b9093509050600081611e46576001611e49565b60025b9050611e69611e5b6020880188613172565b826107ba60808a018a613416565b6004549093506001600160a01b031615611ef1576004805460405163043a78eb60e01b81526001600160a01b039091169163043a78eb91611eae9188918891016138f4565b602060405180830381865afa158015611ecb573d6000803e3d6000fd5b505050506040513d601f19601f82011682018060405250810190611eef9190613919565b505b50509250929050565b60408051808201909152600080825260208201527f00000000000000000000000000000000000000000000000000000000000000006001600160a01b031663ddc28c586040518060a001604052808863ffffffff168152602001611f5d89611889565b8152602001878152602001868152602001851515815250306040518363ffffffff1660e01b8152600401611f92929190613936565b6040805180830381865afa158015611fae573d6000803e3d6000fd5b505050506040513d601f19601f82011682018060405250810190611fd291906139df565b95945050505050565b600080546001600160a01b038381166001600160a01b0319831681178455604051919092169283917f8be0079c531659141344cd1fd0a4f28419497f9722a3daafe3b4186f6b6457e09190a35050565b606060ff83146120455761203e836124a0565b905061096c565b8180546120519061336d565b80601f016020809104026020016040519081016040528092919081815260200182805461207d9061336d565b80156120ca5780601f1061209f576101008083540402835291602001916120ca565b820191906000526020600020905b8154815290600101906020018083116120ad57829003601f168201915b5050505050905061096c565b60006120e56002828486613693565b6120ee916139fb565b60f01c905060038114612118578282604051639a6d49cd60e01b8152600401610a8a9291906136e5565b505050565b60008061212b858585611845565b909250905061188133836124df565b612142612c43565b60006121518460000151612613565b60208501519091501561216b5761216b846020015161263b565b7f00000000000000000000000000000000000000000000000000000000000000006001600160a01b0316632637a450826040518060a001604052808b63ffffffff1681526020016121bb8c611889565b81526020018a815260200189815260200160008960200151111515815250866040518463ffffffff1660e01b81526004016121f7929190613936565b60806040518083038185885af1158015612215573d6000803e3d6000fd5b50505050506040513d601f19601f8201168201806040525081019061223a9190613a2b565b979650505050505050565b6001600160a01b0381166000908152600c602052604090208054600181018255905b50919050565b600061096c61227a611cab565b8360405161190160f01b8152600281019290925260228201526042902090565b60008060006122ab87878787612721565b915091506122b8816127e5565b5095945050505050565b60007f00000000000000000000000000000000000000000000000000000000000000006122ef8184613a92565b61096c9190613ab4565b60006123086020828486613693565b610b2291613acb565b6000612321602860208486613693565b61232a91613ae9565b60c01c9392505050565b600061096c7f00000000000000000000000000000000000000000000000000000000000000006001600160401b038416613ab4565b6000612375848461292f565b509092915050565b606061238c8260288186613693565b8080601f016020809104026020016040519081016040528093929190818152602001838380828437600092019190915250929695505050505050565b6060848484846040516020016123e19493929190613b17565b6040516020818303038152906040529050949350505050565b600061096c7f000000000000000000000000000000000000000000000000000000000000000083613a92565b805160609015158061246f57848460405160200161245b92919091825260c01b6001600160c01b031916602082015260280190565b604051602081830303815290604052612496565b848433856040516020016124869493929190613b66565b6040516020818303038152906040525b9150935093915050565b606060006124ad836129f0565b604080516020808252818301909252919250600091906020820181803683375050509182525060208101929092525090565b6001600160a01b03821661253f5760405162461bcd60e51b815260206004820152602160248201527f45524332303a206275726e2066726f6d20746865207a65726f206164647265736044820152607360f81b6064820152608401610a8a565b6001600160a01b038216600090815260056020526040902054818110156125b35760405162461bcd60e51b815260206004820152602260248201527f45524332303a206275726e20616d6f756e7420657863656564732062616c616e604482015261636560f01b6064820152608401610a8a565b6001600160a01b03831660008181526005602090815260408083208686039055600780548790039055518581529192917fddf252ad1be2c89b69c2b068fc378daa952ba7f163c4a11628f55a4df523b3ef910160405180910390a3505050565b6000813414612637576040516304fb820960e51b8152346004820152602401610a8a565b5090565b60007f00000000000000000000000000000000000000000000000000000000000000006001600160a01b031663e4fe1d946040518163ffffffff1660e01b8152600401602060405180830381865afa15801561269b573d6000803e3d6000fd5b505050506040513d601f19601f820116820180604052508101906126bf9190613ba9565b90506001600160a01b0381166126e8576040516329b99a9560e11b815260040160405180910390fd5b61271d6001600160a01b038216337f000000000000000000000000000000000000000000000000000000000000000085612a18565b5050565b6000807f7fffffffffffffffffffffffffffffff5d576e7357a4501ddfe92f46681b20a083111561275857506000905060036127dc565b6040805160008082526020820180845289905260ff881692820192909252606081018690526080810185905260019060a0016020604051602081039080840390855afa1580156127ac573d6000803e3d6000fd5b5050604051601f1901519150506001600160a01b0381166127d5576000600192509250506127dc565b9150600090505b94509492505050565b60008160048111156127f9576127f9613bc6565b036128015750565b600181600481111561281557612815613bc6565b036128625760405162461bcd60e51b815260206004820152601860248201527f45434453413a20696e76616c6964207369676e617475726500000000000000006044820152606401610a8a565b600281600481111561287657612876613bc6565b036128c35760405162461bcd60e51b815260206004820152601f60248201527f45434453413a20696e76616c6964207369676e6174757265206c656e677468006044820152606401610a8a565b60038160048111156128d7576128d7613bc6565b036116e85760405162461bcd60e51b815260206004820152602260248201527f45434453413a20696e76616c6964207369676e6174757265202773272076616c604482015261756560f01b6064820152608401610a8a565b6001600160a01b0382166129855760405162461bcd60e51b815260206004820152601f60248201527f45524332303a206d696e7420746f20746865207a65726f2061646472657373006044820152606401610a8a565b806007600082825461299791906133cd565b90915550506001600160a01b0382166000818152600560209081526040808320805486019055518481527fddf252ad1be2c89b69c2b068fc378daa952ba7f163c4a11628f55a4df523b3ef910160405180910390a35050565b600060ff8216601f81111561096c57604051632cd44ac360e21b815260040160405180910390fd5b604080516001600160a01b038581166024830152848116604483015260648083018590528351808403909101815260849092018352602080830180516001600160e01b03166323b872dd60e01b17905283518085019094528084527f5361666545524332303a206c6f772d6c6576656c2063616c6c206661696c656490840152611aa092879291600091612ab0918516908490612b30565b9050805160001480612ad1575080806020019051810190612ad19190613919565b6121185760405162461bcd60e51b815260206004820152602a60248201527f5361666545524332303a204552433230206f7065726174696f6e20646964206e6044820152691bdd081cdd58d8d9595960b21b6064820152608401610a8a565b6060611153848460008585600080866001600160a01b03168587604051612b579190613bdc565b60006040518083038185875af1925050503d8060008114612b94576040519150601f19603f3d011682016040523d82523d6000602084013e612b99565b606091505b509150915061223a8783838760608315612c14578251600003612c0d576001600160a01b0385163b612c0d5760405162461bcd60e51b815260206004820152601d60248201527f416464726573733a2063616c6c20746f206e6f6e2d636f6e74726163740000006044820152606401610a8a565b5081611153565b6111538383815115612c295781518083602001fd5b8060405162461bcd60e51b8152600401610a8a9190612cda565b60405180606001604052806000801916815260200160006001600160401b03168152602001612c85604051806040016040528060008152602001600081525090565b905290565b60005b83811015612ca5578181015183820152602001612c8d565b50506000910152565b60008151808452612cc6816020860160208601612c8a565b601f01601f19169290920160200192915050565b602081526000610b226020830184612cae565b6001600160a01b03811681146116e857600080fd5b60008060408385031215612d1557600080fd5b8235612d2081612ced565b946020939093013593505050565b600060e0828403121561226757600080fd5b600060208284031215612d5257600080fd5b81356001600160401b03811115612d6857600080fd5b61115384828501612d2e565b8351815260208085015190820152600060a08201604060a0604085015281865180845260c08601915060c08160051b8701019350602080890160005b83811015612def5788870360bf19018552815180518852830151838801879052612ddc87890182612cae565b9750509382019390820190600101612db0565b50508751606088015250505060208501516080850152509050611153565b60006060828403121561226757600080fd5b60008083601f840112612e3157600080fd5b5081356001600160401b03811115612e4857600080fd5b602083019150836020828501011115612e6057600080fd5b9250929050565b600080600080600080600060e0888a031215612e8257600080fd5b612e8c8989612e0d565b96506060880135955060808801356001600160401b0380821115612eaf57600080fd5b612ebb8b838c01612e1f565b909750955060a08a01359150612ed082612ced565b90935060c08901359080821115612ee657600080fd5b50612ef38a828b01612e1f565b989b979a50959850939692959293505050565b600080600060608486031215612f1b57600080fd5b8335612f2681612ced565b92506020840135612f3681612ced565b929592945050506040919091013590565b803563ffffffff81168114612f5b57600080fd5b919050565b60008060408385031215612f7357600080fd5b612d2083612f47565b80151581146116e857600080fd5b60008060408385031215612f9d57600080fd5b82356001600160401b03811115612fb357600080fd5b612fbf85828601612d2e565b9250506020830135612fd081612f7c565b809150509250929050565b81518152602080830151908201526040810161096c565b803561ffff81168114612f5b57600080fd5b6000806040838503121561301757600080fd5b61302083612f47565b915061302e60208401612ff2565b90509250929050565b60006020828403121561304957600080fd5b8135610b2281612ced565b60ff60f81b881681526000602060e0602084015261307560e084018a612cae565b8381036040850152613087818a612cae565b606085018990526001600160a01b038816608086015260a0850187905284810360c08601528551808252602080880193509091019060005b818110156130db578351835292840192918401916001016130bf565b50909c9b505050505050505050505050565b60008083601f8401126130ff57600080fd5b5081356001600160401b0381111561311657600080fd5b6020830191508360208260051b8501011115612e6057600080fd5b6000806020838503121561314457600080fd5b82356001600160401b0381111561315a57600080fd5b613166858286016130ed565b90969095509350505050565b60006020828403121561318457600080fd5b610b2282612f47565b600080600080606085870312156131a357600080fd5b6131ac85612f47565b93506131ba60208601612ff2565b925060408501356001600160401b038111156131d557600080fd5b6131e187828801612e1f565b95989497509550505050565b6000806000838503608081121561320357600080fd5b84356001600160401b0381111561321957600080fd5b61322587828801612d2e565b9450506040601f198201121561323a57600080fd5b50602084019150606084013561324f81612ced565b809150509250925092565b600060c082019050835182526001600160401b0360208501511660208301526040840151613295604084018280518252602090810151910152565b5082516080830152602083015160a0830152610b22565b600080600080600080600060e0888a0312156132c757600080fd5b87356132d281612ced565b965060208801356132e281612ced565b95506040880135945060608801359350608088013560ff8116811461330657600080fd5b9699959850939692959460a0840135945060c09093013592915050565b6000806040838503121561333657600080fd5b823561334181612ced565b91506020830135612fd081612ced565b60006060828403121561336357600080fd5b610b228383612e0d565b600181811c9082168061338157607f821691505b60208210810361226757634e487b7160e01b600052602260045260246000fd5b634e487b7160e01b600052604160045260246000fd5b634e487b7160e01b600052601160045260246000fd5b8082018082111561096c5761096c6133b7565b634e487b7160e01b600052603260045260246000fd5b60008235605e1983360301811261340c57600080fd5b9190910192915050565b6000808335601e1984360301811261342d57600080fd5b8301803591506001600160401b0382111561344757600080fd5b602001915036819003821315612e6057600080fd5b60006020828403121561346e57600080fd5b610b2282612ff2565b601f821115612118576000816000526020600020601f850160051c810160208610156134a05750805b601f850160051c820191505b818110156134bf578281556001016134ac565b505050505050565b6001600160401b038311156134de576134de6133a1565b6134f2836134ec835461336d565b83613477565b6000601f841160018114613526576000851561350e5750838201355b600019600387901b1c1916600186901b178355611457565b600083815260209020601f19861690835b828110156135575786850135825560209485019460019092019101613537565b50868210156135745760001960f88860031b161c19848701351681555b505060018560011b0183555050505050565b81835281816020850137506000828201602090810191909152601f909101601f19169091010190565b60208082528181018390526000906040808401600586901b8501820187855b8881101561368557878303603f190184528135368b9003605e190181126135f457600080fd5b8a01606063ffffffff61360683612f47565b16855261ffff613617898401612ff2565b168886015286820135601e1983360301811261363257600080fd5b9091018781019190356001600160401b0381111561364f57600080fd5b80360383131561365e57600080fd5b81888701526136708287018285613586565b968901969550505091860191506001016135ce565b509098975050505050505050565b600080858511156136a357600080fd5b838611156136b057600080fd5b5050820193919092039150565b600084516136cf818460208901612c8a565b8201838582376000930192835250909392505050565b602081526000611153602083018486613586565b6000823561013e1983360301811261340c57600080fd5b6001600160401b03811681146116e857600080fd5b63ffffffff61373389612f47565b168152602088013560208201526000604089013561375081613710565b6001600160401b03811660408401525087606083015260e0608083015261377b60e083018789613586565b6001600160a01b03861660a084015282810360c084015261379d818587613586565b9a9950505050505050505050565b604080519081016001600160401b03811182821017156137cd576137cd6133a1565b60405290565b6000602082840312156137e557600080fd5b81516001600160401b03808211156137fc57600080fd5b818401915084601f83011261381057600080fd5b815181811115613822576138226133a1565b604051601f8201601f19908116603f0116810190838211818310171561384a5761384a6133a1565b8160405282815287602084870101111561386357600080fd5b61223a836020830160208801612c8a565b60006040828403121561388657600080fd5b61388e6137ab565b82358152602083013560208201528091505092915050565b6000602082840312156138b857600080fd5b8135610b2281613710565b60018060a01b038516815283602082015261ffff83166040820152608060608201526000610c156080830184612cae565b6040815260006139076040830185612cae565b8281036020840152611fd28185612cae565b60006020828403121561392b57600080fd5b8151610b2281612f7c565b6040815263ffffffff8351166040820152602083015160608201526000604084015160a0608084015261396c60e0840182612cae565b90506060850151603f198483030160a08501526139898282612cae565b60809690960151151560c08501525050506001600160a01b039190911660209091015290565b6000604082840312156139c157600080fd5b6139c96137ab565b9050815181526020820151602082015292915050565b6000604082840312156139f157600080fd5b610b2283836139af565b6001600160f01b03198135818116916002851015613a235780818660020360031b1b83161692505b505092915050565b600060808284031215613a3d57600080fd5b604051606081018181106001600160401b0382111715613a5f57613a5f6133a1565b604052825181526020830151613a7481613710565b6020820152613a8684604085016139af565b60408201529392505050565b600082613aaf57634e487b7160e01b600052601260045260246000fd5b500490565b808202811582820484141761096c5761096c6133b7565b8035602083101561096c57600019602084900360031b1b1692915050565b6001600160c01b03198135818116916008851015613a235760089490940360031b84901b1690921692915050565b6001600160401b0360c01b8560c01b16815263ffffffff60e01b8460e01b16600882015282600c82015260008251613b5681602c850160208701612c8a565b91909101602c0195945050505050565b8481526001600160401b0360c01b8460c01b16602082015282602882015260008251613b99816048850160208701612c8a565b9190910160480195945050505050565b600060208284031215613bbb57600080fd5b8151610b2281612ced565b634e487b7160e01b600052602160045260246000fd5b6000825161340c818460208701612c8a56fea2646970667358221220403ce4b51d21d0f63c40d73026ffc0b3eec1ed6734aaa356dfed717a2caf014664736f6c63430008160033",
  "linkReferences": {},
  "deployedLinkReferences": {}
}